:100000000C9463000C948B000C948B000C944D06A4
:100010000C944D060C944D060C948B000C948B00A4
:100020000C948B000C948B000C948B000C948B0024
:100030000C948B000C948B000C948B000C948B0014
:100040000C9403060C948B000C94D1050C94AB0516
:100050000C948B000C948B000C948B000C948B00F4
:100060000C948B000C948B000000000023002600F1
:10007000290000000000240027002A0000000000E2
:10008000250028002B0004040404040404040202D4
:100090000202020203030303030301020408102007
:1000A0004080010204081020010204081020000012
:1000B0000008000201000003040700000000000027
:1000C0000000E106C70611241FBECFEFD8E0DEBF57
:1000D000CDBF11E0A0E0B1E0E4E9F8E102C0059095
:1000E0000D92AA38B107D9F723E0AAE8B1E001C020
:1000F0001D92A830B207E1F710E0C2E6D0E004C0DC
:100100002197FE010E94C909C136D107C9F70E9493
:100110003B070C943D0C0C94000080E480937C0021
:1001200080917A00806480937A0080917A0086FDC5
:10013000FCCF809178002091790090E0922B089577
:10014000CF92DF92EF92FF920F931F932FB7F89405
:10015000C090D701D090D801E090D901F090DA0199
:100160002FBFDC01CB018C0D9D1DAE1DBF1D4FB7F8
:10017000F8940091D7011091D8012091D9013091C4
:10018000DA014FBF0C151D052E053F0528F080171D
:100190009107A207B30758F71F910F91FF90EF90B7
:1001A000DF90CF900895CF92DF92EF92FF920F935E
:1001B0001F93CF93DF936C017A018B01C0E0D0E0F5
:1001C000CE15DF0589F0D8016D918D01D601ED9135
:1001D000FC910190F081E02DC6010995892B11F465
:1001E0007E0102C02196ECCFC701DF91CF911F9114
:1001F0000F91FF90EF90DF90CF900895FC01448124
:100200005581608171818BED91E00C94D300FC01EC
:10021000918D828D981761F0828DDF01A80FB11D3D
:100220005D968C91928D9F5F9F73928F90E0089561
:100230008FEF9FEF0895FC01918D828D981731F01B
:10024000828DE80FF11D858D90E008958FEF9FEF6F
:100250000895FC01918D228D892F90E0805C9F4F45
:10026000821B91098F73992708958BED91E00E946D
:10027000290121E0892B09F420E0822F0895FC0157
:10028000848DDF01A80FB11DA35ABF4F2C91848D1F
:1002900090E001968F739927848FA689B7892C9354
:1002A000A089B1898C9180648C93938D848D9813EF
:1002B00006C00288F389E02D80818F7D80830895B8
:1002C000EF92FF920F931F93CF93DF93EC0181E0A6
:1002D000888F9B8D8C8D981305C0E889F989808162
:1002E00085FD24C0F62E0B8D10E00F5F1F4F0F739E
:1002F0001127E02E8C8DE8120CC00FB607FCFACF48
:10030000E889F989808185FFF5CFCE010E943F0100
:10031000F1CF8B8DFE01E80FF11DE35AFF4FF08204
:100320000B8FEA89FB898081806207C0EE89FF8993
:100330006083E889F98980818064808381E090E02E
:10034000DF91CF911F910F91FF90EF900895CF9380
:10035000DF93EC01888D8823C9F0EA89FB898081CD
:1003600085FD05C0A889B9898C9186FD0FC00FB69F
:1003700007FCF5CF808185FFF2CFA889B9898C91E0
:1003800085FFEDCFCE010E943F01E7CFDF91CF91F6
:10039000089580E090E0892B29F00E9435018111B9
:1003A0000C940000089590E0FC01E255FF4F349159
:1003B000FC01E656FF4F2491FC01EA57FF4FE49100
:1003C000EE2309F43BC0332339F1333091F038F494
:1003D0003130A9F0323001F584B58F7D12C037304D
:1003E00091F03830A1F03430B9F4809180008F7DE5
:1003F00003C0809180008F77809380000DC084B50A
:100400008F7784BD09C08091B0008F7703C0809141
:10041000B0008F7D8093B000F0E0EE0FFF1FE45836
:10042000FF4FA591B4918FB7F894EC91611103C07F
:1004300020952E2301C02E2B2C938FBF0895CF9390
:10044000DF9390E0FC01E656FF4F2491FC01EA5750
:10045000FF4F8491882361F190E0880F991FFC0180
:10046000EE58FF4FC591D491FC01E458FF4FA59180
:10047000B491611109C09FB7F894888120958223B7
:100480008883EC912E230BC0623061F49FB7F894FF
:100490003881822F809583238883EC912E2B2C9397
:1004A0009FBF06C08FB7F894E8812E2B28838FBF9B
:1004B000DF91CF9108953FB7F8948091CF0190914B
:1004C000D001A091D101B091D20126B5A89B05C061
:1004D0002F3F19F00196A11DB11D3FBFBA2FA92FC3
:1004E000982F8827820F911DA11DB11DBC01CD0140
:1004F00042E0660F771F881F991F4A95D1F708952C
:100500008F929F92AF92BF92CF92DF92EF92FF9223
:100510006B017C010E945B024B015C01C114D104A0
:10052000E104F104F1F00E945B02DC01CB018819C7
:100530009909AA09BB09883E9340A105B10570F34A
:1005400021E0C21AD108E108F10888EE880E83E0A4
:10055000981EA11CB11CC114D104E104F10419F7C7
:10056000DDCFFF90EF90DF90CF90BF90AF909F9046
:100570008F9008952091CC013091CD012817390733
:1005800071F49091CB018091CA01981741F0E091EC
:10059000CB01F0E0E657FE4F808190E008958FEFA9
:1005A0009FEF089508951F93CF93DF93DC015C962E
:1005B0002D913C915D972115310539F481E090E052
:1005C00013969C938E9312973DC05196ED91FC919A
:1005D000529750969C915097892F80951FB75E96A1
:1005E0004C915E9741FB772770F941FD6095F89437
:1005F0004081772311F0492B01C048234083E90152
:100600002197F1F748E0508160FF02C0592B01C0EB
:1006100058235083E9012197F1F76695415099F7E6
:10062000772321F090818923808303C08081982BD8
:1006300090831FBF5C968D919C915D970197F1F718
:1006400021E030E0C901DF91CF911F910895209101
:10065000CC013091CD012817390771F48091CA017E
:100660002091CB0190E0805C9F4F821B910960E458
:1006700070E00E948209089580E090E00895209142
:10068000CC013091CD0128173907B9F49091CB01F5
:100690008091CA01981789F0E091CB01F0E0E6570C
:1006A000FE4F80812091CB0130E02F5F3F4F2F73B1
:1006B00033272093CB0190E008958FEF9FEF0895AB
:1006C0000F931F93CF93DF93EC01162F042F1B8200
:1006D0001A8288EE93E0A0E0B0E08C839D83AE8325
:1006E000BF838AE191E0998388831F8A1E8A198ECD
:1006F000188E1B8E1A8E1D8E1C8E6E8D6E7F20FBAB
:1007000061F96E8F6695617081E06827842F0E9481
:10071000D30161E0802F0E941F02402F50E0FA01B8
:10072000E656FF4FE491E88BFA01EA57FF4FE49158
:10073000F0E0EE0FFF1FE458FF4F859194919A8BE4
:10074000898B60E0812F0E941F028E8D81FD04C085
:1007500061E0812F0E94D3011C87612F70E0FB01B3
:10076000E656FF4FE491ED87FB01EA57FF4FE49116
:10077000F0E0EE0FFF1FE859FF4F859194919F879E
:100780008E87DF91CF911F910F910895E091CC0159
:10079000F091CD01E817F90769F4A389B4899C9118
:1007A0008589809589238C931092CD011092CC017C
:1007B00081E0089580E00895CF93DF93EC019A01E2
:1007C000AB011B8E1A8E198E188E1F8A1E8A60E04E
:1007D00079E08DE390E00E949609F901243031051B
:1007E00018F0C901039702C081E090E09D8F8C8FC3
:1007F0006C85663108F069C0C9019695879584318A
:10080000910510F0439702C081E090E09F8B8E8BA2
:10081000369718F0C901059702C081E090E0998FE2
:10082000888FC901880F991F280F391F3695279582
:10083000369527952D30310518F02C50310902C01E
:1008400021E030E03B8F2A8F90916800683050F0B3
:1008500021E06E3008F420E081E001C0880F2A9585
:10086000EAF701C084E0892B809368009C8598306A
:1008700038F09E3040F0963148F020E030E008C07B
:100880002DE630E005C02BE630E002C02CE630E07B
:100890003C8B2B8B983030F481E001C0880F9A9507
:1008A000EAF70EC0292F30E09E3018F428503109A5
:1008B00002C02E50310981E001C0880F2A95EAF765
:1008C0008D8B8C8D9D8D0197F1F78A8D9B8D892B5A
:1008D000E1F08091CC019091CD018C179D07A9F09A
:1008E000009711F00E94C6038E8D8E7F8E8F10921E
:1008F000CA011092CB01D093CD01C093CC01EB89FA
:10090000FC8990818D89892B8083DF91CF91089517
:10091000FC01808191810C94640A0F931F93CF9303
:10092000DF93EC0188819981009729F02A813B812E
:100930002617370788F48B016F5F7F4F0E94FC0AF0
:10094000009761F0998388831B830A832C813D8102
:10095000232B11F4FC01108281E001C080E0DF91C3
:10096000CF911F910F910895EF92FF920F931F93D4
:10097000CF93DF93EC017B018A01BA010E948D04C1
:100980002881398181110DC02115310519F0C90166
:100990000E94640A198218821D821C821B821A829C
:1009A00006C01D830C83B701C9010E94DD0BCE0177
:1009B000DF91CF911F910F91FF90EF900895FC016F
:1009C00011821082138212821582148261157105C0
:1009D00051F0FB0101900020E9F73197AF01461B70
:1009E000570B0C94B40408956115710579F0FB015F
:1009F00001900020E9F73197AF01461B570BDC014E
:100A0000ED91FC910280F381E02D099480E090E06B
:100A100008950E94FE0067E371E08BED91E00C9475
:100A2000F404CF93DF93EB010E94FE0066E271E0D5
:100A30008BED91E00E94F404CE010E94FE0067E37A
:100A400071E08BED91E0DF91CF910C94F4048F92E3
:100A50009F92AF92BF92CF92DF92EF92FF92CF938D
:100A6000DF93CDB7DEB7A1970FB6F894DEBF0FBE08
:100A7000CDBF6B010E94FE0066E271E08BED91E05C
:100A80000E94F4040D2C000CEE08FF08F7FE2BC0AA
:100A9000E091DB01F091DC010190F081E02D6DE24D
:100AA0008BED91E0099522273327A9012C193D09E7
:100AB0004E095F0919A2CE0181967C019AE0892E28
:100AC000912CA12CB12CCA01B901A50194010E945D
:100AD000E40B605DF70162937F012115310541054B
:100AE000510589F71AC0A701960119A2CE01819676
:100AF0007C018AE0882E912CA12CB12CCA01B9016D
:100B0000A50194010E94E40B605DF70162937F01EF
:100B1000211531054105510589F7B7018BED91E0AC
:100B20000E94F40467E371E08BED91E00E94F4040D
:100B3000A1960FB6F894DEBF0FBECDBFDF91CF9167
:100B4000FF90EF90DF90CF90BF90AF909F908F90ED
:100B500008950E94C60B1F920F920FB60F92112498
:100B60002F933F934F935F936F937F938F939F93B5
:100B7000AF93BF93EF93FF938BED91E00E943F0102
:100B8000FF91EF91BF91AF919F918F917F916F9165
:100B90005F914F913F912F910F900FBE0F901F903B
:100BA00018951F920F920FB60F9211242F938F93C7
:100BB0009F93EF93FF93E091EB01F091EC01808123
:100BC000E091F101F091F20182FD12C090818091DB
:100BD000F4018F5F8F732091F501821751F0E0913E
:100BE000F401F0E0E552FE4F958F8093F40101C0CF
:100BF0008081FF91EF919F918F912F910F900FBE68
:100C00000F901F9018951F920F920FB60F921124FC
:100C10002F933F938F939F93AF93BF938091D7016F
:100C20009091D801A091D901B091DA013091CE0113
:100C300023E0230F2D3720F40196A11DB11D05C01F
:100C400026E8230F0296A11DB11D2093CE018093AB
:100C5000D7019093D801A093D901B093DA01809184
:100C6000CF019091D001A091D101B091D201019614
:100C7000A11DB11D8093CF019093D001A093D1010C
:100C8000B093D201BF91AF919F918F913F912F91DE
:100C90000F900FBE0F901F9018951F920F920FB6D6
:100CA0000F9211242F933F934F935F936F937F93F2
:100CB0008F939F93AF93BF93EF93FF93E091CC01FA
:100CC000F091CD01309709F451C0968DA685B78576
:100CD000858591FF04C09C91892329F447C09C918C
:100CE000892309F043C0A389B4899C9185898095A3
:100CF00089238C93868997890197F1F7608D718D8F
:100D0000A685B785558538E020E0CB010197F1F73E
:100D1000822F90E095958795282F4C91452309F0D7
:100D20002068315091F7868D81FD20958091CA0110
:100D300090E001968F7399273091CB01381749F0D5
:100D4000A091CA01B0E0A657BE4F2C938093CA0170
:100D500003C0868D8160868F828D938D0197F1F718
:100D6000A389B4899C918589892B8C93FF91EF91FC
:100D7000BF91AF919F918F917F916F915F914F91B3
:100D80003F912F910F900FBE0F901F901895CF930A
:100D9000DF9380EC92E00E948804CAE1D1E0D09316
:100DA000C702C093C60286EC92E00E94C603D093AD
:100DB000E602C093E50285EE92E0DF91CF910C94BC
:100DC000C603EBEDF1E01382128288EE93E0A0E01F
:100DD000B0E084839583A683B7838AE091E0918312
:100DE000808385EC90E09587848784EC90E09787FA
:100DF000868780EC90E0918B808B81EC90E0938BE8
:100E0000828B82EC90E0958B848B86EC90E0978BC4
:100E1000868B118E128E138E148EE8E7F2E0168206
:100E200017821086118612861386148615861686FA
:100E30001786108A118A128A138A148A158A20E06A
:100E400043E062E085EE92E00E94600320E046E02D
:100E500065E086EC92E00E94600369E371E080EC5B
:100E600092E00E94DF0440E052EC61E070E085EE29
:100E700092E00C94DC03CF93DF93CDB7DEB760979D
:100E80000FB6F894DEBF0FBECDBF789484B58260F4
:100E900084BD84B5816084BD85B5826085BD85B51E
:100EA000816085BD80916E00816080936E0010929C
:100EB0008100809181008260809381008091810017
:100EC00081608093810080918000816080938000A8
:100ED0008091B10084608093B1008091B000816006
:100EE0008093B00080917A00846080937A00809132
:100EF0007A00826080937A0080917A00816080938A
:100F00007A0080917A00806880937A001092C10004
:100F10001092BC021092BD021092BE021092BF024B
:100F200010927A0210927B0210927C0210927D0243
:100F300068EB7BE080E090E00E94A0008BED91E008
:100F40009093BB028093BA02E091EB01F091EC0127
:100F500002E00083E091E701F091E8011082E09166
:100F6000E901F091EA0180E180831092F301E091C0
:100F7000EF01F091F00116E01083E091ED01F091A6
:100F8000EE01808180618083E091ED01F091EE01BE
:100F9000808188608083E091ED01F091EE01808195
:100FA00080688083E091ED01F091EE0180818F7D7A
:100FB00080832FB7F8948091D7019091D801A091A8
:100FC000D901B091DA012FBF80937A0290937B020E
:100FD000A0937C02B0937D0268E271E08091BA0236
:100FE0009091BB020E94F4046AE070E080E090E01F
:100FF0000E94A00081E080938E021092D401109292
:10100000D30161E08DE00E941F0260E08DE00E944C
:10101000D301E091EB01F091EC010083E091E70155
:10102000F091E8011082E091E901F091EA018FEC82
:1010300080831092F301E091EF01F091F0011083B1
:10104000E091ED01F091EE01808180618083E0917B
:10105000ED01F091EE01808188608083E091ED01E7
:10106000F091EE01808180688083E091ED01F09144
:10107000EE0180818F7D808340E855E260E070E082
:1010800086EC92E00E94DC0360EB74E080E090E08C
:101090000E9480026CE785EE92E00E94D30268E134
:1010A00085EE92E00E94D30260E085EE92E00E941D
:1010B000D3026CE785EE92E00E94D30269E185EEEF
:1010C00092E00E94D30260E085EE92E00E94D3029B
:1010D00004E610E0C12CD12C76010E948D00092E6F
:1010E000000CAA0BBB0BC80ED91EEA1EFB1E01503A
:1010F000110999F7C701B60124E630E040E050E05D
:101100000E94E40B3093D6012093D5016AE371E08D
:10111000CE0101962D873E874F87588B0E94DF04B2
:101120002D853E85B901CE0101960E942705CE018D
:1011300001960E94880486EC92E00E942703209189
:10114000C4023091C502181619060CF051C02D309A
:10115000310508F04DC086EC92E00E943F03898380
:101160001A820091C4021091C5020F5F1F4FB8018F
:1011700080EC92E00E948D04882399F02091C002B7
:101180003091C1028091C4029091C502BE016F5F8F
:101190007F4F820F931F0E94DD0B1093C5020093B7
:1011A000C4021A8219821C821B821E821D826091D7
:1011B000C0027091C1026115710541F04091C402F5
:1011C0005091C502CE0101960E94B4046FE471E013
:1011D000CE0107960E94DF04BE016F5F7F4FCE01F4
:1011E00007960E941105CE0107960E9488049FCFA2
:1011F0002D30310509F063C06DE571E0CE01019637
:101200000E94DF04CE0101960E940905CE010196DD
:101210000E9488041A8219821C821B821E821D82EF
:101220006091C0027091C1026115710541F0409159
:10123000C4025091C502CE0101960E94B404CE01B1
:1012400001960E940905CE0101960E9488048091B2
:10125000C4029091C502892BC1F06EE671E08091C5
:10126000C0029091C1020E94D40B892B71F46CE7EB
:1012700071E0CE0101960E94DF04CE0101960E942A
:101280000905CE0101960E94880486EC92E00E9436
:10129000C60360ED77E080E090E00E94800240E8C5
:1012A00055E260E070E086EC92E00E94DC0340E0F2
:1012B00050E069E371E080EC92E00E94B4040E9487
:1012C0008D008C0162E471E0CE0101960E94DF0482
:1012D000B801CE0101960E942705CE0101960E9419
:1012E00088042091D5013091D6012C5E3F4F201704
:1012F00031071CF00E94C9011ECF61E08DE00E9401
:10130000D301F8CF97FB072E16F4009407D077FD92
:1013100009D00E94B50907FC05D03EF4909581954F
:101320009F4F0895709561957F4F0895052E97FB07
:101330001EF400940E94AD0957FD07D00E94E40BF3
:1013400007FC03D04EF40C94AD09509540953095B0
:1013500021953F4F4F4F5F4F089590958095709521
:1013600061957F4F8F4F9F4F0895AA1BBB1B51E183
:1013700007C0AA1FBB1FA617B70710F0A61BB70B05
:10138000881F991F5A95A9F780959095BC01CD01AA
:101390000895EE0FFF1F0590F491E02D0994CF936F
:1013A000DF938230910510F482E090E0E091060333
:1013B000F091070320E030E0C0E0D0E0309711F179
:1013C0004081518148175907C0F04817590761F407
:1013D00082819381209719F09B838A832BC09093FD
:1013E00007038093060326C02115310519F0421723
:1013F000530718F49A01BE01DF01EF010280F38167
:10140000E02DDCCF2115310509F1281B390B2430E3
:10141000310590F412968D919C9113976115710589
:1014200021F0FB019383828304C090930703809390
:101430000603FD01329644C0FD01E20FF31F8193C4
:101440009193225031092D933C933AC0209104038B
:1014500030910503232B41F42091020130910301C7
:101460003093050320930403209100013091010182
:101470002115310541F42DB73EB74091040150913B
:101480000501241B350BE0910403F0910503E217DD
:10149000F307A0F42E1B3F0B2817390778F0AC0197
:1014A0004E5F5F4F2417350748F04E0F5F1F509374
:1014B0000503409304038193919302C0E0E0F0E0C0
:1014C000CF01DF91CF9108950F931F93CF93DF93B7
:1014D000009709F48CC0FC013297138212820091AC
:1014E0000603109107030115110581F42081318154
:1014F000820F931F209104033091050328173907A9
:1015000079F5F0930503E093040371C0D80140E03E
:1015100050E0AE17BF0750F412962D913C911397EF
:10152000AD012115310509F1D901F3CF9D01DA0192
:101530003383228360817181860F971F82179307FF
:1015400069F4EC0128813981260F371F2E5F3F4F48
:10155000318320838A819B8193838283452B29F465
:10156000F0930703E093060342C01396FC93EE93B7
:101570001297ED01499159919E01240F351FE217F1
:10158000F30771F480819181840F951F0296119663
:101590009C938E938281938113969C938E93129742
:1015A000E0E0F0E0D80112968D919C91139700979E
:1015B00019F0F8018C01F6CF8D919C9198012E5F66
:1015C0003F4F820F931F209104033091050328178A
:1015D000390769F4309729F4109207031092060333
:1015E00002C0138212821093050300930403DF915B
:1015F000CF911F910F910895A0E0B0E0E2E0FBE0F1
:101600000C940A0CEC01009721F4CB010E94CF0945
:10161000B8C0FC01E60FF71F9C0122503109E21708
:10162000F30708F4ACC0D9010D911C91119706176E
:101630001707B0F00530110508F49FC0C8010497E2
:101640008617970708F499C002501109061B170B5B
:10165000019311936D937C93CF010E94640A8DC016
:101660005B01A01AB10A4C01800E911EA0910603E5
:10167000B091070340E050E0E12CF12C109709F401
:101680004AC0A815B905D1F56D907C9011976301FA
:1016900082E0C80ED11CCA14DB0480F1A3014A19F0
:1016A0005B096A0182E0C80ED11C1296BC901297A9
:1016B0001396AC91B5E0CB16D10440F0B282A3836F
:1016C00051834083D9016D937C930AC00E5F1F4FF5
:1016D000C301800F911FF90191838083EB2DFA2FB5
:1016E000E114F10431F0D7011396FC93EE931297B5
:1016F00044C0F0930703E09306033FC08D919C9193
:1017000011974817590708F4AC017D0112960D9006
:10171000BC91A02DB3CF809104039091050388154F
:101720009905E1F446175707C8F48091000190919C
:101730000101009741F48DB79EB74091040150918B
:101740000501841B950BE817F907C8F4F09305030E
:10175000E0930403F901718360830FC0CB010E9401
:10176000CF097C01009759F0A801BE010E94CB0B64
:10177000CE010E94640AC70104C0CE0102C080E00D
:1017800090E0CDB7DEB7EEE00C94260C81E090E05F
:10179000F8940C943D0CFB01DC0102C001900D9209
:1017A00041505040D8F70895FB01DC018D91019024
:1017B00080190110D9F3990B0895FB01DC01019008
:1017C0000D920020E1F70895A1E21A2EAA1BBB1B7F
:1017D000FD010DC0AA1FBB1FEE1FFF1FA217B307FD
:1017E000E407F50720F0A21BB30BE40BF50B661F13
:1017F000771F881F991F1A9469F7609570958095D7
:1018000090959B01AC01BD01CF0108952F923F92AD
:101810004F925F926F927F928F929F92AF92BF9200
:10182000CF92DF92EF92FF920F931F93CF93DF93AC
:10183000CDB7DEB7CA1BDB0B0FB6F894DEBF0FBE09
:10184000CDBF09942A88398848885F846E847D8456
:101850008C849B84AA84B984C884DF80EE80FD8058
:101860000C811B81AA81B981CE0FD11D0FB6F894CE
:10187000DEBF0FBECDBFED01089510E0C2E6D0E09F
:1018800004C0FE010E94C9092196C336D107C9F7D9
:04189000F894FFCFFA
:10189400000008038000000000006001D30029015B
:1018A40007011B01A70100000000D302D300270396
:1018B4003F03BA02D2022000564D4450565F317C99
:1018C400315F564D4450560D0A00416D6269656E94
:1018D400742054656D70657261747572653A005256
:1018E400464944206D6573736167653A005F5F5FC5
:1018F40046494E414C5F434152445F5F5F000230B2
:101904003030303641323633443731006D617463E0
:0A19140068696E6720636172640069
:107E0000112484B714BE81FFF0D085E080938100F7
:107E100082E08093C00088E18093C10086E0809377
:107E2000C20080E18093C4008EE0C9D0259A86E02C
:107E300020E33CEF91E0309385002093840096BBD3
:107E4000B09BFECF1D9AA8958150A9F7CC24DD24C4
:107E500088248394B5E0AB2EA1E19A2EF3E0BF2EE7
:107E6000A2D0813461F49FD0082FAFD0023811F036
:107E7000013811F484E001C083E08DD089C08234E0
:107E800011F484E103C0853419F485E0A6D080C0E4
:107E9000853579F488D0E82EFF2485D0082F10E0AE
:107EA000102F00270E291F29000F111F8ED06801E7
:107EB0006FC0863521F484E090D080E0DECF843638
:107EC00009F040C070D06FD0082F6DD080E0C81688
:107ED00080E7D80618F4F601B7BEE895C0E0D1E017
:107EE00062D089930C17E1F7F0E0CF16F0E7DF06D8
:107EF00018F0F601B7BEE89568D007B600FCFDCFD4
:107F0000A601A0E0B1E02C9130E011968C91119780
:107F100090E0982F8827822B932B1296FA010C0160
:107F200087BEE89511244E5F5F4FF1E0A038BF0790
:107F300051F7F601A7BEE89507B600FCFDCF97BE46
:107F4000E89526C08437B1F42ED02DD0F82E2BD052
:107F50003CD0F601EF2C8F010F5F1F4F84911BD097
:107F6000EA94F801C1F70894C11CD11CFA94CF0C13
:107F7000D11C0EC0853739F428D08EE10CD085E9AC
:107F80000AD08FE07ACF813511F488E018D01DD067
:107F900080E101D065CF982F8091C00085FFFCCF94
:107FA0009093C60008958091C00087FFFCCF809118
:107FB000C00084FD01C0A8958091C6000895E0E648
:107FC000F0E098E1908380830895EDDF803219F02E
:107FD00088E0F5DFFFCF84E1DECF1F93182FE3DFCA
:107FE0001150E9F7F2DF1F91089580E0E8DFEE27F6
:047FF000FF270994CA
:027FFE00040479
:0400000300007E007B
:00000001FF