:100000000C9463000C948B000C948B000C942B04C8
:100010000C942B040C942B040C948B000C948B00EC
:100020000C948B000C948B000C948B000C948B0024
:100030000C948B000C948B000C948B000C948B0014
:100040000C947B030C948B000C9449030C942303B5
:100050000C948B000C948B000C948B000C948B00F4
:100060000C948B000C948B000000000024002700EF
:100070002A0000000000250028002B0000000000DE
:1000800023002600290004040404040404040202DA
:100090000202020203030303030301020408102007
:1000A0004080010204081020010204081020000012
:1000B0000008000201000003040700000000000027
:1000C0000000B309990911241FBECFEFD8E0DEBFAD
:1000D000CDBF11E0A0E0B1E0E6EDF9E102C005908E
:1000E0000D92A83AB107D9F723E0A8EAB1E001C020
:1000F0001D92A732B207E1F710E0C2E6D0E004C0DB
:100100002197FE010E94540AC136D107C9F70E9407
:10011000EA060C94DE0C0C940000FC01918D828D9B
:10012000981761F0828DDF01A80FB11D5D968C914B
:10013000928D9F5F9F73928F90E008958FEF9FEF56
:100140000895FC01918D828D981731F0828DE80F12
:10015000F11D858D90E008958FEF9FEF0895FC01CC
:10016000918D228D892F90E0805C9F4F821B910999
:100170008F739927089589EF91E00E94AF0021E0E5
:10018000892B09F420E0822F0895FC01848DDF0182
:10019000A80FB11DA35ABF4F2C91848D90E00196FA
:1001A0008F739927848FA689B7892C93A089B189E9
:1001B0008C9180648C93938D848D981306C00288F3
:1001C000F389E02D80818F7D80830895EF92FF92E7
:1001D0000F931F93CF93DF93EC0181E0888F9B8D6A
:1001E0008C8D981305C0E889F989808185FD24C02C
:1001F000F62E0B8D10E00F5F1F4F0F731127E02EAF
:100200008C8DE8120CC00FB607FCFACFE889F9898B
:10021000808185FFF5CFCE010E94C500F1CF8B8D87
:10022000FE01E80FF11DE35AFF4FF0820B8FEA89C0
:10023000FB898081806207C0EE89FF896083E8893D
:10024000F98980818064808381E090E0DF91CF91A3
:100250001F910F91FF90EF900895CF93DF93EC01E2
:10026000888D8823C9F0EA89FB89808185FD05C0D6
:10027000A889B9898C9186FD0FC00FB607FCF5CF10
:10028000808185FFF2CFA889B9898C9185FFEDCF58
:10029000CE010E94C500E7CFDF91CF91089580E0A5
:1002A00090E0892B29F00E94BB0081110C94000082
:1002B0000895833081F028F4813099F08230A1F0E4
:1002C00008958730A9F08830B9F08430D1F4809156
:1002D00080008F7D03C0809180008F7780938000A5
:1002E000089584B58F7702C084B58F7D84BD08954D
:1002F0008091B0008F7703C08091B0008F7D809394
:10030000B00008951F93CF93DF93282F30E0F901B9
:10031000E255FF4F8491F901E656FF4FD491F90160
:10032000EA57FF4FC491CC23C9F0162F81110E94C8
:100330005901EC2FF0E0EE0FFF1FEE58FF4FA59193
:10034000B4918FB7F894111105C09C91ED2FE095F1
:10035000E92302C0EC91ED2BEC938FBFDF91CF919D
:100360001F910895CF93DF9390E0FC01E656FF4F75
:100370002491FC01EA57FF4F8491882361F190E0BA
:10038000880F991FFC01E859FF4FC591D491FC01DA
:10039000EE58FF4FA591B491611109C09FB7F89431
:1003A0008881209582238883EC912E230BC06230B4
:1003B00061F49FB7F8943881822F809583238883D6
:1003C000EC912E2B2C939FBF06C08FB7F894E88139
:1003D0002E2B28838FBFDF91CF9108953FB7F894DC
:1003E0008091ED019091EE01A091EF01B091F001AB
:1003F00026B5A89B05C02F3F19F00196A11DB11D80
:100400003FBFBA2FA92F982F8827820F911DA11DBA
:10041000B11DBC01CD0142E0660F771F881F991FF7
:100420004A95D1F708958F929F92AF92BF92CF9243
:10043000DF92EF92FF926B017C010E94EE014B0173
:100440005C01C114D104E104F104F1F00E94EE0159
:10045000DC01CB0188199909AA09BB09883E9340A0
:10046000A105B10570F321E0C21AD108E108F10835
:1004700088EE880E83E0981EA11CB11CC114D10423
:10048000E104F10419F7DDCFFF90EF90DF90CF90FA
:10049000BF90AF909F908F9008952091EA01309186
:1004A000EB012817390771F49091E9018091E80177
:1004B000981741F0E091E901F0E0E855FE4F8081A6
:1004C00090E008958FEF9FEF089508951F93CF93C5
:1004D000DF93DC015C962D913C915D9721153105F0
:1004E00039F481E090E013969C938E9312973DC06F
:1004F0005196ED91FC91529750969C915097892F6F
:1005000080951FB75E964C915E9741FB772770F9F7
:1005100041FD6095F8944081772311F0492B01C08B
:1005200048234083E9012197F1F748E0508160FFBB
:1005300002C0592B01C058235083E9012197F1F7DC
:100540006695415099F7772321F090818923808324
:1005500003C08081982B90831FBF5C968D919C91E6
:100560005D970197F1F721E030E0C901DF91CF916C
:100570001F9108952091EA013091EB012817390766
:1005800071F48091E8012091E90190E0805C9F4F37
:10059000821B910960E470E00E940D0A089580E0DA
:1005A00090E008952091EA013091EB012817390776
:1005B000B9F49091E9018091E801981789F0E091F0
:1005C000E901F0E0E855FE4F80812091E90130E03B
:1005D0002F5F3F4F2F7333272093E90190E0089559
:1005E0008FEF9FEF08950E94510C0E9492056DE4D9
:1005F00071E089EF91E00C944D06CF93DF93EB010E
:100600000E94920566E571E089EF91E00E944D0637
:10061000CE010E9492056DE471E089EF91E0DF91D7
:10062000CF910C944D06CF93DF93EB010E9492057E
:1006300066E571E089EF91E00E944D06CE01DF9101
:10064000CF910C9462061F920F920FB60F92112455
:100650002F933F934F935F936F937F938F939F93CA
:10066000AF93BF93EF93FF9389EF91E00E94C50092
:10067000FF91EF91BF91AF919F918F917F916F917A
:100680005F914F913F912F910F900FBE0F901F9050
:1006900018951F920F920FB60F9211242F938F93DC
:1006A0009F93EF93FF93E0910902F0910A028081FA
:1006B000E0910F02F091100282FD12C090818091B2
:1006C00012028F5F8F7320911302821751F0E09115
:1006D0001202F0E0E750FE4F958F8093120201C0A6
:1006E0008081FF91EF919F918F912F910F900FBE7D
:1006F0000F901F9018951F920F920FB60F92112412
:100700002F933F938F939F93AF93BF938091F50166
:100710009091F601A091F701B091F8013091EC01B0
:1007200023E0230F2D3720F40196A11DB11D05C034
:1007300026E8230F0296A11DB11D2093EC018093A2
:10074000F5019093F601A093F701B093F801809121
:10075000ED019091EE01A091EF01B091F0010196B1
:10076000A11DB11D8093ED019093EE01A093EF01C7
:10077000B093F001BF91AF919F918F913F912F91D5
:100780000F900FBE0F901F9018950F931F93CF934C
:10079000DF93EC01162F042F1B821A8288EE93E060
:1007A000A0E0B0E08C839D83AE83BF8382E391E0C1
:1007B000998388831F8A1E8A198E188E1B8E1A8E23
:1007C0001D8E1C8E6E8D6E7F20FB61F96E8F66957F
:1007D000617081E06827842F0E94820161E0802F90
:1007E0000E94B201402F50E0FA01E656FF4FE4911B
:1007F000E88BFA01EA57FF4FE491F0E0EE0FFF1F9C
:10080000EE58FF4F859194919A8B898B60E0812FF0
:100810000E94B2018E8D81FD04C061E0812F0E9493
:1008200082011C87612F70E0FB01E656FF4FE491C7
:10083000ED87FB01EA57FF4FE491F0E0EE0FFF1F59
:10084000E458FF4F859194919F878E87DF91CF91D8
:100850001F910F9108951F920F920FB60F921124BE
:100860002F933F934F935F936F937F938F939F93B8
:10087000AF93BF93EF93FF93E091EA01F091EB0107
:10088000309709F451C0968DA685B785858591FF6F
:1008900004C09C91892329F447C09C91892309F0C5
:1008A00043C0A389B4899C918589809589238C93C1
:1008B000868997890197F1F7608D718DA685B78537
:1008C000558538E020E0CB010197F1F7822F90E0C9
:1008D00095958795282F4C91452309F02068315034
:1008E00091F7868D81FD20958091E80190E0019639
:1008F0008F7399273091E901381749F0A091E801E9
:10090000B0E0A855BE4F2C938093E80103C0868DBC
:100910008160868F828D938D0197F1F7A389B489C9
:100920009C918589892B8C93FF91EF91BF91AF9119
:100930009F918F917F916F915F914F913F912F91F7
:100940000F900FBE0F901F901895E091EA01F09163
:10095000EB01E817F90769F4A389B4899C918589AB
:10096000809589238C931092EB011092EA0181E02B
:10097000089580E00895CF93DF93EC019A01AB01D5
:100980001B8E1A8E198E188E1F8A1E8A60E079E0DF
:100990008DE390E00E94210AF9012430310518F01E
:1009A000C901039702C081E090E09D8F8C8F6C8518
:1009B000663108F069C0C901969587958431910523
:1009C00010F0439702C081E090E09F8B8E8B3697AA
:1009D00018F0C901059702C081E090E0998F888FD7
:1009E000C901880F991F280F391F3695279536950D
:1009F00027952D30310518F02C50310902C021E027
:100A000030E03B8F2A8F90916800683050F021E0F1
:100A10006E3008F420E081E001C0880F2A95EAF7E3
:100A200001C084E0892B809368009C85983038F061
:100A30009E3040F0963148F020E030E008C02DE6CE
:100A400030E005C02BE630E002C02CE630E03C8B05
:100A50002B8B983030F481E001C0880F9A95EAF72B
:100A60000EC0292F30E09E3018F42850310902C002
:100A70002E50310981E001C0880F2A95EAF78D8B4D
:100A80008C8D9D8D0197F1F78A8D9B8D892BE1F0DF
:100A90008091EA019091EB018C179D07A9F00097D6
:100AA00011F00E94A5048E8D8E7F8E8F1092E8012A
:100AB0001092E901D093EB01C093EA01EB89FC8924
:100AC00090818D89892B8083DF91CF910895CF927A
:100AD000DF92EF92FF920F931F93CF93DF936C01FE
:100AE0007A018B01C0E0D0E0CE15DF0589F0D80196
:100AF0006D918D01D601ED91FC910190F081E02D79
:100B0000C6010995892B11F47E0102C02196ECCF14
:100B1000C701DF91CF911F910F91FF90EF90DF9070
:100B2000CF900895FC01448155816081718189EFE6
:100B300091E00C94670580E480937C0080917A00BA
:100B4000806480937A0080917A0086FDFCCF80914A
:100B500078002091790090E0922B0895CF92DF9257
:100B6000EF92FF920F931F932FB7F894C090F50167
:100B7000D090F601E090F701F090F8012FBFDC0172
:100B8000CB018C0D9D1DAE1DBF1D4FB7F89400917C
:100B9000F5011091F6012091F7013091F8014FBF56
:100BA0000C151D052E053F0528F080179107A2079B
:100BB000B30758F71F910F91FF90EF90DF90CF9000
:100BC00008950F931F93CF93DF93EC018881998150
:100BD000009729F02A813B812617370788F48B017B
:100BE0006F5F7F4F0E94870B009761F09983888326
:100BF0001B830A832C813D81232B11F4FC0110827D
:100C000081E001C080E0DF91CF911F910F910895A5
:100C1000EF92FF920F931F93CF93DF93EC017B0131
:100C20008A01BA010E94E1052881398181110DC034
:100C30002115310519F0C9010E94EF0A19821882A5
:100C40001D821C821B821A8206C01D830C83B70181
:100C5000C9010E94680CCE01DF91CF911F910F91C5
:100C6000FF90EF900895FC01808191810C94EF0A30
:100C7000FC01118210821382128215821482611586
:100C8000710551F0FB0101900020E9F73197AF01A8
:100C9000461B570B0C94080608956115710579F0F1
:100CA000FB0101900020E9F73197AF01461B570B7C
:100CB000DC01ED91FC910280F381E02D099480E04C
:100CC00090E008958F929F92AF92BF92CF92DF9261
:100CD000EF92FF920F931F93CF93DF93CDB7DEB7C1
:100CE000A1970FB6F894DEBF0FBECDBF6C01990F70
:100CF000EE08FF08F7FE33C0E091F901F091FA0128
:100D00000190F081E02D6DE289EF91E009958C0171
:100D100022273327A9012C193D094E095F0919A281
:100D2000CE0181967C019AE0892E912CA12CB12CC8
:100D3000CA01B901A50194010E94850C605DF7010B
:100D400062937F01211531054105510589F7BF01E6
:100D500089EF91E00E944D06080F191F20C0A701DE
:100D6000960119A28E010F5D1F4F8AE0C82ED12C6B
:100D7000E12CF12CCA01B901A70196010E94850C52
:100D8000605DF80162938F01211531054105510520
:100D900089F7BF0189EF91E00E944D068C016DE457
:100DA00071E089EF91E00E944D06800F911FA1969E
:100DB0000FB6F894DEBF0FBECDBFDF91CF911F916C
:100DC0000F91FF90EF90DF90CF90BF90AF909F90EA
:100DD0008F900895CF93DF93CDB7DEB760970FB6AE
:100DE000F894DEBF0FBECDBF789484B5826084BD19
:100DF00084B5816084BD85B5826085BD85B581601F
:100E000085BD80916E00816080936E00109281009C
:100E10008091810082608093810080918100816057
:100E20008093810080918000816080938000809118
:100E3000B10084608093B1008091B00081608093A4
:100E4000B00080917A00846080937A0080917A006B
:100E5000826080937A0080917A00816080937A002A
:100E600080917A00806880937A001092C10010927D
:100E7000DA021092DB021092DC021092DD02109274
:100E800098021092990210929A0210929B0268EBBB
:100E90007BE080E090E00E94AE0589EF91E09093C6
:100EA000D9028093D802E0910902F0910A0282E00F
:100EB0008083E0910502F09106021082E091070222
:100EC000F091080280E1808310921102E0910D02FE
:100ED000F0910E0286E08083E0910B02F0910C020B
:100EE000808180618083E0910B02F0910C0280810F
:100EF00088608083E0910B02F0910C028081806811
:100F00008083E0910B02F0910C0280818F7D8083C1
:100F10002FB7F8948091F5019091F601A091F70117
:100F2000B091F8012FBF8093980290939902A093FB
:100F30009A02B0939B026EE371E08091D802909187
:100F4000D9020E944D066AE070E080E090E00E94C5
:100F5000AE0581E08093AC0280E090E00E946F0CCF
:100F600090E09093F4018093F30160E571E089EFE4
:100F700091E00E944D068091F3019091F4010E944E
:100F8000620661E08DE00E94B20160E08DE00E94A7
:100F9000820160E08CE00E94B20164E670E080E0D3
:100FA00090E00E941302EAEBF0E08491E6EAF0E0C0
:100FB0000491E2E9F0E01491112379F081110E948B
:100FC0005901E12FF0E0EE0FFF1FE458FF4FA5910C
:100FD000B491EC91E02309F026C1E0910902F0916F
:100FE0000A0282E08083E0910502F09106021082FD
:100FF000E0910702F09108028FEC808310921102B9
:10100000E0910D02F0910E0286E08083E0910B02E8
:10101000F0910C02808180618083E0910B02F0915D
:101020000C02808188608083E0910B02F0910C02B9
:10103000808180688083E0910B02F0910C028081B6
:101040008F7D808340E855E260E070E085EE92E0BD
:101050000E94BB0460EB74E080E090E00E94130209
:101060006CE784E093E00E94660268E184E093E02C
:101070000E94660260E084E093E00E9466026CE7F2
:1010800084E093E00E94660269E184E093E00E94BC
:10109000660260E084E093E00E94660204E610E0ED
:1010A000C12CD12C76010E949B05092E000CAA0BA5
:1010B000BB0BC80ED91EEA1EFB1E0150110999F781
:1010C000C701B60124E630E040E050E00E94850C04
:1010D0003093F2012093F10168E571E0CE010196B1
:1010E0002D873E874F87588B0E9438062D853E8579
:1010F000B901CE0101960E941303CE0101960E9410
:10110000330682E0C82ED12C93E0E92EF12C809199
:10111000F3019091F4018130910509F458C00297D0
:1011200009F462C07DC02D30310508F086C085EE1F
:1011300092E00E94D20289831A820091E302109108
:10114000E4020F5F1F4FB8018FED92E00E94E105AE
:10115000882399F02091DF023091E0028091E30230
:101160009091E402BE016F5F7F4F820F931F0E9438
:10117000680C1093E4020093E3021A8219821C8225
:101180001B821E821D826091DF027091E002611558
:10119000710541F04091E3025091E402CE010196C5
:1011A0000E9408066DE671E0CE0107960E9438069F
:1011B000BE016F5F7F4FCE0107960E94FD02CE01F8
:1011C00007960E943306CE0101960E94330685EEF3
:1011D00092E00E94BA022091E3023091E4021816D4
:1011E00019060CF4A0CF29C00E949B058C0160E673
:1011F00071E0CE0101960E943806B801CE01019639
:101200000E941303CE0101960E9433062091F10142
:101210003091F2012C5E3F4F201731070CF47FC054
:101220000E944F0174CF1092F4011092F30160E01C
:1012300080E090E00E94770CD0CE2D30310581F710
:101240006BE771E0CE0101960E943806CE0101964F
:101250000E94F502CE0101960E9433061A8219827D
:101260001C821B821E821D826091DF027091E0024F
:101270006115710541F04091E3025091E402CE0105
:1012800001960E940806CE0101960E94F502CE0149
:1012900001960E9433068091E3029091E402892B2B
:1012A000D1F06CE871E08091DF029091E0020E9441
:1012B0005F0C892B81F46AE971E0CE0101960E94EE
:1012C0003806CE0101960E94F502CE0101960E94D9
:1012D000330611E001C010E085EE92E00E94A50403
:1012E00060ED77E080E090E00E94130240E855E274
:1012F00060E070E085EE92E00E94BB0440E050E0C8
:101300006FE471E08FED92E00E940806112309F46A
:1013100087CFD092F401C092F30162E005C0F09251
:10132000F401E092F30163E080E090E00E94770C2A
:1013300077CFCF93DF938FED92E00E943306C2E325
:10134000D1E0D093E602C093E50285EE92E00E94E0
:10135000A504D0930503C093040384E093E0DF91D8
:10136000CF910C94A504E9EFF1E01382128288EE8C
:1013700093E0A0E0B0E084839583A683B7838AE0FE
:1013800091E09183808385EC90E09587848784EC5D
:1013900090E09787868780EC90E0918B808B81EC42
:1013A00090E0938B828B82EC90E0958B848B86EC23
:1013B00090E0978B868B118E128E138E148EE6E939
:1013C000F2E0168217821086118612861386148622
:1013D000158616861786108A118A128A138A148A2D
:1013E000158A20E043E062E084E093E00E94C503B8
:1013F00020E046E065E085EE92E00E94C5036FE4E0
:1014000071E08FED92E00E94380640E052EC61E01E
:1014100070E084E093E00C94BB0497FB072E16F475
:10142000009407D077FD09D00E94400A07FC05D040
:101430003EF4909581959F4F0895709561957F4FEB
:101440000895052E97FB1EF400940E94380A57FD5C
:1014500007D00E94850C07FC03D04EF40C94380A88
:1014600050954095309521953F4F4F4F5F4F0895D0
:1014700090958095709561957F4F8F4F9F4F089500
:10148000AA1BBB1B51E107C0AA1FBB1FA617B707AA
:1014900010F0A61BB70B881F991F5A95A9F78095C6
:1014A0009095BC01CD010895EE0FFF1F0590F491BA
:1014B000E02D0994CF93DF938230910510F482E000
:1014C00090E0E0912503F091260320E030E0C0E0B9
:1014D000D0E0309711F14081518148175907C0F091
:1014E0004817590761F482819381209719F09B83F3
:1014F0008A832BC0909326038093250326C0211551
:10150000310519F04217530718F49A01BE01DF01A3
:10151000EF010280F381E02DDCCF2115310509F1C7
:10152000281B390B2430310590F412968D919C9133
:1015300013976115710521F0FB019383828304C029
:101540009093260380932503FD01329644C0FD014C
:10155000E20FF31F81939193225031092D933C9315
:101560003AC02091230330912403232B41F420918E
:10157000020130910301309324032093230320912F
:101580000001309101012115310541F42DB73EB71D
:101590004091040150910501241B350BE091230378
:1015A000F0912403E217F307A0F42E1B3F0B28173A
:1015B000390778F0AC014E5F5F4F2417350748F0CC
:1015C0004E0F5F1F50932403409323038193919305
:1015D00002C0E0E0F0E0CF01DF91CF9108950F93DA
:1015E0001F93CF93DF93009709F48CC0FC013297CF
:1015F0001382128200912503109126030115110513
:1016000081F420813181820F931F20912303309137
:1016100024032817390779F5F0932403E093230373
:1016200071C0D80140E050E0AE17BF0750F41296E9
:101630002D913C911397AD012115310509F1D90187
:10164000F3CF9D01DA013383228360817181860F9C
:10165000971F8217930769F4EC0128813981260FBF
:10166000371F2E5F3F4F318320838A819B81938375
:101670008283452B29F4F0932603E093250342C08F
:101680001396FC93EE931297ED01499159919E01A7
:10169000240F351FE217F30771F480819181840FC5
:1016A000951F029611969C938E9382819381139637
:1016B0009C938E931297E0E0F0E0D80112968D9102
:1016C0009C911397009719F0F8018C01F6CF8D913A
:1016D0009C9198012E5F3F4F820F931F209123030F
:1016E000309124032817390769F4309729F41092B0
:1016F00026031092250302C0138212821093240342
:1017000000932303DF91CF911F910F910895A0E0E3
:10171000B0E0EDE8FBE00C94AB0CEC01009721F499
:10172000CB010E945A0AB8C0FC01E60FF71F9C01CA
:1017300022503109E217F30708F4ACC0D9010D912A
:101740001C91119706171707B0F00530110508F422
:101750009FC0C80104978617970708F499C00250E4
:101760001109061B170B019311936D937C93CF0105
:101770000E94EF0A8DC05B01A01AB10A4C01800ED5
:10178000911EA0912503B091260340E050E0E12C8A
:10179000F12C109709F44AC0A815B905D1F56D9040
:1017A0007C901197630182E0C80ED11CCA14DB043F
:1017B00080F1A3014A195B096A0182E0C80ED11CBD
:1017C0001296BC9012971396AC91B5E0CB16D1044B
:1017D00040F0B282A38351834083D9016D937C93FF
:1017E0000AC00E5F1F4FC301800F911FF901918343
:1017F0008083EB2DFA2FE114F10431F0D701139619
:10180000FC93EE93129744C0F0932603E0932503D4
:101810003FC08D919C9111974817590708F4AC016E
:101820007D0112960D90BC91A02DB3CF8091230322
:101830009091240388159905E1F446175707C8F4D9
:101840008091000190910101009741F48DB79EB7FE
:101850004091040150910501841B950BE817F9078D
:10186000C8F4F0932403E0932303F90171836083A8
:101870000FC0CB010E945A0A7C01009759F0A801C1
:10188000BE010E94560CCE010E94EF0AC70104C09F
:10189000CE0102C080E090E0CDB7DEB7EEE00C9460
:1018A000C70C81E090E0F8940C94DE0CFB01DC01A5
:1018B00002C001900D9241505040D8F70895FB01AD
:1018C000DC018D91019080190110D9F3990B0895D5
:1018D000FB01DC0101900D920020E1F70895F999D8
:1018E000FECF92BD81BDF89A992780B50895262F25
:1018F000F999FECF1FBA92BD81BD20BD0FB6F894F5
:10190000FA9AF99A0FBE01960895A1E21A2EAA1B1F
:10191000BB1BFD010DC0AA1FBB1FEE1FFF1FA2179F
:10192000B307E407F50720F0A21BB30BE40BF50B9C
:10193000661F771F881F991F1A9469F76095709525
:10194000809590959B01AC01BD01CF0108952F9228
:101950003F924F925F926F927F928F929F92AF923F
:10196000BF92CF92DF92EF92FF920F931F93CF938C
:10197000DF93CDB7DEB7CA1BDB0B0FB6F894DEBF23
:101980000FBECDBF09942A88398848885F846E8449
:101990007D848C849B84AA84B984C884DF80EE8093
:1019A000FD800C811B81AA81B981CE0FD11D0FB69C
:1019B000F894DEBF0FBECDBFED01089510E0C2E682
:1019C000D0E004C0FE010E94540A2196C336D1071C
:0619D000C9F7F894FFCFF7
:1019D60000002703800000000000E6006705AF0056
:1019E6008D00A1002D0100000000F3026705F3023F
:1019F600F302F302F30200000000F30267050000A1
:101A0600000066026705BA02D2024D026502564D13
:101A16004450565F317C315F564D4450560D0A0096
:101A260053746174653A2000416D6269656E742075
:101A360054656D70657261747572653A00524649F7
:101A460044206D6573736167653A005F5F5F464961
:101A56004E414C5F434152445F5F5F00023030307D
:101A6600303641323633443731006D61746368690C
:081A76006E67206361726400D9
:00000001FF
