:100000000C947D000C94A5000C94A5000C94FB04AA
:100010000C94FB040C94FB040C94A5000C94A50018
:100020000C94A5000C94A5000C94A5000C94D4038A
:100030000C94A5000C94A5000C94A5000C94A500AC
:100040000C948A030C94A5000C949B010C947501EC
:100050000C94A5000C94A5000C94A5000C94A5008C
:100060000C94A5000C94A5009A06A206AA06B20656
:10007000BA06C206D806E006EF06090718072007E9
:10008000280737073F0747075607650774078A079A
:100090009D07AC07B407D507EB0708080000000070
:1000A00023002600290004040404040404040202BA
:1000B00002020202030303030303010204081020E7
:1000C00040800102040810200102040810200000F2
:1000D0000008000201000003040700000000000007
:1000E000000000000000240027002A00000000009B
:1000F000250028002B006B14511411241FBECFEFD4
:10010000D8E0DEBFCDBF11E0A0E0B1E0E6EEFFE257
:1001100002C005900D92A43FB107D9F723E0A4EFE8
:10012000B1E001C01D92AD3EB207E1F710E0CCE7AF
:10013000D0E004C02197FE010E941815CB37D107EB
:10014000C9F70E94260F0C94E6170C940000FC01DE
:10015000918D828D981761F0828DDF01A80FB11DFE
:100160005D968C91928D9F5F9F73928F90E0089522
:100170008FEF9FEF0895FC01918D828D981731F0DC
:10018000828DE80FF11D858D90E008958FEF9FEF30
:100190000895FC01918D228D892F90E0805C9F4F06
:1001A000821B91098F739927089587E992E00E9435
:1001B000C90021E0892B09F420E0822F0895FC0179
:1001C000848DDF01A80FB11DA35ABF4F2C91848DE0
:1001D00090E001968F739927848FA689B7892C9315
:1001E000A089B1898C9180648C93938D848D9813B0
:1001F00006C00288F389E02D80818F7D8083089579
:10020000EF92FF920F931F93CF93DF93EC0181E066
:10021000888F9B8D8C8D981305C0E889F989808122
:1002200085FD24C0F62E0B8D10E00F5F1F4F0F735E
:100230001127E02E8C8DE8120CC00FB607FCFACF08
:10024000E889F989808185FFF5CFCE010E94DF0022
:10025000F1CF8B8DFE01E80FF11DE35AFF4FF082C5
:100260000B8FEA89FB898081806207C0EE89FF8954
:100270006083E889F98980818064808381E090E0EF
:10028000DF91CF911F910F91FF90EF900895CF9341
:10029000DF93EC01888D8823C9F0EA89FB8980818E
:1002A00085FD05C0A889B9898C9186FD0FC00FB660
:1002B00007FCF5CF808185FFF2CFA889B9898C91A1
:1002C00085FFEDCFCE010E94DF00E7CFDF91CF9118
:1002D000089580E090E0892B29F00E94D5008111DB
:1002E0000C94000008950E9429171F920F920FB6D8
:1002F0000F9211242F933F934F935F936F937F93AC
:100300008F939F93AF93BF93EF93FF9387E992E00F
:100310000E94DF00FF91EF91BF91AF919F918F916C
:100320007F916F915F914F913F912F910F900FBEF1
:100330000F901F9018951F920F920FB60F921124D5
:100340002F938F939F93EF93FF93E091A702F091E8
:10035000A8028081E091AD02F091AE0282FD12C050
:1003600090818091B0028F5F8F732091B1028217CC
:1003700051F0E091B002F0E0E956FD4F958F809387
:10038000B00201C08081FF91EF919F918F912F91D9
:100390000F900FBE0F901F9018953FB7F894809163
:1003A000930290919402A0919502B091960226B585
:1003B000A89B05C02F3F19F00196A11DB11D3FBF9D
:1003C000BA2FA92F982F8827820F911DA11DB11D2B
:1003D000BC01CD0142E0660F771F881F991F4A9527
:1003E000D1F7089520918B0230918C02281739079C
:1003F00071F490918A0280918902981741F0E091FE
:100400008A02F0E0E75BFD4F808190E008958FEF76
:100410009FEF089508951F93CF93DF93DC015C96BF
:100420002D913C915D972115310539F481E090E0E3
:1004300013969C938E9312973DC05196ED91FC912B
:10044000529750969C915097892F80951FB75E9632
:100450004C915E9741FB772770F941FD6095F894C8
:100460004081772311F0492B01C048234083E901E3
:100470002197F1F748E0508160FF02C0592B01C07D
:1004800058235083E9012197F1F76695415099F778
:10049000772321F090818923808303C08081982B6A
:1004A00090831FBF5C968D919C915D970197F1F7AA
:1004B00021E030E0C901DF91CF911F910895209193
:1004C0008B0230918C022817390771F480918902D0
:1004D00020918A0290E0805C9F4F821B910960E42A
:1004E00070E00E940415089580E090E00895209146
:1004F0008B0230918C0228173907B9F490918A0247
:1005000080918902981789F0E0918A02F0E0E75B18
:10051000FD4F808120918A0230E02F5F3F4F2F7383
:10052000332720938A0290E008958FEF9FEF08957C
:10053000833081F028F4813099F08230A1F0089561
:100540008730A9F08830B9F08430D1F480918000F0
:100550008F7D03C0809180008F7780938000089505
:1005600084B58F7702C084B58F7D84BD0895809156
:10057000B0008F7703C08091B0008F7D8093B00072
:1005800008951F93CF93DF93282F30E0F901E253B2
:10059000FF4F8491F901E654FF4FD491F901EA55D8
:1005A000FF4FC491CC23C9F0162F81110E949802ED
:1005B000EC2FF0E0EE0FFF1FE451FF4FA591B49137
:1005C0008FB7F894111105C09C91ED2FE095E923A8
:1005D00002C0EC91ED2BEC938FBFDF91CF911F9177
:1005E0000895CF93DF9390E0FC01E654FF4F2491F0
:1005F000FC01EA55FF4F8491882361F190E0880F58
:10060000991FFC01EE51FF4FC591D491FC01E451BB
:10061000FF4FA591B491611109C09FB7F8948881EB
:10062000209582238883EC912E230BC0623061F4E5
:100630009FB7F8943881822F809583238883EC912B
:100640002E2B2C939FBF06C08FB7F894E8812E2BDA
:1006500028838FBFDF91CF9108958E3008F08E50A0
:100660008770806480937C0080917A00806480939E
:100670007A0080917A0086FDFCCF809178002091ED
:10068000790090E0922B08958F929F92AF92BF9243
:10069000CF92DF92EF92FF926B017C010E94CD011D
:1006A0004B015C01C114D104E104F104F1F00E949A
:1006B000CD01DC01CB0188199909AA09BB09883E43
:1006C0009340A105B10570F321E0C21AD108E108F9
:1006D000F10888EE880E83E0981EA11CB11CC1149D
:1006E000D104E104F10419F7DDCFFF90EF90DF9022
:1006F000CF90BF90AF909F908F9008952FB7F894B0
:1007000060918F027091900280919102909192027B
:100710002FBF08951F920F920FB60F9211242F939F
:100720003F938F939F93AF93BF9380918F0290914C
:100730009002A0919102B091920230918E0223E03A
:10074000230F2D3720F40196A11DB11D05C026E809
:10075000230F0296A11DB11D20938E0280938F025C
:1007600090939002A0939102B09392028091930291
:1007700090919402A0919502B09196020196A11DCC
:10078000B11D8093930290939402A0939502B0932D
:100790009602BF91AF919F918F913F912F910F90B2
:1007A0000FBE0F901F9018951F920F920FB60F92C9
:1007B00011242F933F934F935F936F937F938F9366
:1007C0009F93AF93BF93EF93FF9380918D0287FF29
:1007D00005C010928500109284001BC020918D02EC
:1007E000022E000C330B8091A00390E028173907EC
:1007F00084F480918D02082E000C990BFC01EE0F01
:10080000FF1F8E0F9F1FFC01E458FC4F808186FD67
:1008100015C080918D028F5F80938D0220918D0293
:10082000022E000C330B8091A00390E028173907AB
:10083000C4F480918D028C3064F113C080918D02DC
:10084000082E000C990BFC01EE0FFF1F8E0F9F1F4F
:10085000FC01E458FC4F808160E08F730E94C1026C
:10086000D8CF8091840090918500049680349C4973
:1008700018F480E49CE905C0809184009091850083
:10088000049690938900809388008FEF80938D0267
:100890003BC0209184003091850080918D02082E0C
:1008A000000C990BFC01EE0FFF1F8E0F9F1FFC0128
:1008B000E458FC4F81819281820F931F90938900AD
:1008C0008093880080918D02082E000C990BFC010A
:1008D000EE0FFF1F8E0F9F1FFC01E458FC4F80811D
:1008E00086FF12C080918D02082E000C990BFC012E
:1008F000EE0FFF1F8E0F9F1FFC01E458FC4F8081FD
:1009000061E08F730E94C102FF91EF91BF91AF919F
:100910009F918F917F916F915F914F913F912F9117
:100920000F900FBE0F901F9018950F931F93CF93AA
:10093000DF93EC01162F042F1B821A8288EE93E0BE
:10094000A0E0B0E08C839D83AE83BF8386E391E01B
:10095000998388831F8A1E8A198E188E1B8E1A8E81
:100960001D8E1C8E6E8D6E7F20FB61F96E8F6695DD
:10097000617081E06827842F0E94C10261E0802FAE
:100980000E94F102402F50E0FA01E654FF4FE4913B
:10099000E88BFA01EA55FF4FE491F0E0EE0FFF1FFC
:1009A000E451FF4F859194919A8B898B60E0812F60
:1009B0000E94F1028E8D81FD04C061E0812F0E94B2
:1009C000C1021C87612F70E0FB01E654FF4FE491E8
:1009D000ED87FB01EA55FF4FE491F0E0EE0FFF1FBA
:1009E000E456FF4F859194919F878E87DF91CF9139
:1009F0001F910F9108951F920F920FB60F9211241D
:100A00002F933F934F935F936F937F938F939F9316
:100A1000AF93BF93EF93FF93E0918B02F0918C0221
:100A2000309709F451C0968DA685B785858591FFCD
:100A300004C09C91892329F447C09C91892309F023
:100A400043C0A389B4899C918589809589238C931F
:100A5000868997890197F1F7608D718DA685B78595
:100A6000558538E020E0CB010197F1F7822F90E027
:100A700095958795282F4C91452309F02068315092
:100A800091F7868D81FD20958091890290E00196F5
:100A90008F73992730918A02381749F0A091890203
:100AA000B0E0A75BBD4F2C938093890203C0868D75
:100AB0008160868F828D938D0197F1F7A389B48928
:100AC0009C918589892B8C93FF91EF91BF91AF9178
:100AD0009F918F917F916F915F914F913F912F9156
:100AE0000F900FBE0F901F901895E0918B02F09120
:100AF0008C02E817F90769F4A389B4899C91858968
:100B0000809589238C9310928C0210928B0281E045
:100B1000089580E00895CF93DF93EC019A01AB0133
:100B20001B8E1A8E198E188E1F8A1E8A60E079E03D
:100B30008DE390E00E947617F9012430310518F01A
:100B4000C901039702C081E090E09D8F8C8F6C8576
:100B5000663108F069C0C901969587958431910581
:100B600010F0439702C081E090E09F8B8E8B369708
:100B700018F0C901059702C081E090E0998F888F35
:100B8000C901880F991F280F391F3695279536956B
:100B900027952D30310518F02C50310902C021E085
:100BA00030E03B8F2A8F90916800683050F021E050
:100BB0006E3008F420E081E001C0880F2A95EAF742
:100BC00001C084E0892B809368009C85983038F0C0
:100BD0009E3040F0963148F020E030E008C02DE62D
:100BE00030E005C02BE630E002C02CE630E03C8B64
:100BF0002B8B983030F481E001C0880F9A95EAF78A
:100C00000EC0292F30E09E3018F42850310902C060
:100C10002E50310981E001C0880F2A95EAF78D8BAB
:100C20008C8D9D8D0197F1F78A8D9B8D892BE1F03D
:100C300080918B0290918C028C179D07A9F00097F0
:100C400011F00E9475058E8D8E7F8E8F1092890215
:100C500010928A02D0938C02C0938B02EB89FC899C
:100C600090818D89892B8083DF91CF910895CF92D8
:100C7000DF92EF92FF920F931F93CF93DF9300D0F9
:100C800000D000D0CDB7DEB723E0853A920709F156
:100C9000FC01608171816115710539F044815581D4
:100CA00085EA93E00E940C0E14C08091A5039091F8
:100CB000A603009711F00E94C7151092A603109288
:100CC000A5031092AA031092A9031092A8031092F0
:100CD000A7031092320210923102A091A503B091A5
:100CE000A6030091A9031091AA0360E070E042E01E
:100CF00050E021E030E06017710709F4B5C11097AA
:100D000009F4AFC1FD01E60FF71FE081CE2EEE0F13
:100D1000DD08EE08FF08F601E156F109EA31F105B8
:100D200008F09FC1EC5CFF4F80913102909132023C
:100D30000C941815FC01EE0FFF1FEC50FE4F318391
:100D400020838DC0FC01EE0FFF1FEC50FE4F51833E
:100D500040833DC0FC01EE0FFF1FEC50FE4F51835E
:100D6000408317C0FC01EE0FFF1FEC50FE4F518374
:100D70004083C1C0FC01EE0FFF1FEC50FE4F3183DA
:100D80002083CFC0FC01EE0FFF1FEC50FE4F3183DC
:100D90002083FC01EE0FFF1FEA50FE4F31832083BA
:100DA000FC01EE0FFF1FE850FE4F5183408345C109
:100DB000FC01EE0FFF1FEC50FE4F518340838CC0AF
:100DC000FC01EE0FFF1FEC50FE4F31832083FC012E
:100DD000EE0FFF1FEA50FE4F3183208327C1FC0135
:100DE000EE0FFF1FEC50FE4F31832083FC01EE0F0E
:100DF000FF1FEA50FE4F31832083FC013396F093AE
:100E00003202E0933102880F991FFC01E850FE4F37
:100E100026C1FC01EE0FFF1FEC50FE4F31832083F3
:100E2000FC01EE0FFF1FEA50FE4F51834083E1C0EB
:100E3000FC01EE0FFF1FEC50FE4F5183408384C036
:100E4000FC01EE0FFF1FEC50FE4F31832083E7C003
:100E5000FC01EE0FFF1FEC50FE4F51834083FC015D
:100E6000EE0FFF1FEA50FE4F51834083C6CFFC01B7
:100E7000EE0FFF1FEC50FE4F51834083B7CFFC01B4
:100E8000EE0FFF1FEC50FE4F5183408374C0FC01F6
:100E9000EE0FFF1FEC50FE4F31832083FC01EE0F5D
:100EA000FF1FEA50FE4F518340837ACFFC01EE0FC3
:100EB000FF1FEC50FE4F51834083FC01EE0FFF1FDC
:100EC000EA50FE4F518340837EC0FC01EE0FFF1FAE
:100ED000EC50FE4F31832083FC01EE0FFF1FEA50E0
:100EE000FE4F518340830EC0FC01EE0FFF1FEC50FC
:100EF000FE4F31832083FC01EE0FFF1FEA50FE4FAF
:100F000031832083FC01EE0FFF1FE850FE4F318339
:100F100020833FC0FC01EE0FFF1FEC50FE4F5183BA
:100F20004083FC013296F0933202E0933102880F45
:100F3000991FFC01EA50FE4F92C0FC01EE0FFF1F0B
:100F4000EC50FE4F31832083FC01EE0FFF1FEA506F
:100F5000FE4F3183208316C0FC01EE0FFF1FEC50C3
:100F6000FE4F3183208328C0FC01EE0FFF1FEC50A1
:100F7000FE4F31832083FC01EE0FFF1FEA50FE4F2E
:100F800051834083FC01EE0FFF1FE850FE4F518359
:100F90004083FC013496F0933202E0933102880FD3
:100FA000991FFC01E650FE4F5AC0FC01EE0FFF1FD7
:100FB000EC50FE4F51834083FC01EE0FFF1FEA50BF
:100FC000FE4F31832083FC01EE0FFF1FE850FE4FE0
:100FD0003183208315C0FC01EE0FFF1FEC50FE4F44
:100FE00051834083FC01EE0FFF1FEA50FE4F318317
:100FF0002083FC01EE0FFF1FE850FE4F518340831A
:10100000FC01EE0FFF1FE650FE4F518340831CC0D2
:10101000FC01EE0FFF1FEC50FE4F51834083FC019B
:10102000EE0FFF1FEA50FE4F51834083FC01EE0F8D
:10103000FF1FE850FE4F31832083FC01EE0FFF1F9E
:10104000E650FE4F31832083FC013596F093320247
:10105000E0933102880F991FFC01E450FE4F11828A
:1010600010826F5F7F4F47CE68EB71E087E992E0B7
:101070000E94240F80913102909132020E94FA0E58
:10108000E0913102F0913202EE0FFF1FEE50FE4F61
:1010900083E090E0918380831092320210923102BB
:1010A00065EC71E0CE0101960E94510ECE010196D1
:1010B0000E944D0CCE0101960E944C0E94EFE92E39
:1010C00091E0F92E00E010E025E0D22E2091A90356
:1010D0003091AA03D29EC001D39E900D1124019697
:1010E0000817190718F5F701819191917F01813057
:1010F000910519F461ED71E012C08230910519F487
:1011000063ED71E00CC0009719F461EF71E007C066
:10111000039719F465ED71E002C069ED71E087E9AC
:1011200092E00E94240F0F5F1F4FD0CF0E947E03DA
:1011300060933302709334028093350290933602A9
:1011400061E08DE00E94C10281E080933002109244
:10115000370226960FB6F894DEBF0FBECDBFDF91E3
:10116000CF911F910F91FF90EF90DF90CF90089556
:10117000BF92CF92DF92EF92FF920F931F93CF9384
:10118000DF93D82FC62F8AE0D82EDD0E96EFC92E1A
:10119000CD0E262F4D2D8C2D0E94E40C0AE00C0F55
:1011A00026EFB22EBC0E202F4D2F6B2D8D2F0E94BF
:1011B000E40C15E01D0F35E0F32EFC0E202F412F1F
:1011C0006F2D8D2F0E94E40C4BEFE42EED0E202F9F
:1011D0004E2D6F2D8D2F0E94E40C0BEF0C0F2B2D3D
:1011E000412F602F8D2F0E94E40C2B2D4E2D602F50
:1011F0008D2F0E94E40C2F2D4C2D6C2F8E2D0E94D4
:10120000E40C202F4C2D6C2F8E2D0E94E40C2F2DE2
:101210004D2D6C2F812F0E94E40C202F4D2D6C2F13
:10122000812FDF91CF911F910F91FF90EF90DF9071
:10123000CF90BF900C94E40C0E94BD0D6DED71E059
:101240008AEC93E00E94240F64E670E080E090E076
:101250000E9444032AE34EE56CE182E20E94570DAE
:1012600065E089E20E94930D64E089E20E94930D9B
:1012700023E345E469E28BE30E94200D23E345E488
:1012800069E28BE30E94570D29E240E46EE280E4BC
:101290000E94E40C64E670E080E090E00E94440369
:1012A00022E344E46AE28CE30E94200D29E241E457
:1012B0006EE280E40E94E40C64E670E080E090E07E
:1012C0000E94440322E344E46AE28CE30E94200D7E
:1012D00029E242E46EE280E40E94E40C64E670E0FD
:1012E00080E090E00E94440322E344E46AE28CE35D
:1012F0000E94200D29E243E46EE280E40E94E40CA7
:1013000064E670E080E090E00E94440322E344E45D
:101310006AE28CE30E94200D29E244E46EE280E45C
:101320000E94E40C64E670E080E090E00E944403D8
:1013300022E344E46AE28CE30E94200D29E245E4C2
:101340006EE280E40E94E40C64E670E080E090E0ED
:101350000E94440322E344E46AE28CE30E94200DED
:101360002AE245E46EE280E40E94E40C64E670E068
:1013700080E090E00E94440322E344E46AE28CE3CC
:101380000E94200D2BE245E46EE280E40E94E40C12
:1013900064E670E080E090E00E94440322E344E4CD
:1013A0006AE28CE30E94200D2CE245E46EE280E4C8
:1013B0000E94E40C64E670E080E090E00E94440348
:1013C00022E344E46AE28CE30E94200D2DE245E42E
:1013D0006EE280E40E94E40C64E670E080E090E05D
:1013E0000E94440322E344E46AE28CE30E94200D5D
:1013F0002EE245E46EE280E40E94E40C64E670E0D4
:1014000080E090E00E94440322E344E46AE28CE33B
:101410000E94200D2FE245E46EE280E40E94E40C7D
:1014200064E670E080E090E00E94440322E344E43C
:101430006AE28CE30E94200D20E345E46EE280E442
:101440000E94E40C64E670E080E090E00E944403B7
:1014500022E344E46AE28CE30E94200D21E345E4A8
:101460006EE280E40E94E40C64E670E080E090E0CC
:101470000E94440322E344E46AE28CE30E94200DCC
:1014800022E345E46EE280E40E94E40C64E670E04E
:1014900080E090E00E94440322E344E46AE28CE3AB
:1014A0000E94200D23E345E46EE280E40E94E40CF8
:1014B00064E670E080E090E00E94440322E344E4AC
:1014C0006AE28CE30E94200D23E344E46EE280E4B0
:1014D0000E94E40C64E670E080E090E00E94440327
:1014E00022E344E46AE28CE30E94200D23E343E418
:1014F0006EE280E40E94E40C64E670E080E090E03C
:101500000E94440322E344E46AE28CE30E94200D3B
:1015100023E342E46EE280E40E94E40C64E670E0BF
:1015200080E090E00E94440322E344E46AE28CE31A
:101530000E94200D23E341E46EE280E40E94E40C6B
:1015400064E670E080E090E00E94440322E344E41B
:101550006AE28CE30E94200D23E340E46EE280E423
:101560000E94E40C64E670E080E090E00E94440396
:1015700022E344E46AE28CE30E94200D23E34FE37C
:101580006EE280E40E94E40C64E670E080E090E0AB
:101590000E94440322E344E46AE28CE30E94200DAB
:1015A00023E34EE36EE280E40E94E40C64E670E024
:1015B00080E090E00E94440322E344E46AE28CE38A
:1015C0000E94200D23E34DE36EE280E40E94E40CD0
:1015D00064E670E080E090E00E94440322E344E48B
:1015E0006AE28CE30E94200D23E34CE36EE280E488
:1015F0000E94E40C64E670E080E090E00E94440306
:1016000022E344E46AE28CE30E94200D23E34BE3EF
:101610006EE280E40E94E40C64E670E080E090E01A
:101620000E94440322E344E46AE28CE30E94200D1A
:1016300022E34BE36EE280E40E94E40C64E670E097
:1016400080E090E00E94440321E34BE36EE280E4FB
:101650000E94E40C20E34BE36EE280E40E94E40C81
:1016600064E670E080E090E00E94440322E344E4FA
:101670006AE28CE30E94200D2FE24BE36EE280E4ED
:101680000E94E40C64E670E080E090E00E94440375
:1016900022E344E46AE28CE30E94200D2EE24BE355
:1016A0006EE280E40E94E40C64E670E080E090E08A
:1016B0000E94440322E344E46AE28CE30E94200D8A
:1016C0002DE24BE36EE280E40E94E40C64E670E0FD
:1016D00080E090E00E94440322E344E46AE28CE369
:1016E0000E94200D2CE24BE36EE280E40E94E40CA9
:1016F00064E670E080E090E00E94440322E344E46A
:101700006AE28CE30E94200D2BE24BE36EE280E460
:101710000E94E40C64E670E080E090E00E944403E4
:1017200022E344E46AE28CE30E94200D2AE24BE3C8
:101730006EE280E40E94E40C64E670E080E090E0F9
:101740000E94440322E344E46AE28CE30E94200DF9
:1017500029E24BE36EE280E40E94E40C64E670E070
:1017600080E090E00E94440322E344E46AE28CE3D8
:101770000E94200D29E24BE36EE280E40E94E40C1B
:1017800064E670E080E090E00E94440322E344E4D9
:101790006AE28CE30E94200D29E24CE36EE280E4D1
:1017A0000E94E40C64E670E080E090E00E94440354
:1017B00022E344E46AE28CE30E94200D29E24DE337
:1017C0006EE280E40E94E40C64E670E080E090E069
:1017D0000E94440322E344E46AE28CE30E94200D69
:1017E00029E24EE36EE280E40E94E40C64E670E0DD
:1017F00080E090E00E94440322E344E46AE28CE348
:101800000E94200D29E24FE36EE280E40E94E40C86
:1018100064E670E080E090E00E94440322E344E448
:101820006AE28CE30E94200D29E240E46EE280E44B
:101830000C94E40C0F931F93CF93DF93EB018A0179
:101840000E94DB0C61EF71E087E992E00E94240FB7
:10185000AE01DD0F660B770B87E992E00E94C40EA4
:1018600062EC71E087E992E00E94240FC801DF91E9
:10187000CF911F910F910C94FA0ECF93DF93EB0150
:101880000E94DB0C61EF71E087E992E00E94240F77
:10189000CE01DF91CF910C94FA0E0E94DB0C61E532
:1018A00071E087E992E00C94660ECF93DF9364E5D4
:1018B00071E087E992E00E94240F809139029091B3
:1018C0003A020E94FA0EC0913902D0913A020E9467
:1018D000C70DAE01DD0F660B770B8AEC93E00E941B
:1018E000C40E81E080933802DF91CF91089560911A
:1018F000390270913A026F5F7F4F70933A026093A2
:10190000390280E090E00E94461710923802089554
:10191000CF92DF92EF92FF920F931F93CF93DF93BB
:101920006C017A018B01C0E0D0E0CE15DF0589F0B3
:10193000D8016D918D01D601ED91FC910190F0815E
:10194000E02DC6010995892B11F47E0102C0219674
:10195000ECCFC701DF91CF911F910F91FF90EF90D6
:10196000DF90CF900895E7E9F2E0A089B18982E0A5
:101970008C93A485B5851C92A685B7858FEC8C9336
:10198000108EA489B58986E08C93A289B3898C9145
:1019900080618C93A289B3898C9188608C93A28991
:1019A000B3898C9180688C930288F389E02D8081C3
:1019B0008F7D80830895FC01448155816081718110
:1019C00087E992E00C94880C0F931F93CF93DF93D9
:1019D00000D0CDB7DEB7182F062F6CE78AEC93E066
:1019E0002A8349830E940B026CE08AEC93E00E94F8
:1019F0000B02612F8AEC93E00E940B02602F8AECAD
:101A000093E00E940B024981642F8AEC93E00E94CC
:101A10000B022A81622F8AEC93E00E940B0261E0A4
:101A20008AEC93E00E940B026AE070E080E090E0B4
:101A30000F900F90DF91CF911F910F910C94440361
:101A40000F931F93CF93DF9300D0CDB7DEB7182F3E
:101A5000062F6CE78AEC93E02A8349830E940B02ED
:101A600065E08AEC93E00E940B02612F8AEC93E020
:101A70000E940B02602F8AEC93E00E940B024981C6
:101A8000642F8AEC93E00E940B022A81622F8AEC79
:101A900093E00E940B026AE070E080E090E00F901B
:101AA0000F90DF91CF911F910F910C9444030F93EE
:101AB0001F93CF93DF9300D0CDB7DEB7182F062F3B
:101AC0006CE78AEC93E02A8349830E940B026FE063
:101AD0008AEC93E00E940B02612F8AEC93E00E9453
:101AE0000B02602F8AEC93E00E940B024981642F65
:101AF0008AEC93E00E940B022A81622F8AEC93E029
:101B00000E940B0261E08AEC93E00E940B026AE003
:101B100070E080E090E00F900F90DF91CF911F91E7
:101B20000F910C944403CF93DF93D82FC62F6CE70B
:101B30008AEC93E00E940B0263E08AEC93E00E943F
:101B40000B0260E48AEC93E00E940B026D2F8AEC9A
:101B500093E00E940B026C2F8AEC93E00E940B0230
:101B600061E08AEC93E00E940B026AE070E080E0A2
:101B700090E0DF91CF910C9444036CE78AEC93E002
:101B80000E940B0260E08AEC93E00C940B026CE77D
:101B90008AEC93E00E940B0268E18AEC93E00E94D9
:101BA0000B0260E08AEC93E00E940B026CE78AEC87
:101BB00093E00E940B0269E18AEC93E00E940B0221
:101BC00060E08AEC93E00C940B028F929F92AF92AC
:101BD000BF92CF92DF92EF92FF926B017C010E9445
:101BE0007E034B015C01C60ED71EE81EF91E0E9443
:101BF0007E03681579058A059B0528F0C616D70669
:101C0000E806F906A0F7FF90EF90DF90CF90BF9025
:101C1000AF909F908F900895EF92FF920F931F9334
:101C2000CF93DF93EC017B018A0188819981009732
:101C300029F02A813B8124173507F8F4B8016F5F3A
:101C40007F4F0E945F16009759F0998388831B830A
:101C50000A832C813D81232B81F4FC0110820DC06D
:101C600088819981009711F00E94C7151982188206
:101C70001D821C821B821A8207C01D830C83B70140
:101C8000888199810E943717CE01DF91CF911F91F2
:101C90000F91FF90EF900895FC01808191810C9449
:101CA000C715FC01118210821382128215821482E0
:101CB0006115710551F0FB0101900020E9F73197A2
:101CC000AF01461B570B0C940C0E0895611571055E
:101CD00079F0FB0101900020E9F73197AF01461B35
:101CE000570BDC01ED91FC910280F381E02D09940A
:101CF00080E090E008954F925F926F927F92EF9212
:101D0000FF920F931F93CF93DF93CDB7DEB7A197C9
:101D10000FB6F894DEBF0FBECDBF7C01FA01CB0138
:101D200019A2223008F42AE08E010F5D1F4F422EC7
:101D3000512C612C712CBF01A30192010E945417F8
:101D4000F901CA01015011096A3014F4605D01C043
:101D5000695CD8016C93232B242B252B61F7B801E8
:101D6000C7010E94660EA1960FB6F894DEBF0FBEA3
:101D7000CDBFDF91CF911F910F91FF90EF907F909A
:101D80006F905F904F900895CF92DF92EF92FF9205
:101D90000F931F93CF93DF9377FF21C06A017B01DD
:101DA000EC01E881F9810190F081E02D6DE2099567
:101DB0008C0144275527BA014C195D096E097F092A
:101DC0002AE0CE010E947B0E800F911FDF91CF9100
:101DD0001F910F91FF90EF90DF90CF9008952AE030
:101DE000DF91CF911F910F91FF90EF90DF90CF90F7
:101DF0000C947B0ECF93DF93AC01990F660B770B9E
:101E000087E992E00E94C40EEC0161E571E087E988
:101E100092E00E94660E8C0F9D1FDF91CF91089576
:101E20000F931F93CF93DF93EC010E94660E8C01FA
:101E300061E571E0CE010E94660E800F911FDF9177
:101E4000CF911F910F9108950C94660ECF93DF935D
:101E5000CDB7DEB72A970FB6F894DEBF0FBECDBF61
:101E6000789484B5826084BD84B5816084BD85B575
:101E7000826085BD85B5816085BD80916E00816081
:101E800080936E0010928100809181008260809327
:101E90008100809181008160809381008091800029
:101EA0008160809380008091B10084608093B10054
:101EB0008091B00081608093B00080917A0084604E
:101EC00080937A0080917A00826080937A0080917A
:101ED0007A00816080937A0080917A008068809394
:101EE0007A001092C1001092780310927903109238
:101EF0007A0310927B0310923603109237031092EC
:101F000038031092390368EB7BE080E090E00E9498
:101F1000E50D87E992E090937703809376030E9422
:101F2000B30C0E947E036093360370933703809353
:101F300038039093390362E471E0809176039091C5
:101F400077030E94240F6AE070E080E090E00E9436
:101F5000E50D81E080934A030E94B30C80E090E09D
:101F60000E943E1790E090933A02809339021092BB
:101F7000380264E571E087E992E00E94240F8091C5
:101F8000390290913A020E94FA0E60E08CE00E94C1
:101F9000F10264E670E080E090E00E944403EAED24
:101FA000F0E08491E6ECF0E00491E2EBF0E01491D3
:101FB000112379F081110E949802E12FF0E0EE0FD9
:101FC000FF1FE456FF4FA591B491EC91E02309F077
:101FD0005EC461E08DE00E94F10260E08DE00E944D
:101FE000C10261E08BE00E94F10260E08BE00E94A0
:101FF000C1020E94B30C40E855E260E070E08BEA59
:1020000093E00E948B0560EB74E080E090E00E941A
:1020100044030E94C70D0E94BD0D04E610E0C12CD0
:10202000D12C760180E00E942D03092E000CAA0B12
:10203000BB0BC80ED91EEA1EFB1E0150110991F7F9
:10204000C701B60124E630E040E050E00E9454179A
:102050003093400220933F026CE571E0CE0101967F
:102060002F83388749875A870E94510E2F813885E0
:10207000B901CE0101960E943D0CCE0101960E944D
:102080004C0E0E941C0961E771E0CE0101960E948E
:10209000510ECE0101960E943706CE0101960E9494
:1020A0004C0EB4EF8B2E99249394A12CB12CFF24C9
:1020B000F39412E0C12ED12C02E0E02E0E947E03A8
:1020C000672B682B692B41F40E947E0362307105F7
:1020D0008105910508F404C10E947E0360934502C6
:1020E0007093460280934702909348020091410208
:1020F000109142022091430230914402601771070F
:102100008207930740F460934102709342028093E8
:1021100043029093440200914102109142022091A7
:102120004302309144022B013C01401A510A620AD9
:10213000730A930182010A3F11052105310508F454
:10214000CFC0609341027093420280934302909308
:1021500044028092420390924303A0924403B092BF
:1021600045031092460310924703109248031092C1
:10217000490380913A0390913B03A0913C03B091B5
:102180003D0380933E0390933F03A0934003B0939D
:1021900041030E947E0360933A0370933B03809354
:1021A0003C0390933D030E947E036093360370933B
:1021B000370380933803909339030E947E032B01E9
:1021C0003C0166E771E080917603909177030E946D
:1021D000240F2AE041E050E060E070E08091760357
:1021E000909177030E947B0E6DE771E080917603FA
:1021F000909177030E94240F2AE0B301A2018091FD
:102200007603909177030E947B0E6FE771E08091D7
:102210007603909177030E94240F80913A03909166
:102220003B03A0913C03B0913D03B301A201481BC5
:10223000590B6A0B7B0B2AE0809176039091770310
:102240000E947B0E6FE771E0809176039091770397
:102250000E94240F40913A0350913B0360913C034C
:1022600070913D0380913E0390913F03A091400304
:10227000B0914103481B590B6A0B7B0B2AE08091FC
:102280007603909177030E947B0E61E871E0809164
:102290007603909177030E94240F0E947E03AB0186
:1022A000BC012AE080917603909177030E947B0E17
:1022B00063E871E080917603909177030E94100F9C
:1022C00062E070E080E090E00E94E50D0E947E03F5
:1022D00060933A0370933B0380933C0390933D03D8
:1022E0008091390290913A028130910509F449C0F8
:1022F0001CF4892B49F0C8C28230910509F4D6C17B
:10230000039709F446C2C0C280913802811102C00D
:102310000E94550C81E00E942D038C016AE871E057
:10232000CE0101960E94510EA80161E070E0CE013D
:1023300001960E941A0CCE0101960E944C0E552463
:102340005394063011050CF0512C82E00E942D03AD
:102350008C016AE871E0CE0101960E94510EA8013D
:1023600062E070E0CE0101960E941A0CCE01019647
:102370000E944C0E063011050CF086C2511082C22C
:1023800083C280913802811102C00E94550C0E94C4
:102390007E0360933B0270933C0280933D029093D6
:1023A0003E0280913702882309F48AC061E08BE005
:1023B0000E94F102E9EDF0E084918330F9F048F4F5
:1023C0008130B9F08230A1F594B5906294BD88BD9A
:1023D00033C08730E9F0883019F1843049F58091B5
:1023E0008000806280938000D0928B00C0928A002F
:1023F00023C084B5806884BDE7BC1EC08091800086
:10240000806880938000D0928900C092880014C0B8
:102410008091B00080688093B000E092B3000CC05F
:102420008091B00080628093B000E092B40004C05C
:1024300060E08BE00E94C10240903B0250903C0261
:1024400060903D0270903E02809133029091340280
:10245000A0913502B0913602A3019201281B390BDD
:102460004A0B5B0BDA01C90188389341A105B1051C
:1024700008F413C1109232021092310260E08BE036
:102480000E94C10261E08DE00E94C102F092300220
:102490001092370240923302509234026092350219
:1024A0007092360264E971E0CE0101960E94510EED
:1024B000CE0101960E944D0CCE0101960E944C0E59
:1024C000809130020091310210913202F801EE0F3A
:1024D000FF1FEC50FE4F811164C02081318140907C
:1024E0003B0250903C0260903D0270903E02809111
:1024F000330290913402A0913502B0913602232B21
:1025000019F5A3019201281B390B4A0B5B0BDA0169
:10251000C901883E9340A105B10508F4BEC061E041
:102520008DE00E94C102F09230020F5F1F4F1093A6
:102530003202009331024092330250923402609290
:10254000350270923602A9C0A3019201281B390BF3
:102550004A0B5B0BDA01C901843F9140A105B1052B
:1025600008F49BC00F5F1F4F10933202009331029B
:1025700040923302509234026092350270923602D9
:10258000000F111FF801EC50FE4F80819181892BC3
:1025900009F483C061E08DE00E94C102F092300234
:1025A0007CC08081918181309105C9F520903B02EA
:1025B00030903C0240903D0250903E0280913302A8
:1025C00090913402A0913502B0913602A20191019E
:1025D000281B390B4A0B5B0BDA01C901843F914080
:1025E000A105B10508F459C060E08DE00E94C10268
:1025F000109230022092330230923402409235021F
:1026000050923602000F111FF801EA50FE4F8081F0
:102610009181039709F041C065EA71E038C00297E3
:10262000E1F520903B0230903C0240903D025090FA
:102630003E028091330290913402A0913502B09114
:102640003602A2019101281B390B4A0B5B0BDA0100
:10265000C9018C3D9540A105B105F8F060E08DE021
:102660000E94C10210923002209233023092340252
:102670004092350250923602000F111FF801EA50C5
:10268000FE4F80819181039741F46EEA71E087E902
:1026900092E00E94100FF09237028BEA93E00E94C2
:1026A0005F02181619060CF4E9C0EEC080913802DA
:1026B000811152C00E94BD0D0E94550C66E080E35E
:1026C0000E94930D2DE043E46BE28DE30E94570DD1
:1026D00065E080E30E94930D64E080E30E94930D27
:1026E00063E080E30E94930D62E080E30E94930D1B
:1026F00061E080E30E94930D2AE243E46AE28DE305
:102700000E94E40C29E243E469E28DE30E94E40CB8
:1027100028E243E468E28DE30E94E40C27E243E40C
:1027200067E28DE30E94E40C26E243E466E28DE377
:102730000E94E40C25E243E465E28DE30E94E40C90
:102740006FE070E084E190E00E94B8086DE270E014
:1027500084E690E00E94B80880E00E942D038C017E
:1027600064E671E0CE0101960E94510EB801CE01DF
:1027700001960E943D0CCE0101960E944C0E809164
:102780003F02909140024496801791070CF07CC064
:1027900079C080913802811177C00E94550C109247
:1027A0003A021092390260E080E090E00E94461701
:1027B0008091A20308E810E0081B110987FD13951A
:1027C000000F111F000F111F6801012E000CEE08F1
:1027D000FF088091A30328E532E0281B310987FD1B
:1027E0003395220F331F220F331FC901330FAA0B5A
:1027F000BB0B9C01AD012C193D094E095F09A4E1F9
:10280000B0E00E94951724EB30E040E050E00E94D9
:102810007617C20ED31EE41EF51E8091A1038C30E4
:10282000B8F4C016D1060CF4680142E0C41AD1080D
:10283000CC0CDD1C2FB7F89490E0FC01EE0FFF1FCD
:102840008E0F9F1FFC01E458FC4FD282C1822FBF24
:1028500064EF71E080E090E00E944403E091A10306
:10286000F0E0CF01880F991FE80FF91FE458FC4FE3
:1028700080818F7B80830E941C09FDCF60E08DE00A
:102880000E94C1020E94770C0E94690117CC10922D
:102890003A021092390260E080E090E00E94461710
:1028A00098CBCF93DF9385EA93E00E944C0EC6E36A
:1028B000D1E0D093AC03C093AB038BEA93E00E94CA
:1028C0007505D093CB03C093CA038AEC93E0DF91E4
:1028D000CF910C94750510929A021092990288EE8D
:1028E00093E0A0E0B0E080939B0290939C02A093C1
:1028F0009D02B0939E028EE091E0909398028093A7
:10290000970285EC90E09093A4028093A30284EC5C
:1029100090E09093A6028093A50280EC90E09093C3
:10292000A8028093A70281EC90E09093AA02809382
:10293000A90282EC90E09093AC028093AB0286EC0B
:1029400090E09093AE028093AD021092B00210928C
:10295000B1021092B2021092B30210923A03109296
:102960003B0310923C0310923D0310923E031092E1
:102970003F031092400310924103109242031092C1
:1029800043031092440310924503109246031092A1
:102990004703109248031092490320E043E062E0AD
:1029A0008AEC93E00E9495048091A0038C30A0F4FF
:1029B00091E0980F9093A0038093A10390E0FC0115
:1029C000EE0FFF1F8E0F9F1FFC01E458FC4F88EB9A
:1029D0009BE09283818303C08FEF8093A10320E06B
:1029E00046E065E08BEA93E00E94950463E571E0C0
:1029F00085EA93E00E94510E40E052EC61E070E005
:102A00008AEC93E00C948B0597FB072E16F4009448
:102A100007D077FD09D00E941E1507FC05D03EF4B3
:102A2000909581959F4F0895709561957F4F08957A
:102A3000EE0FFF1F0590F491E02D0994AA1BBB1B1C
:102A400051E107C0AA1FBB1FA617B70710F0A61BAE
:102A5000B70B881F991F5A95A9F780959095BC01CF
:102A6000CD010895CF93DF938230910510F482E079
:102A700090E0E091EB03F091EC0320E030E0C0E067
:102A8000D0E0309711F14081518148175907C0F0CB
:102A90004817590761F482819381209719F09B832D
:102AA0008A832BC09093EC038093EB0326C02115FF
:102AB000310519F04217530718F49A01BE01DF01DE
:102AC000EF010280F381E02DDCCF2115310509F102
:102AD000281B390B2430310590F412968D919C916E
:102AE00013976115710521F0FB019383828304C064
:102AF0009093EC038093EB03FD01329644C0FD01FB
:102B0000E20FF31F81939193225031092D933C934F
:102B10003AC02091E9033091EA03232B41F420913C
:102B20000201309103013093EA032093E9032091DD
:102B30000001309101012115310541F42DB73EB757
:102B40004091040150910501241B350BE091E903EC
:102B5000F091EA03E217F307A0F42E1B3F0B2817AE
:102B6000390778F0AC014E5F5F4F2417350748F006
:102B70004E0F5F1F5093EA034093E90381939193B3
:102B800002C0E0E0F0E0CF01DF91CF9108950F9314
:102B90001F93CF93DF93009709F48CC0FC01329709
:102BA000138212820091EB031091EC0301151105C1
:102BB00081F420813181820F931F2091E9033091AC
:102BC000EA032817390779F5F093EA03E093E9035C
:102BD00071C0D80140E050E0AE17BF0750F4129624
:102BE0002D913C911397AD012115310509F1D901C2
:102BF000F3CF9D01DA013383228360817181860FD7
:102C0000971F8217930769F4EC0128813981260FF9
:102C1000371F2E5F3F4F318320838A819B819383AF
:102C20008283452B29F4F093EC03E093EB0342C03D
:102C30001396FC93EE931297ED01499159919E01E1
:102C4000240F351FE217F30771F480819181840FFF
:102C5000951F029611969C938E9382819381139671
:102C60009C938E931297E0E0F0E0D80112968D913C
:102C70009C911397009719F0F8018C01F6CF8D9174
:102C80009C9198012E5F3F4F820F931F2091E90383
:102C90003091EA032817390769F4309729F4109224
:102CA000EC031092EB0302C0138212821093EA032A
:102CB0000093E903DF91CF911F910F910895A0E058
:102CC000B0E0E5E6F6E10C94A417EC01009721F4DE
:102CD000CB010E943215B8C0FC01E60FF71F9C0122
:102CE00022503109E217F30708F4ACC0D9010D9165
:102CF0001C91119706171707B0F00530110508F45D
:102D00009FC0C80104978617970708F499C002501E
:102D10001109061B170B019311936D937C93CF013F
:102D20000E94C7158DC05B01A01AB10A4C01800E2C
:102D3000911EA091EB03B091EC0340E050E0E12C38
:102D4000F12C109709F44AC0A815B905D1F56D907A
:102D50007C901197630182E0C80ED11CCA14DB0479
:102D600080F1A3014A195B096A0182E0C80ED11CF7
:102D70001296BC9012971396AC91B5E0CB16D10485
:102D800040F0B282A38351834083D9016D937C9339
:102D90000AC00E5F1F4FC301800F911FF90191837D
:102DA0008083EB2DFA2FE114F10431F0D701139653
:102DB000FC93EE93129744C0F093EC03E093EB0383
:102DC0003FC08D919C9111974817590708F4AC01A9
:102DD0007D0112960D90BC91A02DB3CF8091E90397
:102DE0009091EA0388159905E1F446175707C8F44E
:102DF0008091000190910101009741F48DB79EB739
:102E00004091040150910501841B950BE817F907C7
:102E1000C8F4F093EA03E093E903F9017183608356
:102E20000FC0CB010E9432157C01009759F0A80118
:102E3000BE010E942E17CE010E94C715C70104C013
:102E4000CE0102C080E090E0CDB7DEB7EEE00C949A
:102E5000C01781E090E0F8940C94E617FB01DC01C8
:102E600002C001900D9241505040D8F70895FB01E7
:102E7000DC0101900D920020E1F70895F999FECF51
:102E800092BD81BDF89A992780B50895262FF999AA
:102E9000FECF1FBA92BD81BD20BD0FB6F894FA9A3D
:102EA000F99A0FBE01960895A1E21A2EAA1BBB1B28
:102EB000FD010DC0AA1FBB1FEE1FFF1FA217B30706
:102EC000E407F50720F0A21BB30BE40BF50B661F1C
:102ED000771F881F991F1A9469F7609570958095E0
:102EE00090959B01AC01BD01CF010895052E97FB84
:102EF0001EF400940E948D1757FD07D00E945417AE
:102F000007FC03D04EF40C948D17509540953095E6
:102F100021953F4F4F4F5F4F089590958095709545
:102F200061957F4F8F4F9F4F08950E94D717A59FA0
:102F3000900DB49F900DA49F800D911D11240895B4
:102F40002F923F924F925F926F927F928F929F92B9
:102F5000AF92BF92CF92DF92EF92FF920F931F93A7
:102F6000CF93DF93CDB7DEB7CA1BDB0B0FB6F89458
:102F7000DEBF0FBECDBF09942A88398848885F8498
:102F80006E847D848C849B84AA84B984C884DF8009
:102F9000EE80FD800C811B81AA81B981CE0FD11DED
:102FA0000FB6F894DEBF0FBECDBFED010895A29F0E
:102FB000B001B39FC001A39F700D811D1124911D0D
:102FC000B29F700D811D1124911D089510E0CCE772
:102FD000D0E004C0FE010E9418152196CD37D1071C
:062FE000C9F7F894FFCFD1
:102FE6000000ED0380000100000000000000000169
:102FF600880CC900A700BB00470100000000730150
:10300600880C7301730173017301000000007301E2
:10301600880C000000000B02880C5F027702F201A8
:103026000A02564D4450565F317C315F564D44502E
:10303600560D0A0053746174653A2000416D626949
:10304600656E742054656D70657261747572653A4B
:10305600006368616E00564D4450455F003A323A4F
:10306600007C005F564D4450450050726573737581
:1030760072653A0072657374617274696E67206D69
:103086006F72736500686572655F646F740068656A
:1030960072655F6461736800706F73206F66206588
:1030A6006E643A20004D6F72736520636F64653AF3
:1030B600002E002D00454E4400455252002020208F
:1030C600202070757A7A6C6520626F782120202026
:0430D60020200000B6
:107E0000112484B714BE81FFF0D085E080938100F7
:107E100082E08093C00088E18093C10086E0809377
:107E2000C20080E18093C4008EE0C9D0259A86E02C
:107E300020E33CEF91E0309385002093840096BBD3
:107E4000B09BFECF1D9AA8958150A9F7CC24DD24C4
:107E500088248394B5E0AB2EA1E19A2EF3E0BF2EE7
:107E6000A2D0813461F49FD0082FAFD0023811F036
:107E7000013811F484E001C083E08DD089C08234E0
:107E800011F484E103C0853419F485E0A6D080C0E4
:107E9000853579F488D0E82EFF2485D0082F10E0AE
:107EA000102F00270E291F29000F111F8ED06801E7
:107EB0006FC0863521F484E090D080E0DECF843638
:107EC00009F040C070D06FD0082F6DD080E0C81688
:107ED00080E7D80618F4F601B7BEE895C0E0D1E017
:107EE00062D089930C17E1F7F0E0CF16F0E7DF06D8
:107EF00018F0F601B7BEE89568D007B600FCFDCFD4
:107F0000A601A0E0B1E02C9130E011968C91119780
:107F100090E0982F8827822B932B1296FA010C0160
:107F200087BEE89511244E5F5F4FF1E0A038BF0790
:107F300051F7F601A7BEE89507B600FCFDCF97BE46
:107F4000E89526C08437B1F42ED02DD0F82E2BD052
:107F50003CD0F601EF2C8F010F5F1F4F84911BD097
:107F6000EA94F801C1F70894C11CD11CFA94CF0C13
:107F7000D11C0EC0853739F428D08EE10CD085E9AC
:107F80000AD08FE07ACF813511F488E018D01DD067
:107F900080E101D065CF982F8091C00085FFFCCF94
:107FA0009093C60008958091C00087FFFCCF809118
:107FB000C00084FD01C0A8958091C6000895E0E648
:107FC000F0E098E1908380830895EDDF803219F02E
:107FD00088E0F5DFFFCF84E1DECF1F93182FE3DFCA
:107FE0001150E9F7F2DF1F91089580E0E8DFEE27F6
:047FF000FF270994CA
:027FFE00040479
:0400000300007E007B
:00000001FF