:100000000C947D000C94A5000C94A5000C943A046B
:100010000C943A040C943A040C94A5000C94A5009A
:100020000C94A5000C94A5000C94A5000C94A500BC
:100030000C94A5000C94A5000C94A5000C94A500AC
:100040000C948A030C94A5000C9466020C94400254
:100050000C94A5000C94A5000C94A5000C94A5008C
:100060000C94A5000C94A5000A0612061A06220696
:100070002A063206480650065F067906880690066C
:100080009806A706AF06B706C606D506E406FA0622
:100090000D071C07240745075B07780700000000D1
:1000A00023002600290004040404040404040202BA
:1000B00002020202030303030303010204081020E7
:1000C00040800102040810200102040810200000F2
:1000D0000008000201000003040700000000000007
:1000E000000000000000240027002A00000000009B
:1000F000250028002B00A612881211241FBECFEF66
:10010000D8E0DEBFCDBF12E0A0E0B1E0E8ECFBE25A
:1001100002C005900D92AA32B107D9F724E0AAE2F5
:10012000B2E001C01D92A030B207E1F710E0CCE7C9
:10013000D0E004C02197FE010E943913CB37D107CC
:10014000C9F70E94120B0C94D7150C940000FC0107
:10015000918D828D981761F0828DDF01A80FB11DFE
:100160005D968C91928D9F5F9F73928F90E0089522
:100170008FEF9FEF0895FC01918D828D981731F0DC
:10018000828DE80FF11D858D90E008958FEF9FEF30
:100190000895FC01918D228D892F90E0805C9F4F06
:1001A000821B91098F73992708958CEC92E00E942D
:1001B000C90021E0892B09F420E0822F0895FC0179
:1001C000848DDF01A80FB11DA35ABF4F2C91848DE0
:1001D00090E001968F739927848FA689B7892C9315
:1001E000A089B1898C9180648C93938D848D9813B0
:1001F00006C00288F389E02D80818F7D8083089579
:10020000EF92FF920F931F93CF93DF93EC0181E066
:10021000888F9B8D8C8D981305C0E889F989808122
:1002200085FD24C0F62E0B8D10E00F5F1F4F0F735E
:100230001127E02E8C8DE8120CC00FB607FCFACF08
:10024000E889F989808185FFF5CFCE010E94DF0022
:10025000F1CF8B8DFE01E80FF11DE35AFF4FF082C5
:100260000B8FEA89FB898081806207C0EE89FF8954
:100270006083E889F98980818064808381E090E0EF
:10028000DF91CF911F910F91FF90EF900895CF9341
:10029000DF93EC01888D8823C9F0EA89FB8980818E
:1002A00085FD05C0A889B9898C9186FD0FC00FB660
:1002B00007FCF5CF808185FFF2CFA889B9898C91A1
:1002C00085FFEDCFCE010E94DF00E7CFDF91CF9118
:1002D000089580E090E0892B29F00E94D5008111DB
:1002E0000C94000008953FB7F8948091C802909153
:1002F000C902A091CA02B091CB0226B5A89B05C045
:100300002F3F19F00196A11DB11D3FBFBA2FA92F94
:10031000982F8827820F911DA11DB11DBC01CD0111
:1003200042E0660F771F881F991F4A95D1F70895FD
:100330002091C1023091C2022817390771F49091BF
:10034000C0028091BF02981741F0E091C002F0E036
:10035000E158FD4F808190E008958FEF9FEF089561
:1003600008951F93CF93DF93DC015C962D913C9110
:100370005D972115310539F481E090E013969C9347
:100380008E9312973DC05196ED91FC9152975096E5
:100390009C915097892F80951FB75E964C915E97E0
:1003A00041FB772770F941FD6095F89440817723F0
:1003B00011F0492B01C048234083E9012197F1F74F
:1003C00048E0508160FF02C0592B01C05823508380
:1003D000E9012197F1F76695415099F7772321F0CC
:1003E00090818923808303C08081982B90831FBFD5
:1003F0005C968D919C915D970197F1F721E030E03B
:10040000C901DF91CF911F9108952091C1023091D0
:10041000C2022817390771F48091BF022091C002EF
:1004200090E0805C9F4F821B910960E470E00E9425
:100430000613089580E090E008952091C102309164
:10044000C20228173907B9F49091C0028091BF0207
:10045000981789F0E091C002F0E0E158FD4F8081EB
:100460002091C00230E02F5F3F4F2F73332720933E
:10047000C00290E008958FEF9FEF08950E944A1503
:100480001F920F920FB60F9211242F933F934F9309
:100490005F936F937F938F939F93AF93BF93EF93EC
:1004A000FF938CEC92E00E94DF00FF91EF91BF91EF
:1004B000AF919F918F917F916F915F914F913F91FC
:1004C0002F910F900FBE0F901F9018951F920F92B3
:1004D0000FB60F9211242F938F939F93EF93FF9357
:1004E000E091DC02F091DD028081E091E202F09186
:1004F000E30282FD12C090818091E5028F5F8F73CD
:100500002091E602821751F0E091E502F0E0E45319
:10051000FD4F958F8093E50201C08081FF91EF919F
:100520009F918F912F910F900FBE0F901F90189554
:10053000833081F028F4813099F08230A1F0089561
:100540008730A9F08830B9F08430D1F480918000F0
:100550008F7D03C0809180008F7780938000089505
:1005600084B58F7702C084B58F7D84BD0895809156
:10057000B0008F7703C08091B0008F7D8093B00072
:1005800008951F93CF93DF93282F30E0F901E253B2
:10059000FF4F8491F901E654FF4FD491F901EA55D8
:1005A000FF4FC491CC23C9F0162F81110E949802ED
:1005B000EC2FF0E0EE0FFF1FE451FF4FA591B49137
:1005C0008FB7F894111105C09C91ED2FE095E923A8
:1005D00002C0EC91ED2BEC938FBFDF91CF911F9177
:1005E0000895CF93DF9390E0FC01E654FF4F2491F0
:1005F000FC01EA55FF4F8491882361F190E0880F58
:10060000991FFC01EE51FF4FC591D491FC01E451BB
:10061000FF4FA591B491611109C09FB7F8948881EB
:10062000209582238883EC912E230BC0623061F4E5
:100630009FB7F8943881822F809583238883EC912B
:100640002E2B2C939FBF06C08FB7F894E8812E2BDA
:1006500028838FBFDF91CF9108958E3008F08E50A0
:100660008770806480937C0080917A00806480939E
:100670007A0080917A0086FDFCCF809178002091ED
:10068000790090E0922B08958F929F92AF92BF9243
:10069000CF92DF92EF92FF926B017C010E94730177
:1006A0004B015C01C114D104E104F104F1F00E949A
:1006B0007301DC01CB0188199909AA09BB09883E9D
:1006C0009340A105B10570F321E0C21AD108E108F9
:1006D000F10888EE880E83E0981EA11CB11CC1149D
:1006E000D104E104F10419F7DDCFFF90EF90DF9022
:1006F000CF90BF90AF909F908F9008952FB7F894B0
:100700006091C4027091C5028091C6029091C702A7
:100710002FBF08951F920F920FB60F9211242F939F
:100720003F938F939F93AF93BF938091C402909117
:10073000C502A091C602B091C7023091C30223E066
:10074000230F2D3720F40196A11DB11D05C026E809
:10075000230F0296A11DB11D2093C3028093C402F2
:100760009093C502A093C602B093C7028091C802BD
:100770009091C902A091CA02B091CB020196A11D2D
:10078000B11D8093C8029093C902A093CA02B0938E
:10079000CB02BF91AF919F918F913F912F910F907D
:1007A0000FBE0F901F9018950F931F93CF93DF9359
:1007B000EC01162F042F1B821A8288EE93E0A0E032
:1007C000B0E08C839D83AE83BF8382E391E0998305
:1007D00088831F8A1E8A198E188E1B8E1A8E1D8E74
:1007E0001C8E6E8D6E7F20FB61F96E8F6695617039
:1007F00081E06827842F0E94C10261E0802F0E945F
:10080000F102402F50E0FA01E654FF4FE491E88BEB
:10081000FA01EA55FF4FE491F0E0EE0FFF1FE451BB
:10082000FF4F859194919A8B898B60E0812F0E9474
:10083000F1028E8D81FD04C061E0812F0E94C10212
:100840001C87612F70E0FB01E654FF4FE491ED87B8
:10085000FB01EA55FF4FE491F0E0EE0FFF1FE45675
:10086000FF4F859194919F878E87DF91CF911F9144
:100870000F9108951F920F920FB60F9211242F938C
:100880003F934F935F936F937F938F939F93AF9318
:10089000BF93EF93FF93E091C102F091C2023097B2
:1008A00009F451C0968DA685B785858591FF04C052
:1008B0009C91892329F447C09C91892309F043C066
:1008C000A389B4899C918589809589238C93868995
:1008D00097890197F1F7608D718DA685B78555854C
:1008E00038E020E0CB010197F1F7822F90E0959559
:1008F0008795282F4C91452309F02068315091F7B6
:10090000868D81FD20958091BF0290E001968F73C6
:1009100099273091C002381749F0A091BF02B0E08A
:10092000A158BD4F2C938093BF0203C0868D816078
:10093000868F828D938D0197F1F7A389B4899C915D
:100940008589892B8C93FF91EF91BF91AF919F91F6
:100950008F917F916F915F914F913F912F910F9068
:100960000FBE0F901F901895E091C102F091C20246
:10097000E817F90769F4A389B4899C918589809562
:1009800089238C931092C2021092C10281E00895D3
:1009900080E00895CF93DF93EC019A01AB011B8EA9
:1009A0001A8E198E188E1F8A1E8A60E079E08DE3F8
:1009B00090E00E941A13F9012430310518F0C901A2
:1009C000039702C081E090E09D8F8C8F6C8566312B
:1009D00008F069C0C901969587958431910510F09A
:1009E000439702C081E090E09F8B8E8B369718F082
:1009F000C901059702C081E090E0998F888FC901F5
:100A0000880F991F280F391F3695279536952795FA
:100A10002D30310518F02C50310902C021E030E0B2
:100A20003B8F2A8F90916800683050F021E06E3043
:100A300008F420E081E001C0880F2A95EAF701C0A0
:100A400084E0892B809368009C85983038F09E3034
:100A500040F0963148F020E030E008C02DE630E06C
:100A600005C02BE630E002C02CE630E03C8B2B8B3F
:100A7000983030F481E001C0880F9A95EAF70EC0F3
:100A8000292F30E09E3018F42850310902C02E5032
:100A9000310981E001C0880F2A95EAF78D8B8C8D92
:100AA0009D8D0197F1F78A8D9B8D892BE1F08091C7
:100AB000C1029091C2028C179D07A9F0009711F016
:100AC0000E94B4048E8D8E7F8E8F1092BF02109282
:100AD000C002D093C202C093C102EB89FC8990810D
:100AE0008D89892B8083DF91CF9108950F931F9378
:100AF000CF93DF93EB018A010E94AE0861E871E0B9
:100B00008CEC92E00E94100BAE01DD0F660B770BB0
:100B10008CEC92E00E94B00A6FE072E08CEC92E004
:100B20000E94100BC801DF91CF911F910F910C947F
:100B3000E60ACF93DF93EB010E94AE0861E871E013
:100B40008CEC92E00E94100BCE010E94AE086DE486
:100B500071E08CEC92E0DF91CF910C94520ACF932C
:100B6000DF93EB010E94AE0861E871E08CEC92E04B
:100B70000E94100BCE01DF91CF910C94E60A0E94E7
:100B8000AE086DE471E08CEC92E00C94520ACF92C6
:100B9000DF92EF92FF920F931F93CF93DF9300D0DA
:100BA00000D000D0CDB7DEB7BC0182EB93E00E944D
:100BB000170A1092680210926702A091B203B091D6
:100BC000B3030091B6031091B70360E070E042E018
:100BD00050E021E030E06017710709F4B5C11097CB
:100BE00009F4AFC1FD01E60FF71FE081CE2EEE0F35
:100BF000DD08EE08FF08F601E156F109EA31F105DA
:100C000008F09FC1EC5CFF4F8091670290916802F1
:100C10000C943913FC01EE0FFF1FE65DFD4F31838D
:100C200020838DC0FC01EE0FFF1FE65DFD4F518359
:100C300040833DC0FC01EE0FFF1FE65DFD4F518379
:100C4000408317C0FC01EE0FFF1FE65DFD4F51838F
:100C50004083C1C0FC01EE0FFF1FE65DFD4F3183F5
:100C60002083CFC0FC01EE0FFF1FE65DFD4F3183F7
:100C70002083FC01EE0FFF1FE45DFD4F31832083D5
:100C8000FC01EE0FFF1FE25DFD4F5183408345C124
:100C9000FC01EE0FFF1FE65DFD4F518340838CC0CA
:100CA000FC01EE0FFF1FE65DFD4F31832083FC0149
:100CB000EE0FFF1FE45DFD4F3183208327C1FC0150
:100CC000EE0FFF1FE65DFD4F31832083FC01EE0F29
:100CD000FF1FE45DFD4F31832083FC013396F093C9
:100CE0006802E0936702880F991FFC01E25DFD4FE7
:100CF00026C1FC01EE0FFF1FE65DFD4F318320830F
:100D0000FC01EE0FFF1FE45DFD4F51834083E1C006
:100D1000FC01EE0FFF1FE65DFD4F5183408384C051
:100D2000FC01EE0FFF1FE65DFD4F31832083E7C01E
:100D3000FC01EE0FFF1FE65DFD4F51834083FC0178
:100D4000EE0FFF1FE45DFD4F51834083C6CFFC01D2
:100D5000EE0FFF1FE65DFD4F51834083B7CFFC01CF
:100D6000EE0FFF1FE65DFD4F5183408374C0FC0111
:100D7000EE0FFF1FE65DFD4F31832083FC01EE0F78
:100D8000FF1FE45DFD4F518340837ACFFC01EE0FDE
:100D9000FF1FE65DFD4F51834083FC01EE0FFF1FF7
:100DA000E45DFD4F518340837EC0FC01EE0FFF1FC9
:100DB000E65DFD4F31832083FC01EE0FFF1FE45DF4
:100DC000FD4F518340830EC0FC01EE0FFF1FE65D17
:100DD000FD4F31832083FC01EE0FFF1FE45DFD4FCB
:100DE00031832083FC01EE0FFF1FE25DFD4F318355
:100DF00020833FC0FC01EE0FFF1FE65DFD4F5183D6
:100E00004083FC013296F0936802E0936702880FFA
:100E1000991FFC01E45DFD4F92C0FC01EE0FFF1F26
:100E2000E65DFD4F31832083FC01EE0FFF1FE45D83
:100E3000FD4F3183208316C0FC01EE0FFF1FE65DDE
:100E4000FD4F3183208328C0FC01EE0FFF1FE65DBC
:100E5000FD4F31832083FC01EE0FFF1FE45DFD4F4A
:100E600051834083FC01EE0FFF1FE25DFD4F518374
:100E70004083FC013496F0936802E0936702880F88
:100E8000991FFC01E05DFD4F5AC0FC01EE0FFF1FF2
:100E9000E65DFD4F51834083FC01EE0FFF1FE45DD3
:100EA000FD4F31832083FC01EE0FFF1FE25DFD4FFC
:100EB0003183208315C0FC01EE0FFF1FE65DFD4F5F
:100EC00051834083FC01EE0FFF1FE45DFD4F318332
:100ED0002083FC01EE0FFF1FE25DFD4F5183408335
:100EE000FC01EE0FFF1FE05DFD4F518340831CC0EE
:100EF000FC01EE0FFF1FE65DFD4F51834083FC01B7
:100F0000EE0FFF1FE45DFD4F51834083FC01EE0FA8
:100F1000FF1FE25DFD4F31832083FC01EE0FFF1FB9
:100F2000E05DFD4F31832083FC013596F09368022C
:100F3000E0936702880F991FFC01EE5CFD4F118260
:100F400010826F5F7F4F47CE65E072E08CEC92E0DD
:100F50000E94100B80916702909168020E94E60A3D
:100F6000E0916702F0916802EE0FFF1FE85DFD4F10
:100F700083E090E091838083109268021092670270
:100F800062E172E0CE0101960E943D0ACE01019617
:100F90000E94BF05CE0101960E94380A9AE2E92E0E
:100FA00092E0F92E00E010E025E0D22E2091B60369
:100FB0003091B703D29EC001D39E900D11240196AB
:100FC0000817190718F5F701819191917F01813078
:100FD000910519F46EE172E012C08230910519F4A6
:100FE00060E272E00CC0009719F461E871E007C09C
:100FF000039719F462E272E002C066E272E08CECE0
:1010000092E00E94100B0F5F1F4FD0CF0E947E0313
:101010006093690270936A0280936B0290936C02F2
:1010200061E08DE00E94C10281E08093660210922F
:101030006D0226960FB6F894DEBF0FBECDBFDF91CE
:10104000CF911F910F91FF90EF90DF90CF90089577
:10105000CF93DF9360E571E08CEC92E00E94100B7F
:1010600080916F02909170020E94E60AC0916F0217
:10107000D09170020E948009AE01DD0F660B770BE4
:101080008DED93E00E94B00A81E080936E02DF91C3
:10109000CF91089560916F02709170026F5F7F4FE2
:1010A0007093700260936F0280E090E00E94701570
:1010B00010926E020895CF92DF92EF92FF920F93FB
:1010C0001F93CF93DF936C017A018B01C0E0D0E0D6
:1010D000CE15DF0589F0D8016D918D01D601ED9116
:1010E000FC910190F081E02DC6010995892B11F446
:1010F0007E0102C02196ECCFC701DF91CF911F91F5
:101100000F91FF90EF90DF90CF900895ECECF2E01C
:10111000A089B18982E08C93A485B5851C92A685AF
:10112000B7858FEC8C93108EA489B58986E08C935B
:10113000A289B3898C9180618C93A289B3898C91A7
:1011400088608C93A289B3898C9180688C93028883
:10115000F389E02D80818F7D80830895FC01448197
:101160005581608171818CEC92E00C945B08CF9387
:10117000DF93D82FC62F6CE78DED93E00E94B1016D
:101180006CE08DED93E00E94B10160E48DED93E0A1
:101190000E94B1016EE28DED93E00E94B1016D2FCE
:1011A0008DED93E00E94B1016C2F8DED93E00E94D4
:1011B000B10161E08DED93E00E94B1016AE070E061
:1011C00080E090E0DF91CF910C9444030F931F9344
:1011D000CF93DF9300D0CDB7DEB7182F062F6CE783
:1011E0008DED93E02A8349830E94B10165E08DED86
:1011F00093E00E94B101612F8DED93E00E94B10157
:10120000602F8DED93E00E94B1014981642F8DED37
:1012100093E00E94B1012A81622F8DED93E00E943C
:10122000B1016AE070E080E090E00F900F90DF91F4
:10123000CF911F910F910C9444030F931F93CF9361
:10124000DF9300D0CDB7DEB7182F062F6CE78DEDFA
:1012500093E02A8349830E94B1016FE08DED93E012
:101260000E94B101612F8DED93E00E94B101602FCA
:101270008DED93E00E94B1014981642F8DED93E0E3
:101280000E94B1012A81622F8DED93E00E94B1018D
:1012900061E08DED93E00E94B1016AE070E080E0D2
:1012A00090E00F900F90DF91CF911F910F910C94D0
:1012B0004403CF93C82F6CE78DED93E00E94B101FA
:1012C00063E08DED93E00E94B10160E48DED93E069
:1012D0000E94B10169E28DED93E00E94B1016C2F93
:1012E0008DED93E00E94B10161E08DED93E00E94ED
:1012F000B1016AE070E080E090E0CF910C9444038B
:101300006CE78DED93E00E94B10168E18DED93E013
:101310000E94B10160E08DED93E00E94B1016CE7A5
:101320008DED93E00E94B10169E18DED93E00E94A3
:10133000B10160E08DED93E00C94B1018F929F922A
:10134000AF92BF92CF92DF92EF92FF926B017C013E
:101350000E947E034B015C01C60ED71EE81EF91EDB
:101360000E947E03681579058A059B0528F0C6163C
:10137000D706E806F906A0F7FF90EF90DF90CF9030
:10138000BF90AF909F908F9008950F931F93CF932E
:10139000DF93EC0188819981009729F02A813B81B4
:1013A0002617370788F48B016F5F7F4F0E948014E8
:1013B000009761F0998388831B830A832C813D8188
:1013C000232B11F4FC01108281E001C080E0DF9149
:1013D000CF911F910F910895EF92FF920F931F935A
:1013E000CF93DF93EC017B018A01BA010E94C5090A
:1013F0002881398181110DC02115310519F0C901EC
:101400000E94E813198218821D821C821B821A8294
:1014100006C01D830C83B701C9010E946115CE016E
:10142000DF91CF911F910F91FF90EF900895CF938F
:10143000DF93EC01FB0186179707B1F060817181A2
:101440006115710529F0448155810E94EC090CC099
:1014500088819981009711F00E94E81319821882FF
:101460001D821C821B821A82CE01DF91CF910895CA
:10147000FC01808191810C94E813FC01118210829F
:1014800013821282158214826115710551F0FB01DD
:1014900001900020E9F73197AF01461B570B0C94E0
:1014A000EC0908956115710579F0FB0101900020A8
:1014B000E9F73197AF01461B570BDC01ED91FC9129
:1014C0000280F381E02D099480E090E008954F922E
:1014D0005F926F927F92EF92FF920F931F93CF9341
:1014E000DF93CDB7DEB7A1970FB6F894DEBF0FBE7E
:1014F000CDBF7C01FA01CB0119A2223008F42AE009
:101500008E010F5D1F4F422E512C612C712CBF019B
:10151000A30192010E947E15F901CA01015011092F
:101520006A3014F4605D01C0695CD8016C93232BB0
:10153000242B252B61F7B801C7010E94520AA196FE
:101540000FB6F894DEBF0FBECDBFDF91CF911F91D4
:101550000F91FF90EF907F906F905F904F90089564
:10156000CF92DF92EF92FF920F931F93CF93DF936F
:1015700077FF21C06A017B01EC01E881F9810190CC
:10158000F081E02D6DE209958C0144275527BA01C1
:101590004C195D096E097F092AE0CE010E94670A95
:1015A000800F911FDF91CF911F910F91FF90EF90CE
:1015B000DF90CF9008952AE0DF91CF911F910F9196
:1015C000FF90EF90DF90CF900C94670ACF93DF935A
:1015D000AC01990F660B770B8CEC92E00E94B00A7D
:1015E000EC016DE471E08CEC92E00E94520A8C0FE9
:1015F0009D1FDF91CF9108950F931F93CF93DF939A
:10160000EC010E94520A8C016DE471E0CE010E944F
:10161000520A800F911FDF91CF911F910F91089572
:101620000C94520ACF93DF93CDB7DEB760970FB615
:10163000F894DEBF0FBECDBF789484B5826084BDC0
:1016400084B5816084BD85B5826085BD85B58160C6
:1016500085BD80916E00816080936E001092810044
:1016600080918100826080938100809181008160FF
:1016700080938100809180008160809380008091C0
:10168000B10084608093B1008091B000816080934C
:10169000B00080917A00846080937A0080917A0013
:1016A000826080937A0080917A00816080937A00D2
:1016B00080917A00806880937A001092C100109225
:1016C000AD031092AE031092AF031092B0031092CC
:1016D0006B0310926C0310926D0310926E0368EB13
:1016E0007BE080E090E00E949E098CEC92E0909379
:1016F000AC038093AB030E9486080E947E03609334
:101700006B0370936C0380936D0390936E036EE391
:1017100071E08091AB039091AC030E94100B6AE0E2
:1017200070E080E090E00E949E0981E080937F035A
:101730000E94860880E090E00E94681590E09093F7
:10174000700280936F0210926E0260E571E08CEC83
:1017500092E00E94100B80916F02909170020E94A3
:10176000E60A60E08CE00E94F10264E670E080E04E
:1017700090E00E944403EAEDF0E08491E6ECF0E0B2
:101780000491E2EBF0E01491112379F081110E94B1
:101790009802E12FF0E0EE0FFF1FE456FF4FA591F6
:1017A000B491EC91E02309F04BC661E08DE00E941A
:1017B000F10260E08DE00E94C1020E94860840E8CC
:1017C00055E260E070E08EEB93E00E94CA0460EBAB
:1017D00074E080E090E00E9444030E94800904E6E7
:1017E00010E0812C912C540180E00E942D03092EE1
:1017F000000CAA0BBB0B880E991EAA1EBB1E015023
:10180000110991F7C501B40124E630E040E050E051
:101810000E947E15309376022093750268E571E090
:10182000CE0101962D873E874F87588B0E943D0A37
:101830002D853E85B901CE0101960E94AF05CE01EE
:1018400001960E94380A6CE78DED93E00E94B10189
:1018500060E08DED93E00E94B1016DE671E08DEDE9
:1018600093E00E94100B64E670E080E090E00E943C
:1018700044032AE34EE56CE182E20E941D0985E003
:101880000E94590984E00E94590923E345E469E272
:101890008BE30E94E60823E345E469E28BE30E94C0
:1018A0001D0969E280E40E94B70864E670E080E008
:1018B00090E00E94440322E344E46AE28CE30E9445
:1018C000E60869E281E40E94B70864E670E080E01F
:1018D00090E00E94440322E344E46AE28CE30E9425
:1018E000E60869E282E40E94B70864E670E080E0FE
:1018F00090E00E94440322E344E46AE28CE30E9405
:10190000E60869E283E40E94B70864E670E080E0DC
:1019100090E00E94440322E344E46AE28CE30E94E4
:10192000E60869E284E40E94B70864E670E080E0BB
:1019300090E00E94440322E344E46AE28CE30E94C4
:10194000E60869E285E40E94B70864E670E080E09A
:1019500090E00E94440322E344E46AE28CE30E94A4
:10196000E6086AE285E40E94B70864E670E080E079
:1019700090E00E94440322E344E46AE28CE30E9484
:10198000E6086BE285E40E94B70864E670E080E058
:1019900090E00E94440322E344E46AE28CE30E9464
:1019A000E6086CE285E40E94B70864E670E080E037
:1019B00090E00E94440322E344E46AE28CE30E9444
:1019C000E6086DE285E40E94B70864E670E080E016
:1019D00090E00E94440322E344E46AE28CE30E9424
:1019E000E6086EE285E40E94B70864E670E080E0F5
:1019F00090E00E94440322E344E46AE28CE30E9404
:101A0000E6086FE285E40E94B70864E670E080E0D3
:101A100090E00E94440322E344E46AE28CE30E94E3
:101A2000E60860E385E40E94B70864E670E080E0C1
:101A300090E00E94440322E344E46AE28CE30E94C3
:101A4000E60861E385E40E94B70864E670E080E0A0
:101A500090E00E94440322E344E46AE28CE30E94A3
:101A6000E60862E385E40E94B70864E670E080E07F
:101A700090E00E94440322E344E46AE28CE30E9483
:101A8000E60863E385E40E94B70864E670E080E05E
:101A900090E00E94440322E344E46AE28CE30E9463
:101AA000E60863E384E40E94B70864E670E080E03F
:101AB00090E00E94440322E344E46AE28CE30E9443
:101AC000E60863E383E40E94B70864E670E080E020
:101AD00090E00E94440322E344E46AE28CE30E9423
:101AE000E60863E382E40E94B70864E670E080E001
:101AF00090E00E94440322E344E46AE28CE30E9403
:101B0000E60863E381E40E94B70864E670E080E0E1
:101B100090E00E94440322E344E46AE28CE30E94E2
:101B2000E60863E380E40E94B70864E670E080E0C2
:101B300090E00E94440322E344E46AE28CE30E94C2
:101B4000E60863E38FE30E94B70864E670E080E094
:101B500090E00E94440322E344E46AE28CE30E94A2
:101B6000E60863E38EE30E94B70864E670E080E075
:101B700090E00E94440322E344E46AE28CE30E9482
:101B8000E60863E38DE30E94B70864E670E080E056
:101B900090E00E94440322E344E46AE28CE30E9462
:101BA000E60863E38CE30E94B70864E670E080E037
:101BB00090E00E94440322E344E46AE28CE30E9442
:101BC000E60863E38BE30E94B70864E670E080E018
:101BD00090E00E94440322E344E46AE28CE30E9422
:101BE000E60862E38BE30E94B70864E670E080E0F9
:101BF00090E00E94440361E38BE30E94B70860E336
:101C00008BE30E94B70864E670E080E090E00E94F9
:101C1000440322E344E46AE28CE30E94E6086FE2B4
:101C20008BE30E94B70864E670E080E090E00E94D9
:101C3000440322E344E46AE28CE30E94E6086EE295
:101C40008BE30E94B70864E670E080E090E00E94B9
:101C5000440322E344E46AE28CE30E94E6086DE276
:101C60008BE30E94B70864E670E080E090E00E9499
:101C7000440322E344E46AE28CE30E94E6086CE257
:101C80008BE30E94B70864E670E080E090E00E9479
:101C9000440322E344E46AE28CE30E94E6086BE238
:101CA0008BE30E94B70864E670E080E090E00E9459
:101CB000440322E344E46AE28CE30E94E6086AE219
:101CC0008BE30E94B70864E670E080E090E00E9439
:101CD000440322E344E46AE28CE30E94E60869E2FA
:101CE0008BE30E94B70864E670E080E090E00E9419
:101CF000440322E344E46AE28CE30E94E60869E2DA
:101D00008BE30E94B70864E670E080E090E00E94F8
:101D1000440322E344E46AE28CE30E94E60869E2B9
:101D20008CE30E94B70864E670E080E090E00E94D7
:101D3000440322E344E46AE28CE30E94E60869E299
:101D40008DE30E94B70864E670E080E090E00E94B6
:101D5000440322E344E46AE28CE30E94E60869E279
:101D60008EE30E94B70864E670E080E090E00E9495
:101D7000440322E344E46AE28CE30E94E60869E259
:101D80008FE30E94B70864E670E080E090E00E9474
:101D9000440322E344E46AE28CE30E94E60869E239
:101DA00080E40E94B70863E871E0CE0101960E94CA
:101DB0003D0ACE0101960E94C705CE0101960E9400
:101DC000380A44EF842E99249394A12CB12CFF243B
:101DD000F3940E947E03672B682B692B41F40E94C9
:101DE0007E03623071058105910508F404C10E94EB
:101DF0007E0360937B0270937C0280937D029093BC
:101E00007E02009177021091780220917902309140
:101E10007A02601771078207930740F46093770294
:101E2000709378028093790290937A0200917702FE
:101E3000109178022091790230917A022B013C01B5
:101E4000401A510A620A730A930182010A3F11057E
:101E50002105310508F4CFC06093770270937802B2
:101E60008093790290937A0280927703909278031C
:101E7000A0927903B0927A0310927B0310927C03B4
:101E800010927D0310927E0380916F0390917003F6
:101E9000A0917103B09172038093730390937403C4
:101EA000A0937503B09376030E947E0360936F0343
:101EB0007093700380937103909372030E947E036A
:101EC00060936B0370936C0380936D0390936E0328
:101ED0000E947E032B013C0168E871E08091AB0316
:101EE0009091AC030E94100B2AE041E050E060E0CA
:101EF00070E08091AB039091AC030E94670A6FE899
:101F000071E08091AB039091AC030E94100B2AE02A
:101F1000B301A2018091AB039091AC030E94670AC8
:101F200061E971E08091AB039091AC030E94100BCA
:101F300080916F0390917003A0917103B09172032F
:101F4000B301A201481B590B6A0B7B0B2AE080915D
:101F5000AB039091AC030E94670A61E971E0809144
:101F6000AB039091AC030E94100B40916F03509112
:101F7000700360917103709172038091730390916B
:101F80007403A0917503B0917603481B590B6A0B3B
:101F90007B0B2AE08091AB039091AC030E94670A0F
:101FA00063E971E08091AB039091AC030E94100B48
:101FB0000E947E03AB01BC012AE08091AB039091AB
:101FC000AC030E94670A65E971E08091AB039091D0
:101FD000AC030E94FC0A62E070E080E090E00E94A6
:101FE0009E090E947E0360936F0370937003809339
:101FF00071039093720380916F029091700281300F
:10200000910509F44DC01CF4892B49F016C28230A9
:10201000910509F4DCC1039709F4FCC10EC280915B
:102020006E02811102C00E94280881E00E942D03E7
:102030003C016CE971E0CE0101960E943D0AA301CA
:1020400061E070E0CE0101960E947605CE01019616
:102050000E94380A11E026E0621671040CF010E0CC
:1020600082E00E942D033C016CE971E0CE010196F3
:102070000E943D0AA30162E070E0CE0101960E9439
:102080007605CE0101960E94380A36E06316710487
:102090000CF0D3C1112309F4D0C10E944A08CDC16C
:1020A00080916E02811102C00E9428080E947E0366
:1020B0002B013C0160937102709372028093730252
:1020C0009093740280916D028823C1F1809169021E
:1020D00090916A02A0916B02B0916C02A3019201EF
:1020E000281B390B4A0B5B0BDA01C9018838934175
:1020F000A105B10508F45EC1109268021092670252
:1021000061E08DE00E94C102F092660210926D02C1
:102110004092690250926A0260926B0270926C0265
:1021200066EA71E0CE0101960E943D0ACE01019659
:102130000E94BF05CE0101960E94380A8091660276
:102140000091670210916802F801EE0FFF1FE65D33
:10215000FD4F811164C0208131818091690290918D
:102160006A02A0916B02B0916C0240907102509093
:1021700072026090730270907402232B19F5A30110
:102180009201281B390B4A0B5B0BDA01C901883E0F
:102190009340A105B10508F40DC161E08DE00E94F6
:1021A000C102F09266020F5F1F4F10936802009306
:1021B00067024092690250926A0260926B027092CA
:1021C0006C02F8C0A3019201281B390B4A0B5B0B70
:1021D000DA01C901843F9140A105B10508F4EAC0C4
:1021E0000F5F1F4F109368020093670240926902CD
:1021F00050926A0260926B0270926C02000F111F83
:10220000F801E65DFD4F80819181892B09F4D2C0F0
:1022100061E08DE00E94C102F0926602CBC0808135
:10222000918181309105C9F5409071025090720200
:1022300060907302709074028091690290916A02BA
:10224000A0916B02B0916C02A3019201281B390B83
:102250004A0B5B0BDA01C901843F9140A105B1052E
:1022600008F4A8C060E08DE00E94C10210926602EE
:102270004092690250926A0260926B0270926C0204
:10228000000F111FF801E45DFD4F808191810397DC
:1022900009F090C067EB71E03BC0029709F08AC07B
:1022A00040907102509072026090730270907402BC
:1022B0008091690290916A02A0916B02B0916C02C8
:1022C000A3019201281B390B4A0B5B0BDA01C901F0
:1022D0008C3D9540A105B10508F46CC060E08DE02F
:1022E0000E94C102109266024092690250926A02F4
:1022F00060926B0270926C02000F111FF801E45D96
:10230000FD4F80819181039709F054C060EC71E02A
:102310008CEC92E00E94FC0AF0926D024BC02D30D2
:10232000310508F087C08EEB93E00E941D0289837F
:102330001A820091BC031091BD030F5F1F4FB801BB
:1023400088EB93E00E94C509882399F02091B80397
:102350003091B9038091BC039091BD03BE016F5FC2
:102360007F4F820F931F0E9461151093BD0300934E
:10237000BC031A8219821C821B821E821D8268EB9A
:1023800073E0CE0101960E94170A6AEC71E0CE015B
:1023900007960E943D0ABE016F5F7F4FCE010796F0
:1023A0000E949905CE0107960E94380ACE01019637
:1023B0000E94380A8EEB93E00E9405022091BC0334
:1023C0003091BD03181619060CF4A9CF33C08091C3
:1023D0006E02811102C00E94280880E00E942D0335
:1023E0008C0160E671E0CE0101960E943D0AB801C1
:1023F000CE0101960E94AF05CE0101960E94380AD7
:1024000020917502309176022C5E3F4F20173107E4
:10241000A4F443CE80916E0281110FC00E9428085F
:102420001092700210926F0260E080E090E00E94D3
:102430007015FFCF2D30310569F00E946901C9CCBC
:102440001092700210926F0260E080E090E00E94B3
:102450007015ABC968ED71E0CE0101960E943D0A8E
:10246000CE0101960E94BF05CE0101960E94380A56
:102470001A8219821C821B821E821D8268EB73E005
:10248000CE0101960E94170ACE0101960E94BF0557
:10249000CE0101960E94380A8091BC039091BD0341
:1024A000892BD1F069EE71E08091B8039091B90366
:1024B0000E945815892B81F467EF71E0CE010196D7
:1024C0000E943D0ACE0101960E94BF05CE010196F1
:1024D0000E94380A11E001C010E08EEB93E00E94E8
:1024E000B40460ED77E080E090E00E94440340E8AF
:1024F00055E260E070E08EEB93E00E94CA0440E099
:1025000050E06FE471E088EB93E00E94EC09C2CDEB
:10251000CF93DF9382EB93E00E94380A88EB93E03D
:102520000E94380AC2E3D1E0D093BF03C093BE0338
:102530008EEB93E00E94B404D093DE03C093DD03DE
:102540008DED93E0DF91CF910C94B404ECECF2E0CC
:102550001382128288EE93E0A0E0B0E0848395833A
:10256000A683B7838AE091E09183808385EC90E035
:102570009587848784EC90E09787868780EC90E04D
:10258000918B808B81EC90E0938B828B82EC90E03E
:10259000958B848B86EC90E0978B868B118E128EB8
:1025A000138E148EE9E6F3E01682178210861186E8
:1025B000128613861486158616861786108A118A47
:1025C000128A138A148A158A20E043E062E08DEDB6
:1025D00093E00E94D40320E046E065E08EEB93E0B8
:1025E0000E94D4036FE471E088EB93E00E943D0AFF
:1025F0006FE471E082EB93E00E943D0A40E052EC10
:1026000061E070E08DED93E00C94CA0497FB072E17
:1026100016F4009407D077FD09D00E943F1307FC01
:1026200005D03EF4909581959F4F089570956195E2
:102630007F4F0895052E97FB1EF400940E943113DE
:1026400057FD07D00E947E1507FC03D04EF40C9472
:10265000311350954095309521953F4F4F4F5F4F27
:10266000089590958095709561957F4F8F4F9F4FFE
:102670000895EE0FFF1F0590F491E02D0994AA1B19
:10268000BB1B51E107C0AA1FBB1FA617B70710F05D
:10269000A61BB70B881F991F5A95A9F7809590958F
:1026A000BC01CD010895CF93DF938230910510F4E2
:1026B00082E090E0E091FE03F091FF0320E030E043
:1026C000C0E0D0E0309711F140815181481759079F
:1026D000C0F04817590761F482819381209719F05F
:1026E0009B838A832BC09093FF038093FE0326C0B5
:1026F0002115310519F04217530718F49A01BE014C
:10270000DF01EF010280F381E02DDCCF21153105DF
:1027100009F1281B390B2430310590F412968D9164
:102720009C9113976115710521F0FB0193838283BE
:1027300004C09093FF038093FE03FD01329644C0D2
:10274000FD01E20FF31F81939193225031092D93E4
:102750003C933AC02091FC033091FD03232B41F4BC
:1027600020910201309103013093FD032093FC037B
:1027700020910001309101012115310541F42DB75F
:102780003EB74091040150910501241B350BE091A7
:10279000FC03F091FD03E217F307A0F42E1B3F0B9F
:1027A0002817390778F0AC014E5F5F4F24173507C3
:1027B00048F04E0F5F1F5093FD034093FC0381933D
:1027C000919302C0E0E0F0E0CF01DF91CF91089556
:1027D0000F931F93CF93DF93009709F48CC0FC01F4
:1027E0003297138212820091FE031091FF030115AC
:1027F000110581F420813181820F931F2091FC0308
:102800003091FD032817390779F5F093FD03E09324
:10281000FC0371C0D80140E050E0AE17BF0750F490
:1028200012962D913C911397AD012115310509F1B7
:10283000D901F3CF9D01DA01338322836081718155
:10284000860F971F8217930769F4EC01288139815D
:10285000260F371F2E5F3F4F318320838A819B8154
:1028600093838283452B29F4F093FF03E093FE03C7
:1028700042C01396FC93EE931297ED014991599142
:102880009E01240F351FE217F30771F480819181B7
:10289000840F951F029611969C938E93828193814B
:1028A00013969C938E931297E0E0F0E0D801129675
:1028B0008D919C911397009719F0F8018C01F6CF38
:1028C0008D919C9198012E5F3F4F820F931F209115
:1028D000FC033091FD032817390769F4309729F478
:1028E0001092FF031092FE0302C013821282109313
:1028F000FD030093FC03DF91CF911F910F91089589
:10290000A0E0B0E0E6E8F4E10C94A415EC01009737
:1029100021F4CB010E945313B8C0FC01E60FF71F4E
:102920009C0122503109E217F30708F4ACC0D90129
:102930000D911C91119706171707B0F0053011057E
:1029400008F49FC0C80104978617970708F499C038
:1029500002501109061B170B019311936D937C9381
:10296000CF010E94E8138DC05B01A01AB10A4C018F
:10297000800E911EA091FE03B091FF0340E050E055
:10298000E12CF12C109709F44AC0A815B905D1F52E
:102990006D907C901197630182E0C80ED11CCA141F
:1029A000DB0480F1A3014A195B096A0182E0C80EC9
:1029B000D11C1296BC9012971396AC91B5E0CB1631
:1029C000D10440F0B282A38351834083D9016D9337
:1029D0007C930AC00E5F1F4FC301800F911FF90146
:1029E00091838083EB2DFA2FE114F10431F0D701AC
:1029F0001396FC93EE93129744C0F093FF03E09379
:102A0000FE033FC08D919C9111974817590708F418
:102A1000AC017D0112960D90BC91A02DB3CF809199
:102A2000FC039091FD0388159905E1F446175707BB
:102A3000C8F48091000190910101009741F48DB795
:102A40009EB74091040150910501841B950BE81736
:102A5000F907C8F4F093FD03E093FC03F9017183D7
:102A600060830FC0CB010E9453137C01009759F083
:102A7000A801BE010E944F15CE010E94E813C701B4
:102A800004C0CE0102C080E090E0CDB7DEB7EEE03A
:102A90000C94C01581E090E0F8940C94D715FB01DC
:102AA000DC0102C001900D9241505040D8F70895CA
:102AB000FB01DC018D91019080190110D9F3990B74
:102AC0000895FB01DC0101900D920020E1F70895CB
:102AD000F999FECF92BD81BDF89A992780B50895E6
:102AE000262FF999FECF1FBA92BD81BD20BD0FB62A
:102AF000F894FA9AF99A0FBE01960895A1E21A2E57
:102B0000AA1BBB1BFD010DC0AA1FBB1FEE1FFF1F91
:102B1000A217B307E407F50720F0A21BB30BE40BE1
:102B2000F50B661F771F881F991F1A9469F7609528
:102B30007095809590959B01AC01BD01CF010895E2
:102B40002F923F924F925F926F927F928F929F92BD
:102B5000AF92BF92CF92DF92EF92FF920F931F93AB
:102B6000CF93DF93CDB7DEB7CA1BDB0B0FB6F8945C
:102B7000DEBF0FBECDBF09942A88398848885F849C
:102B80006E847D848C849B84AA84B984C884DF800D
:102B9000EE80FD800C811B81AA81B981CE0FD11DF1
:102BA0000FB6F894DEBF0FBECDBFED01089510E063
:102BB000CCE7D0E004C0FE010E9439132196CD3746
:082BC000D107C9F7F894FFCF1B
:102BC8000000000480000000000000015B08C9004C
:102BD800A700BB004701000000003E025B083E0260
:102BE8003E023E023E02000000003E025B0800007A
:102BF8000000B1015B0805021D029801B001564DA5
:102C08004450565F317C315F564D4450560D0A0092
:102C180053746174653A2000416D6269656E742071
:102C280054656D70657261747572653A0020202074
:102C3800202070757A7A6C6520626F7821202020B8
:102C48002020006368616E00564D4450455F003A8D
:102C5800323A007C005F564D44504500507265730F
:102C6800737572653A0072657374617274696E6720
:102C7800206D6F72736500686572655F646F7400BC
:102C8800686572655F646173680052464944206DE7
:102C98006573736167653A005F5F5F46494E414CF3
:102CA8005F434152445F5F5F00023030303036414D
:102CB800323633443731006D61746368696E67205A
:102CC8006361726400706F73206F6620656E643A8A
:102CD80020004D6F72736520636F64653A002E00A3
:0A2CE8002D00454E440045525200F5
:00000001FF
