:100000000C947D000C94A5000C94A5000C94A70002
:100010000C94A7000C94A7000C94A5000C94A500C8
:100020000C94A5000C94A5000C94A5000C945F0DF5
:100030000C94A5000C94A5000C94A5000C94A500AC
:100040000C94150D0C94A5000C94BA070C9494070D
:100050000C94A5000C94A5000C94A5000C94A5008C
:100060000C94A5000C94A5003905410549055105DE
:100070005905610577057F058E05A805B705BF05FC
:10008000C705D605DE05E605F505040613062906AF
:100090003C064B06530674068A06A70600000000BD
:1000A00023002600290004040404040404040202BA
:1000B00002020202030303030303010204081020E7
:1000C00040800102040810200102040810200000F2
:1000D0000008000201000003040700000000000007
:1000E000000000000000240027002A00000000009B
:1000F000250028002B000D15F31411241FBECFEF8F
:10010000D8E0DEBFCDBF11E0A0E0B1E0EAE2F1E36C
:1001100002C005900D92A43FB107D9F723E0A4EFE8
:10012000B1E001C01D92A73FB207E1F710E0CCE7B4
:10013000D0E004C02197FE010E94BA15CB37D10749
:10014000C9F70E94320F0C9488180C9400001F927B
:100150000F920FB60F9211242F933F934F935F93FB
:100160006F937F938F939F93AF93BF93EF93FF937F
:10017000E091E703F091E803309709F451C0968DC0
:10018000A685B785858591FF04C09C91892329F4B4
:1001900047C09C91892309F043C0A389B4899C91ED
:1001A0008589809589238C93868997890197F1F7B2
:1001B000608D718DA685B785558538E020E0CB012F
:1001C0000197F1F7822F90E095958795282F4C9114
:1001D000452309F02068315091F7868D81FD2095E7
:1001E0008091E50390E001968F7399273091E603A3
:1001F000381749F0A091E503B0E0AB55BC4F2C9304
:100200008093E50303C0868D8160868F828D938DF8
:100210000197F1F7A389B4899C918589892B8C93E7
:10022000FF91EF91BF91AF919F918F917F916F91CE
:100230005F914F913F912F910F900FBE0F901F90A4
:100240001895E091E703F091E803E817F90769F4DE
:10025000A389B4899C918589809589238C93109278
:10026000E8031092E70381E0089580E00895BF92CB
:10027000CF92DF92EF92FF920F931F93CF93DF9372
:10028000D82FC62F8AE0D82EDD0E96EFC92ECD0EC0
:10029000262F4D2D8C2D0E9448080AE00C0F26EFCA
:1002A000B22EBC0E202F4D2F6B2D8D2F0E94480893
:1002B00015E01D0F35E0F32EFC0E202F412F6F2D82
:1002C0008D2F0E9448084BEFE42EED0E202F4E2D6F
:1002D0006F2D8D2F0E9448080BEF0C0F2B2D412FF7
:1002E000602F8D2F0E9448082B2D4E2D602F8D2FB3
:1002F0000E9448082F2D4C2D6C2F8E2D0E944808EF
:10030000202F4C2D6C2F8E2D0E9448082F2D4D2D07
:100310006C2F812F0E944808202F4D2D6C2F812F8C
:10032000DF91CF911F910F91FF90EF90DF90CF90D1
:10033000BF900C944808882361F062E471E086E87D
:1003400093E00E94920A64E670E080E090E00E94F0
:10035000CF0C2AE34EE56CE182E20E94BB0845E047
:1003600069E280E40E94F70844E069E280E40E94C8
:10037000F70823E345E469E28BE30E94840823E362
:1003800045E469E28BE30E94BB0829E240E46EE2A7
:1003900080E40E94480864E670E080E090E00E94FB
:1003A000CF0C22E344E46AE28CE30E94840829E251
:1003B00041E46EE280E40E94480864E670E080E078
:1003C00090E00E94CF0C22E344E46AE28CE30E94B6
:1003D000840829E242E46EE280E40E94480864E670
:1003E00070E080E090E00E94CF0C22E344E46AE2F7
:1003F0008CE30E94840829E243E46EE280E40E94D8
:10040000480864E670E080E090E00E94CF0C22E3B0
:1004100044E46AE28CE30E94840829E244E46EE248
:1004200080E40E94480864E670E080E090E00E946A
:10043000CF0C22E344E46AE28CE30E94840829E2C0
:1004400045E46EE280E40E94480864E670E080E0E3
:1004500090E00E94CF0C22E344E46AE28CE30E9425
:1004600084082AE245E46EE280E40E94480864E6DB
:1004700070E080E090E00E94CF0C22E344E46AE266
:100480008CE30E9484082BE245E46EE280E40E9443
:10049000480864E670E080E090E00E94CF0C22E320
:1004A00044E46AE28CE30E9484082CE245E46EE2B4
:1004B00080E40E94480864E670E080E090E00E94DA
:1004C000CF0C22E344E46AE28CE30E9484082DE22C
:1004D00045E46EE280E40E94480864E670E080E053
:1004E00090E00E94CF0C22E344E46AE28CE30E9495
:1004F00084082EE245E46EE280E40E94480864E647
:1005000070E080E090E00E94CF0C22E344E46AE2D5
:100510008CE30E9484082FE245E46EE280E40E94AE
:10052000480864E670E080E090E00E94CF0C22E38F
:1005300044E46AE28CE30E94840820E345E46EE22E
:1005400080E40E94480864E670E080E090E00E9449
:10055000CF0C22E344E46AE28CE30E94840821E3A6
:1005600045E46EE280E40E94480864E670E080E0C2
:1005700090E00E94CF0C22E344E46AE28CE30E9404
:10058000840822E345E46EE280E40E94480864E6C1
:1005900070E080E090E00E94CF0C22E344E46AE245
:1005A0008CE30E94840823E345E46EE280E40E9429
:1005B000480864E670E080E090E00E94CF0C22E3FF
:1005C00044E46AE28CE30E94840823E344E46EE29C
:1005D00080E40E94480864E670E080E090E00E94B9
:1005E000CF0C22E344E46AE28CE30E94840823E314
:1005F00043E46EE280E40E94480864E670E080E034
:1006000090E00E94CF0C22E344E46AE28CE30E9473
:10061000840823E342E46EE280E40E94480864E632
:1006200070E080E090E00E94CF0C22E344E46AE2B4
:100630008CE30E94840823E341E46EE280E40E949C
:10064000480864E670E080E090E00E94CF0C22E36E
:1006500044E46AE28CE30E94840823E340E46EE20F
:1006600080E40E94480864E670E080E090E00E9428
:10067000CF0C22E344E46AE28CE30E94840823E383
:100680004FE36EE280E40E94480864E670E080E098
:1006900090E00E94CF0C22E344E46AE28CE30E94E3
:1006A000840823E34EE36EE280E40E94480864E697
:1006B00070E080E090E00E94CF0C22E344E46AE224
:1006C0008CE30E94840823E34DE36EE280E40E9401
:1006D000480864E670E080E090E00E94CF0C22E3DE
:1006E00044E46AE28CE30E94840823E34CE36EE274
:1006F00080E40E94480864E670E080E090E00E9498
:10070000CF0C22E344E46AE28CE30E94840823E3F2
:100710004BE36EE280E40E94480864E670E080E00B
:1007200090E00E94CF0C22E344E46AE28CE30E9452
:10073000840822E34BE36EE280E40E94480864E60A
:1007400070E080E090E00E94CF0C21E34BE36EE28A
:1007500080E40E94480820E34BE36EE280E40E94BC
:10076000480864E670E080E090E00E94CF0C22E34D
:1007700044E46AE28CE30E9484082FE24BE36EE2D9
:1007800080E40E94480864E670E080E090E00E9407
:10079000CF0C22E344E46AE28CE30E9484082EE258
:1007A0004BE36EE280E40E94480864E670E080E07B
:1007B00090E00E94CF0C22E344E46AE28CE30E94C2
:1007C00084082DE24BE36EE280E40E94480864E670
:1007D00070E080E090E00E94CF0C22E344E46AE203
:1007E0008CE30E9484082CE24BE36EE280E40E94DA
:1007F000480864E670E080E090E00E94CF0C22E3BD
:1008000044E46AE28CE30E9484082BE24BE36EE24C
:1008100080E40E94480864E670E080E090E00E9476
:10082000CF0C22E344E46AE28CE30E9484082AE2CB
:100830004BE36EE280E40E94480864E670E080E0EA
:1008400090E00E94CF0C22E344E46AE28CE30E9431
:10085000840829E24BE36EE280E40E94480864E6E3
:1008600070E080E090E00E94CF0C22E344E46AE272
:100870008CE30E94840829E24BE36EE280E40E944C
:10088000480864E670E080E090E00E94CF0C22E32C
:1008900044E46AE28CE30E94840829E24CE36EE2BD
:1008A00080E40E94480864E670E080E090E00E94E6
:1008B000CF0C22E344E46AE28CE30E94840829E23C
:1008C0004DE36EE280E40E94480864E670E080E058
:1008D00090E00E94CF0C22E344E46AE28CE30E94A1
:1008E000840829E24EE36EE280E40E94480864E650
:1008F00070E080E090E00E94CF0C22E344E46AE2E2
:100900008CE30E94840829E24FE36EE280E40E94B7
:10091000480864E670E080E090E00E94CF0C22E39B
:1009200044E46AE28CE30E94840829E240E46EE237
:1009300080E40C9448080F931F93CF93DF93EB014F
:100940008A010E943F0866E571E083E592E00E941B
:10095000920AAE01DD0F660B770B83E592E00E94F1
:10096000320A62E671E083E592E00E94920AC801D1
:10097000DF91CF911F910F910C94680ACF93DF9371
:10098000EB010E943F0866E571E083E592E00E947A
:10099000920ACE01DF91CF910C94680A0E943F0821
:1009A00064E971E083E592E00C94D409CF92DF9280
:1009B000EF92FF920F931F93CF93DF9300D000D05D
:1009C00000D0CDB7DEB723E08136920709F1FC01F4
:1009D000608171816115710539F04481558181E62D
:1009E00093E00E947A0914C08091610390916203A0
:1009F000009711F00E946916109262031092610331
:100A000010926603109265031092640310926303C0
:100A10001092320210923102A0916103B0916203F0
:100A2000009165031091660360E070E042E050E0E1
:100A300021E030E06017710709F4B5C1109709F49F
:100A4000AFC1FD01E60FF71FE081CE2EEE0FDD08EE
:100A5000EE08FF08F601E156F109EA31F10508F068
:100A60009FC1EC5CFF4F80913102909132020C9457
:100A7000BA15FC01EE0FFF1FEC50FE4F31832083AF
:100A80008DC0FC01EE0FFF1FEC50FE4F51834083E1
:100A90003DC0FC01EE0FFF1FEC50FE4F5183408321
:100AA00017C0FC01EE0FFF1FEC50FE4F5183408337
:100AB000C1C0FC01EE0FFF1FEC50FE4F31832083BD
:100AC000CFC0FC01EE0FFF1FEC50FE4F318320839F
:100AD000FC01EE0FFF1FEA50FE4F31832083FC0123
:100AE000EE0FFF1FE850FE4F5183408345C1FC01CC
:100AF000EE0FFF1FEC50FE4F518340838CC0FC0172
:100B0000EE0FFF1FEC50FE4F31832083FC01EE0FF0
:100B1000FF1FEA50FE4F3183208327C1FC01EE0FF7
:100B2000FF1FEC50FE4F31832083FC01EE0FFF1FAF
:100B3000EA50FE4F31832083FC013396F09332025A
:100B4000E0933102880F991FFC01E850FE4F26C147
:100B5000FC01EE0FFF1FEC50FE4F31832083FC01A0
:100B6000EE0FFF1FEA50FE4F51834083E1C0FC01AE
:100B7000EE0FFF1FEC50FE4F5183408384C0FC01F9
:100B8000EE0FFF1FEC50FE4F31832083E7C0FC01C6
:100B9000EE0FFF1FEC50FE4F51834083FC01EE0F20
:100BA000FF1FEA50FE4F51834083C6CFFC01EE0F7A
:100BB000FF1FEC50FE4F51834083B7CFFC01EE0F77
:100BC000FF1FEC50FE4F5183408374C0FC01EE0FB9
:100BD000FF1FEC50FE4F31832083FC01EE0FFF1FFF
:100BE000EA50FE4F518340837ACFFC01EE0FFF1F86
:100BF000EC50FE4F51834083FC01EE0FFF1FEA5083
:100C0000FE4F518340837EC0FC01EE0FFF1FEC506E
:100C1000FE4F31832083FC01EE0FFF1FEA50FE4F91
:100C2000518340830EC0FC01EE0FFF1FEC50FE4FBE
:100C300031832083FC01EE0FFF1FEA50FE4F31830A
:100C40002083FC01EE0FFF1FE850FE4F318320830D
:100C50003FC0FC01EE0FFF1FEC50FE4F518340835D
:100C6000FC013296F0933202E0933102880F991F13
:100C7000FC01EA50FE4F92C0FC01EE0FFF1FEC504A
:100C8000FE4F31832083FC01EE0FFF1FEA50FE4F21
:100C90003183208316C0FC01EE0FFF1FEC50FE4F86
:100CA0003183208328C0FC01EE0FFF1FEC50FE4F64
:100CB00031832083FC01EE0FFF1FEA50FE4F51836A
:100CC0004083FC01EE0FFF1FE850FE4F518340832D
:100CD000FC013496F0933202E0933102880F991FA1
:100CE000FC01E650FE4F5AC0FC01EE0FFF1FEC5016
:100CF000FE4F51834083FC01EE0FFF1FEA50FE4F71
:100D000031832083FC01EE0FFF1FE850FE4F31833B
:100D1000208315C0FC01EE0FFF1FEC50FE4F5183E6
:100D20004083FC01EE0FFF1FEA50FE4F318320830A
:100D3000FC01EE0FFF1FE850FE4F51834083FC0182
:100D4000EE0FFF1FE650FE4F518340831CC0FC0195
:100D5000EE0FFF1FEC50FE4F51834083FC01EE0F5E
:100D6000FF1FEA50FE4F51834083FC01EE0FFF1F2F
:100D7000E850FE4F31832083FC01EE0FFF1FE65049
:100D8000FE4F31832083FC013596F0933202E093CD
:100D90003102880F991FFC01E450FE4F118210822E
:100DA0006F5F7F4F47CE68E571E083E592E00E9478
:100DB000920A80913102909132020E94680AE09179
:100DC0003102F0913202EE0FFF1FEE50FE4F83E032
:100DD00090E091838083109232021092310265E696
:100DE00071E0CE0101960E94BF09CE0101960E94DA
:100DF000CE04CE0101960E94BA0994EFE92E91E04B
:100E0000F92E00E010E025E0D22E2091650330910C
:100E10006603D29EC001D39E900D1124019608173F
:100E2000190718F5F701819191917F0181309105A2
:100E300019F461E771E012C08230910519F463E79B
:100E400071E00CC0009719F466E571E007C00397E4
:100E500019F465E771E002C069E771E083E592E0AB
:100E60000E94920A0F5F1F4FD0CF0E94090D60931E
:100E7000330270933402809335029093360261E01E
:100E80008DE00E944C0C81E080933002109237027A
:100E900026960FB6F894DEBF0FBECDBFDF91CF917F
:100EA0001F910F91FF90EF90DF90CF900895CF9317
:100EB000DF936DE771E083E592E00E94920A8091F2
:100EC000390290913A020E94680AC0913902D09189
:100ED0003A020E943509AE01DD0F660B770B86E8FA
:100EE00093E00E94320A81E080933802DF91CF9133
:100EF00008956091390270913A026F5F7F4F70934D
:100F00003A026093390280E090E00E94E817109264
:100F10003802089583E592E00E94B60A21E0892B09
:100F200009F420E0822F08951F920F920FB60F92BE
:100F300011242F933F934F935F936F937F938F93DE
:100F40009F93AF93BF93EF93FF9383E592E00E944B
:100F5000990BFF91EF91BF91AF919F918F917F91ED
:100F60006F915F914F913F912F910F900FBE0F9016
:100F70001F9018951F920F920FB60F9211242F9366
:100F80008F939F93EF93FF93E0916302F09164023C
:100F90008081E0916902F0916A0282FD12C0908125
:100FA00080916C028F5F8F7320916D02821751F0D8
:100FB000E0916C02F0E0ED5AFD4F958F80936C024A
:100FC00001C08081FF91EF919F918F912F910F90A0
:100FD0000FBE0F901F901895CF92DF92EF92FF9265
:100FE0000F931F93CF93DF936C017A018B01C0E0C5
:100FF000D0E0CE15DF0589F0D8016D918D01D601C5
:10100000ED91FC910190F081E02DC6010995892BAD
:1010100011F47E0102C02196ECCFC701DF91CF9180
:101020001F910F91FF90EF90DF90CF900895E3E52F
:10103000F2E0A089B18982E08C93A485B5851C92E9
:10104000A685B7858FEC8C93108EA489B58986E030
:101050008C93A289B3898C9180618C93A289B38986
:101060008C9188608C93A289B3898C9180688C93D1
:101070000288F389E02D80818F7D80830895FC01B3
:10108000448155816081718183E592E00C94EC0785
:101090000F931F93CF93DF9300D0CDB7DEB7182FF8
:1010A000062F6CE786E893E02A8349830E940A0BA7
:1010B0006CE086E893E00E940A0B612F86E893E0DB
:1010C0000E940A0B602F86E893E00E940A0B498178
:1010D000642F86E893E00E940A0B2A81622F86E83B
:1010E00093E00E940A0B61E086E893E00E940A0BFD
:1010F0006AE070E080E090E00F900F90DF91CF9178
:101100001F910F910C94CF0C0F931F93CF93DF93EC
:1011100000D0CDB7DEB7182F062F6CE786E893E036
:101120002A8349830E940A0B65E086E893E00E94C7
:101130000A0B612F86E893E00E940A0B602F86E875
:1011400093E00E940A0B4981642F86E893E00E9495
:101150000A0B2A81622F86E893E00E940A0B6AE05C
:1011600070E080E090E00F900F90DF91CF911F91A1
:101170000F910C94CF0C0F931F93CF93DF9300D05C
:10118000CDB7DEB7182F062F6CE786E893E02A83E9
:1011900049830E940A0B6FE086E893E00E940A0BE5
:1011A000612F86E893E00E940A0B602F86E893E0A7
:1011B0000E940A0B4981642F86E893E00E940A0B83
:1011C0002A81622F86E893E00E940A0B61E086E89C
:1011D00093E00E940A0B6AE070E080E090E00F90DC
:1011E0000F90DF91CF911F910F910C94CF0C0F9323
:1011F0001F93CF93DF931F92CDB7DEB7182F062F23
:101200006CE786E893E049830E940A0B63E086E876
:1012100093E00E940A0B612F86E893E00E940A0B7C
:10122000602F86E893E00E940A0B4981642F86E8CC
:1012300093E00E940A0B61E086E893E00E940A0BAB
:101240006AE070E080E090E00F90DF91CF911F9115
:101250000F910C94CF0C6CE786E893E00E940A0B88
:1012600060E086E893E00C940A0B6CE786E893E074
:101270000E940A0B68E186E893E00E940A0B60E096
:1012800086E893E00E940A0B6CE786E893E00E94F0
:101290000A0B69E186E893E00E940A0B60E086E8A9
:1012A00093E00C940A0B8F929F92AF92BF92CF92D1
:1012B000DF92EF92FF926B017C010E94090D4B01BE
:1012C0005C01C60ED71EE81EF91E0E94090D6815A6
:1012D00079058A059B0528F0C616D706E806F906A3
:1012E000A0F7FF90EF90DF90CF90BF90AF909F90CE
:1012F0008F900895EF92FF920F931F93CF93DF93F8
:10130000EC017B018A0188819981009729F02A816B
:101310003B8124173507F8F4B8016F5F7F4F0E94B7
:101320000117009759F0998388831B830A832C81C6
:101330003D81232B81F4FC0110820DC088819981AD
:10134000009711F00E946916198218821D821C8272
:101350001B821A8207C01D830C83B7018881998183
:101360000E94D917CE01DF91CF911F910F91FF906D
:10137000EF900895FC01808191810C946916FC0125
:1013800011821082138212821582148261157105F6
:1013900051F0FB0101900020E9F73197AF01461BA6
:1013A000570B0C947A0908956115710579F0FB01CA
:1013B00001900020E9F73197AF01461B570BDC0184
:1013C000ED91FC910280F381E02D099480E090E0A2
:1013D00008954F925F926F927F92EF92FF920F93D8
:1013E0001F93CF93DF93CDB7DEB7A1970FB6F894D5
:1013F000DEBF0FBECDBF7C01FA01CB0119A22230A6
:1014000008F42AE08E010F5D1F4F422E512C612CF3
:10141000712CBF01A30192010E94F617F901CA01C4
:10142000015011096A3014F4605D01C0695CD80193
:101430006C93232B242B252B61F7B801C7010E9445
:10144000D409A1960FB6F894DEBF0FBECDBFDF91D1
:10145000CF911F910F91FF90EF907F906F905F90D1
:101460004F900895CF92DF92EF92FF920F931F93C8
:10147000CF93DF9377FF21C06A017B01EC01E88104
:10148000F9810190F081E02D6DE209958C014427EE
:101490005527BA014C195D096E097F092AE0CE0172
:1014A0000E94E909800F911FDF91CF911F910F9149
:1014B000FF90EF90DF90CF9008952AE0DF91CF91D9
:1014C0001F910F91FF90EF90DF90CF900C94E9095E
:1014D000CF93DF93AC01990F660B770B83E592E016
:1014E0000E94320AEC0164E971E083E592E00E9417
:1014F000D4098C0F9D1FDF91CF9108950F931F93F7
:10150000CF93DF93EC010E94D4098C0164E971E070
:10151000CE010E94D409800F911FDF91CF911F91BE
:101520000F9108950C94D409FC01918D828D981728
:1015300061F0828DDF01A80FB11D5D968C91928DB7
:101540009F5F9F73928F90E008958FEF9FEF0895B4
:10155000FC01918D828D981731F0828DE80FF11D7D
:10156000858D90E008958FEF9FEF0895FC01918D98
:10157000228D892F90E0805C9F4F821B91098F7391
:101580009927089580E090E0892B29F00E948A072E
:1015900081110C94000008953FB7F8948091EF03F7
:1015A0009091F003A091F103B091F20326B5A89BAE
:1015B00005C02F3F19F00196A11DB11D3FBFBA2FE5
:1015C000A92F982F8827820F911DA11DB11DBC0145
:1015D000CD0142E0660F771F881F991F4A95D1F70A
:1015E00008952091E7033091E8032817390771F433
:1015F0009091E6038091E503981741F0E091E603AE
:10160000F0E0EB55FC4F808190E008958FEF9FEF65
:10161000089508951F93CF93DF93DC015C962D917D
:101620003C915D972115310539F481E090E01396E6
:101630009C938E9312973DC05196ED91FC915297D9
:1016400050969C915097892F80951FB75E964C912C
:101650005E9741FB772770F941FD6095F8944081D2
:10166000772311F0492B01C048234083E9012197DA
:10167000F1F748E0508160FF02C0592B01C05823A8
:101680005083E9012197F1F76695415099F7772347
:1016900021F090818923808303C08081982B9083DF
:1016A0001FBF5C968D919C915D970197F1F721E0AA
:1016B00030E0C901DF91CF911F9108952091E70398
:1016C0003091E8032817390771F48091E5032091E0
:1016D000E60390E0805C9F4F821B910960E470E01C
:1016E0000E94A615089580E090E008952091E703F8
:1016F0003091E80328173907B9F49091E6038091F7
:10170000E503981789F0E091E603F0E0EB55FC4F14
:1017100080812091E60330E02F5F3F4F2F73332706
:101720002093E60390E008958FEF9FEF08950E94C5
:10173000CB17FC01848DDF01A80FB11DA35ABF4F49
:101740002C91848D90E001968F739927848FA689C0
:10175000B7892C93A089B1898C9180648C93938DE7
:10176000848D981306C00288F389E02D80818F7DD7
:1017700080830895EF92FF920F931F93CF93DF938F
:10178000EC0181E0888F9B8D8C8D981305C0E889D2
:10179000F989808185FD24C0F62E0B8D10E00F5F46
:1017A0001F4F0F731127E02E8C8DE8120CC00FB65F
:1017B00007FCFACFE889F989808185FFF5CFCE0152
:1017C0000E94990BF1CF8B8DFE01E80FF11DE35ABA
:1017D000FF4FF0820B8FEA89FB898081806207C00E
:1017E000EE89FF896083E889F9898081806480833C
:1017F00081E090E0DF91CF911F910F91FF90EF90EA
:101800000895CF93DF93EC01888D8823C9F0EA898E
:10181000FB89808185FD05C0A889B9898C9186FDE9
:101820000FC00FB607FCF5CF808185FFF2CFA889E6
:10183000B9898C9185FFEDCFCE010E94990BE7CF3E
:10184000DF91CF910895833081F028F4813099F0B1
:101850008230A1F008958730A9F08830B9F0843043
:10186000D1F4809180008F7D03C0809180008F77BC
:1018700080938000089584B58F7702C084B58F7DF2
:1018800084BD08958091B0008F7703C08091B0002F
:101890008F7D8093B00008951F93CF93DF93282FFF
:1018A00030E0F901E253FF4F8491F901E654FF4F14
:1018B000D491F901EA55FF4FC491CC23C9F0162FFA
:1018C00081110E94230CEC2FF0E0EE0FFF1FE4517A
:1018D000FF4FA591B4918FB7F894111105C09C9159
:1018E000ED2FE095E92302C0EC91ED2BEC938FBF37
:1018F000DF91CF911F910895CF93DF9390E0FC018A
:10190000E654FF4F2491FC01EA55FF4F8491882350
:1019100061F190E0880F991FFC01EE51FF4FC591D6
:10192000D491FC01E451FF4FA591B491611109C01C
:101930009FB7F8948881209582238883EC912E2389
:101940000BC0623061F49FB7F8943881822F809584
:1019500083238883EC912E2B2C939FBF06C08FB7D7
:10196000F894E8812E2B28838FBFDF91CF910895C3
:101970008E3008F08E508770806480937C00809158
:101980007A00806480937A0080917A0086FDFCCF93
:10199000809178002091790090E0922B08958F92A9
:1019A0009F92AF92BF92CF92DF92EF92FF926B0124
:1019B0007C010E94CC0A4B015C01C114D104E104FA
:1019C000F104F1F00E94CC0ADC01CB0188199909DD
:1019D000AA09BB09883E9340A105B10570F321E037
:1019E000C21AD108E108F10888EE880E83E0981E3B
:1019F000A11CB11CC114D104E104F10419F7DDCF1D
:101A0000FF90EF90DF90CF90BF90AF909F908F901E
:101A100008952FB7F8946091EB037091EC038091D7
:101A2000ED039091EE032FBF08951F920F920FB612
:101A30000F9211242F933F938F939F93AF93BF9354
:101A40008091EB039091EC03A091ED03B091EE0334
:101A50003091EA0323E0230F2D3720F40196A11DD6
:101A6000B11D05C026E8230F0296A11DB11D2093CC
:101A7000EA038093EB039093EC03A093ED03B09300
:101A8000EE038091EF039091F003A091F103B091E8
:101A9000F2030196A11DB11D8093EF039093F00313
:101AA000A093F103B093F203BF91AF919F918F91F7
:101AB0003F912F910F900FBE0F901F9018951F927E
:101AC0000F920FB60F9211242F933F934F935F9372
:101AD0006F937F938F939F93AF93BF93EF93FF93F6
:101AE0008091E90387FF05C0109285001092840061
:101AF0001BC02091E903022E000C330B80915C0384
:101B000090E02817390784F48091E903082E000C2F
:101B1000990BFC01EE0FFF1F8E0F9F1FFC01E85C6D
:101B2000FC4F808186FD15C08091E9038F5F809313
:101B3000E9032091E903022E000C330B80915C0332
:101B400090E028173907C4F48091E9038C3064F1E0
:101B500013C08091E903082E000C990BFC01EE0FD5
:101B6000FF1F8E0F9F1FFC01E85CFC4F808160E02F
:101B70008F730E944C0CD8CF809184009091850087
:101B8000049680349C4918F480E49CE905C0809157
:101B9000840090918500049690938900809388003A
:101BA0008FEF8093E9033BC0209184003091850042
:101BB0008091E903082E000C990BFC01EE0FFF1F2A
:101BC0008E0F9F1FFC01E85CFC4F81819281820F88
:101BD000931F90938900809388008091E903082ED9
:101BE000000C990BFC01EE0FFF1F8E0F9F1FFC01D5
:101BF000E85CFC4F808186FF12C08091E903082ECB
:101C0000000C990BFC01EE0FFF1F8E0F9F1FFC01B4
:101C1000E85CFC4F808161E08F730E944C0CFF9167
:101C2000EF91BF91AF919F918F917F916F915F9154
:101C30004F913F912F910F900FBE0F901F901895CD
:101C4000CF93DF93EC019A01AB011B8E1A8E198E94
:101C5000188E1F8A1E8A60E079E08DE390E00E9472
:101C60001818F9012430310518F0C901039702C092
:101C700081E090E09D8F8C8F6C85663108F069C0A3
:101C8000C901969587958431910510F0439702C05C
:101C900081E090E09F8B8E8B369718F0C9010597F5
:101CA00002C081E090E0998F888FC901880F991F49
:101CB000280F391F36952795369527952D303105F4
:101CC00018F02C50310902C021E030E03B8F2A8F00
:101CD00090916800683050F021E06E3008F420E008
:101CE00081E001C0880F2A95EAF701C084E0892BC2
:101CF000809368009C85983038F09E3040F0963193
:101D000048F020E030E008C02DE630E005C02BE6CA
:101D100030E002C02CE630E03C8B2B8B983030F466
:101D200081E001C0880F9A95EAF70EC0292F30E0B4
:101D30009E3018F42850310902C02E50310981E03C
:101D400001C0880F2A95EAF78D8B8C8D9D8D0197A8
:101D5000F1F78A8D9B8D892BE1F08091E7039091BB
:101D6000E8038C179D07A9F0009711F00E9421014C
:101D70008E8D8E7F8E8F1092E5031092E603D093A6
:101D8000E803C093E703EB89FC8990818D89892B57
:101D90008083DF91CF9108950F931F93CF93DF93AB
:101DA000EC01162F042F1B821A8288EE93E0A0E02C
:101DB000B0E08C839D83AE83BF8386E391E09983FB
:101DC00088831F8A1E8A198E188E1B8E1A8E1D8E6E
:101DD0001C8E6E8D6E7F20FB61F96E8F6695617033
:101DE00081E06827842F0E944C0C61E0802F0E94C4
:101DF0007C0C402F50E0FA01E654FF4FE491E88B51
:101E0000FA01EA55FF4FE491F0E0EE0FFF1FE451B5
:101E1000FF4F859194919A8B898B60E0812F0E946E
:101E20007C0C8E8D81FD04C061E0812F0E944C0CE2
:101E30001C87612F70E0FB01E654FF4FE491ED87B2
:101E4000FB01EA55FF4FE491F0E0EE0FFF1FE4566F
:101E5000FF4F859194919F878E87DF91CF911F913E
:101E60000F910895CF93DF93CDB7DEB72A970FB6C2
:101E7000F894DEBF0FBECDBF789484B5826084BD78
:101E800084B5816084BD85B5826085BD85B581607E
:101E900085BD80916E00816080936E0010928100FC
:101EA00080918100826080938100809181008160B7
:101EB0008093810080918000816080938000809178
:101EC000B10084608093B1008091B0008160809304
:101ED000B00080917A00846080937A0080917A00CB
:101EE000826080937A0080917A00816080937A008A
:101EF00080917A00806880937A001092C1001092DD
:101F00003403109235031092360310923703109267
:101F1000F2021092F3021092F4021092F50268EBB2
:101F20007BE080E090E00E94530983E592E090938B
:101F30003303809332030E9417080E94090D6093B7
:101F4000F2027093F3028093F4029093F50265E835
:101F500071E080913203909133030E94920A6AE00B
:101F600070E080E090E00E94530981E080930603D6
:101F70000E94170880E090E00E94E01790E09093A4
:101F80003A0280933902109238026DE771E083E5DE
:101F900092E00E94920A8091390290913A020E9446
:101FA000680A60E08CE00E947C0C64E670E080E0EF
:101FB00090E00E94CF0CEAEDF0E08491E6ECF0E0D6
:101FC000F490E2EBF0E01491112379F081110E947A
:101FD000230CE12FF0E0EE0FFF1FE456FF4FA59119
:101FE000B491EC91EF2109F0F4C461E08DE00E941E
:101FF0007C0C60E08DE00E944C0C61E08BE00E9464
:102000007C0C60E08BE00E944C0C0E94170840E8BA
:1020100055E260E070E087E693E00E94200E60EBFE
:1020200074E080E090E00E94CF0C0E9435090E948D
:102030002B0910923C0210923B020E94090D609302
:102040003D0270933E0280933F029093400274E6FB
:10205000C72ED12C812C912C540180E00E94B80C09
:10206000092E000CAA0BBB0B880E991EAA1EBB1EC4
:1020700021E0C21AD10889F7C501B40124E630E095
:1020800040E050E00E94F61730934A022093490244
:1020900067E971E0CE0101962F83388749875A8717
:1020A0000E94BF092F813885B901CE0101960E9497
:1020B000BE04CE0101960E94BA0981E00E949B01F4
:1020C0006CEA71E0CE0101960E94BF09CE01019633
:1020D0000E94D604CE0101960E94BA0944EF442E14
:1020E00055245394612C712C11E059ED852E50E04C
:1020F000952E62E0362E0E94090D672B682B692B06
:1021000041F40E94090D623071058105910508F4C2
:1021100005C10E94090D60934F0270935002809395
:1021200051029093520220914B0230914C02409107
:102130004D0250914E02621773078407950740F4D1
:1021400060934B0270934C0280934D0290934E0229
:10215000C0904B02D0904C02E0904D02F0904E02A5
:102160009B01AC012C193D094E095F0969017A01F7
:102170003AEFC316D104E104F10408F4CFC0609330
:102180004B0270934C0280934D0290934E0240920A
:10219000FE025092FF0260920003709201031092BF
:1021A000020310920303109204031092050380911E
:1021B000F6029091F702A091F802B091F902809393
:1021C000FA029093FB02A093FC02B093FD020E94DE
:1021D000090D6093F6027093F7028093F8029093D2
:1021E000F9020E94090D6093F2027093F30280934A
:1021F000F4029093F5020E94090D6B017C0161EBE2
:1022000071E080913203909133030E94920A2AE098
:1022100041E050E060E070E0809132039091330340
:102220000E94E90968EB71E08091320390913303D9
:102230000E94920A2AE0B701A60180913203909190
:1022400033030E94E9096AEB71E0809132039091B7
:1022500033030E94920A8091F6029091F702A091B6
:10226000F802B091F902B701A601481B590B6A0B9D
:102270007B0B2AE080913203909133030E94E9099D
:102280006AEB71E080913203909133030E94920ACD
:102290004091F6025091F7026091F8027091F902B4
:1022A0008091FA029091FB02A091FC02B091FD0294
:1022B000481B590B6A0B7B0B2AE0809132039091EB
:1022C00033030E94E9096CEB71E080913203909135
:1022D00033030E94920A0E94090DAB01BC012AE05F
:1022E00080913203909133030E94E9096EEB71E013
:1022F00080913203909133030E947E0A62E070E085
:1023000080E090E00E9453090E94090D6093F6025C
:102310007093F7028093F8029093F902809139024A
:1023200090913A028130910509F4C3C01CF4892BC5
:1023300049F04CC38230910509F450C2039709F467
:10234000C6C244C380913802811104C00E9457075D
:102350000E942B090E94090DAB01BC014093410270
:1023600050934202609343027093440280913D0275
:1023700090913E02A0913F02B09140026A017B0120
:10238000C81AD90AEA0AFB0A2EEEC21622E0D206C1
:10239000E104F10408F44CC080913B0290913C02AE
:1023A000019690933C0280933B0240933D025093F0
:1023B0003E0260933F02709340028230910501F12A
:1023C0005CF40097B1F0019799F54FE060E28EE17F
:1023D0000E94F7084FE028C084309105F9F0BCF066
:1023E000059731F50E942B0910923C0210923B0296
:1023F0001FC044E160E28EE10E94F70844E114C08E
:102400004AE060E28EE10E94F7084AE00DC045E034
:1024100060E28EE10E94F70845E006C041E060E21C
:102420008EE10E94F70841E060E28AE50E94F70829
:102430000E94090D6931710581059105B0F181E0B6
:102440000E94B80C5C0165EC71E0CE0101960E941F
:10245000BF09A50161E070E0CE0101960E949B04D6
:10246000CE0101960E94BA0901E036E0A316B1043C
:102470000CF000E082E00E94B80C5C0165EC71E0B9
:10248000CE0101960E94BF09A50162E070E0CE0175
:1024900001960E949B04CE0101960E94BA0946E073
:1024A000A416B10414F000E091C2002309F48EC216
:1024B0008BC280913802811102C00E9457070E948E
:1024C000090D6093450270934602809347029093F2
:1024D000480280913702882309F48FC061E08BE0C5
:1024E0000E947C0CF4018491833011F148F4813016
:1024F000D1F08230D1F594B5906294BD88BD39C0D9
:10250000873019F1883049F1843079F58091800065
:1025100080628093800022E0E22EF12CF0928B000A
:10252000E0928A0026C084B5806884BD37BC21C093
:102530008091800080688093800032E0C32ED12C8F
:10254000D0928900C092880014C08091B000806849
:102550008093B0003092B3000CC08091B0008062D4
:102560008093B0003092B40004C060E08BE00E9421
:102570004C0CC0904502D0904602E0904702F0908B
:1025800048028091330290913402A0913502B091BB
:102590003602A7019601281B390B4A0B5B0BDA01A7
:1025A000C90188389341A105B10508F40EC1109204
:1025B00032021092310260E08BE00E944C0C61E02C
:1025C0008DE00E944C0C1093300210923702C092A2
:1025D0003302D0923402E0923502F09236026FEC70
:1025E00071E0CE0101960E94BF09CE0101960E94C2
:1025F000CE04CE0101960E94BA0980913002A090CB
:102600003102B0903202F501EE0FFF1FEC50FE4F89
:1026100081115FC060817181C0904502D0904602F7
:10262000E0904702F090480280913302909134028A
:10263000A0913502B0913602A7019601281B390BF3
:102640004A0B5B0BDA01C901672BE1F4883E93402A
:10265000A105B10508F4B9C061E08DE00E944C0C01
:10266000109330024FEFA41AB40AB0923202A09233
:102670003102C0923302D0923402E0923502F092DD
:102680003602A3C0843F9140A105B10508F49DC066
:102690004FEFA41AB40AB0923202A0923102C09253
:1026A0003302D0923402E0923502F0923602C50134
:1026B000880F991FFC01EC50FE4F80819181892B7E
:1026C00009F483C061E08DE00E944C0C109330024D
:1026D0007CC08081918181309105C9F5C09045020F
:1026E000D0904602E0904702F09048028091330279
:1026F00090913402A0913502B0913602A701960163
:10270000281B390B4A0B5B0BDA01C901843F91404E
:10271000A105B10508F459C060E08DE00E944C0CA1
:1027200010923002C0923302D0923402E09235020D
:10273000F0923602F501EE0FFF1FEA50FE4F808146
:102740009181039709F041C060EE71E038C00297B3
:10275000E1F5C0904502D0904602E0904702F0902B
:1027600048028091330290913402A0913502B091D9
:102770003602A7019601281B390B4A0B5B0BDA01C5
:10278000C9018C3D9540A105B105F8F060E08DE0F0
:102790000E944C0C10923002C0923302D09234024C
:1027A000E0923502F0923602F501EE0FFF1FEA507B
:1027B000FE4F80819181039741F469EE71E083E5DA
:1027C00092E00E947E0A1093370287E693E00E940F
:1027D0005E0B181619060CF4F3C0F8C0809138028D
:1027E000811158C00E942B090E94570746E060E300
:1027F00080E40E94F7082DE043E46BE28DE30E9441
:10280000BB0845E060E380E40E94F70844E060E331
:1028100080E40E94F70843E060E380E40E94F70848
:1028200042E060E380E40E94F70841E060E380E476
:102830000E94F7082AE243E46AE28DE30E94480816
:1028400029E243E469E28DE30E94480828E243E478
:1028500068E28DE30E94480827E243E467E28DE3E3
:102860000E94480826E243E466E28DE30E9448089D
:1028700025E243E465E28DE30E9448086FE070E0E2
:1028800084E190E00E9437016DE270E084E690E020
:102890000E94370180E00E94B80C5C016FE971E092
:1028A000CE0101960E94BF09B501CE0101960E949A
:1028B000BE04CE0101960E94BA098091490290910E
:1028C0004A0244968A159B050CF080C07DC0809119
:1028D000380281117BC00E94570710923A02109271
:1028E000390260E080E090E00E94E81780915E038A
:1028F00008E810E0081B110987FD1395000F111F50
:10290000000F111F4801012E000CAA08BB0880917E
:102910005F0328E532E0281B310987FD3395220F3C
:10292000331F220F331FC901330FAA0BBB0B9C01AE
:10293000AD01281939094A095B09A4E1B0E00E94F8
:10294000371824EB30E040E050E00E941818820E67
:10295000931EA41EB51E80915D038C30B8F48016C2
:1029600091060CF4480142E0841A9108880C991CE5
:102970002FB7F89490E0FC01EE0FFF1F8E0F9F1F02
:10298000FC01E85CFC4F928281822FBF64EF71E012
:1029900080E090E00E94CF0CE0915D03F0E0CF0179
:1029A000880F991FE80FF91FE85CFC4F80818F7B2F
:1029B00080830E942B0981E00E949B0180E0FCCF74
:1029C00060E08DE00E944C0C0E9479070E94C20AD0
:1029D00092CB10923A021092390260E080E090E0CF
:1029E0000E94E81702CBCF93DF9381E693E00E9429
:1029F000BA09C6E3D1E0D0936803C093670387E6C2
:102A000093E00E942101D0938703C093860386E858
:102A100093E0DF91CF910C94210110925602109215
:102A2000550288EE93E0A0E0B0E0809357029093C7
:102A30005802A0935902B0935A028EE091E090930D
:102A400054028093530285EC90E09093600280934F
:102A50005F0284EC90E0909362028093610280ECCC
:102A600090E0909364028093630281EC90E09093F5
:102A700066028093650282EC90E0909368028093F6
:102A8000670286EC90E090936A028093690210924C
:102A90006C0210926D0210926E0210926F021092F0
:102AA000F6021092F7021092F8021092F9021092B8
:102AB000FA021092FB021092FC021092FD02109298
:102AC000FE021092FF021092000310920103109276
:102AD000020310920303109204031092050320E0F6
:102AE00043E062E086E893E00E94CC0E80915C03B4
:102AF0008C30A0F491E0980F90935C0380935D0379
:102B000090E0FC01EE0FFF1F8E0F9F1FFC01E85CA1
:102B1000FC4F88EB9BE09283818303C08FEF80930F
:102B20005D0320E046E065E087E693E00E94CC0E7E
:102B300066E971E081E693E00E94BF0940E052EC53
:102B400061E070E086E893E00C94200E97FB072E7E
:102B500016F4009407D077FD09D00E94C01507FC39
:102B600005D03EF4909581959F4F0895709561959D
:102B70007F4F0895EE0FFF1F0590F491E02D09940B
:102B8000AA1BBB1B51E107C0AA1FBB1FA617B70793
:102B900010F0A61BB70B881F991F5A95A9F78095AF
:102BA0009095BC01CD010895CF93DF9382309105BC
:102BB00010F482E090E0E091F503F091F60320E05C
:102BC00030E0C0E0D0E0309711F1408151814817EA
:102BD0005907C0F04817590761F482819381209703
:102BE00019F09B838A832BC09093F6038093F5039F
:102BF00026C02115310519F04217530718F49A0120
:102C0000BE01DF01EF010280F381E02DDCCF211551
:102C1000310509F1281B390B2430310590F4129647
:102C20008D919C9113976115710521F0FB019383A0
:102C3000828304C09093F6038093F503FD013296DE
:102C400044C0FD01E20FF31F81939193225031099B
:102C50002D933C933AC02091F3033091F403232B3E
:102C600041F420910201309103013093F403209349
:102C7000F30320910001309101012115310541F448
:102C80002DB73EB74091040150910501241B350B2F
:102C9000E091F303F091F403E217F307A0F42E1B85
:102CA0003F0B2817390778F0AC014E5F5F4F2417B0
:102CB000350748F04E0F5F1F5093F4034093F30322
:102CC0008193919302C0E0E0F0E0CF01DF91CF91DA
:102CD00008950F931F93CF93DF93009709F48CC04F
:102CE000FC013297138212820091F5031091F603D2
:102CF0000115110581F420813181820F931F2091EC
:102D0000F3033091F4032817390779F5F093F403AE
:102D1000E093F30371C0D80140E050E0AE17BF0765
:102D200050F412962D913C911397AD012115310568
:102D300009F1D901F3CF9D01DA0133832283608148
:102D40007181860F971F8217930769F4EC01288120
:102D50003981260F371F2E5F3F4F318320838A81B1
:102D60009B8193838283452B29F4F093F603E093B0
:102D7000F50342C01396FC93EE931297ED0149912F
:102D800059919E01240F351FE217F30771F48081DA
:102D90009181840F951F029611969C938E93828148
:102DA000938113969C938E931297E0E0F0E0D80104
:102DB00012968D919C911397009719F0F8018C0150
:102DC000F6CF8D919C9198012E5F3F4F820F931FFC
:102DD0002091F3033091F4032817390769F43097F1
:102DE00029F41092F6031092F50302C013821282A6
:102DF0001093F4030093F303DF91CF911F910F9190
:102E00000895A0E0B0E0E7E0F7E10C944618EC018B
:102E1000009721F4CB010E94D415B8C0FC01E60F45
:102E2000F71F9C0122503109E217F30708F4ACC0E8
:102E3000D9010D911C91119706171707B0F00530B5
:102E4000110508F49FC0C80104978617970708F476
:102E500099C002501109061B170B019311936D9332
:102E60007C93CF010E9469168DC05B01A01AB10A44
:102E70004C01800E911EA091F503B091F60340E045
:102E800050E0E12CF12C109709F44AC0A815B905BF
:102E9000D1F56D907C901197630182E0C80ED11C32
:102EA000CA14DB0480F1A3014A195B096A0182E0BC
:102EB000C80ED11C1296BC9012971396AC91B5E037
:102EC000CB16D10440F0B282A38351834083D90151
:102ED0006D937C930AC00E5F1F4FC301800F911F3B
:102EE000F90191838083EB2DFA2FE114F10431F085
:102EF000D7011396FC93EE93129744C0F093F60318
:102F0000E093F5033FC08D919C91119748175907A5
:102F100008F4AC017D0112960D90BC91A02DB3CFA9
:102F20008091F3039091F40388159905E1F4461715
:102F30005707C8F48091000190910101009741F476
:102F40008DB79EB74091040150910501841B950BEC
:102F5000E817F907C8F4F093F403E093F303F901D9
:102F6000718360830FC0CB010E94D4157C01009750
:102F700059F0A801BE010E94D017CE010E94691627
:102F8000C70104C0CE0102C080E090E0CDB7DEB73B
:102F9000EEE00C94621881E090E0F8940C948818AC
:102FA000FB01DC0102C001900D9241505040D8F766
:102FB0000895FB01DC0101900D920020E1F70895D6
:102FC000F999FECF92BD81BDF89A992780B50895F1
:102FD000262FF999FECF1FBA92BD81BD20BD0FB635
:102FE000F894FA9AF99A0FBE01960895A1E21A2E62
:102FF000AA1BBB1BFD010DC0AA1FBB1FEE1FFF1F9D
:10300000A217B307E407F50720F0A21BB30BE40BEC
:10301000F50B661F771F881F991F1A9469F7609533
:103020007095809590959B01AC01BD01CF010895ED
:10303000052E97FB1EF400940E942F1857FD07D011
:103040000E94F61707FC03D04EF40C942F185095ED
:103050004095309521953F4F4F4F5F4F0895909584
:103060008095709561957F4F8F4F9F4F08950E9477
:103070007918A59F900DB49F900DA49F800D911D70
:10308000112408952F923F924F925F926F927F92F8
:103090008F929F92AF92BF92CF92DF92EF92FF9268
:1030A0000F931F93CF93DF93CDB7DEB7CA1BDB0B14
:1030B0000FB6F894DEBF0FBECDBF09942A883988B9
:1030C00048885F846E847D848C849B84AA84B984C0
:1030D000C884DF80EE80FD800C811B81AA81B981CC
:1030E000CE0FD11D0FB6F894DEBF0FBECDBFED01E0
:1030F0000895A29FB001B39FC001A39F700D811DD1
:103100001124911DB29F700D811D1124911D0895F0
:1031100010E0CCE7D0E004C0FE010E94BA15219671
:0A312000CD37D107C9F7F894FFCFAF
:10312A000000F70380000100000000000000BA0B55
:10313A00EC07B60A940AA80A010C00000000970BD3
:10314A00EC07970B970B970B970B00000000970B58
:10315A00EC07000000000A0BEC075E0B760BF10A85
:10316A00090B202020202070757A7A6C6520626F06
:10317A007821202020202000706F73206F66206540
:10318A006E643A20004D6F72736520636F64653A0E
:10319A00002E002D00454E440045525200537461E2
:1031AA0074653A2000564D4450565F317C315F5663
:1031BA004D4450560D0A00416D6269656E74205483
:1031CA00656D70657261747572653A006368616EE7
:1031DA0000564D4450455F003A323A007C005F5633
:1031EA004D4450450050726573737572653A0072AA
:1031FA00657374617274696E67206D6F72736500AE
:10320A00686572655F646F7400686572655F6461A2
:04321A0073680000D5
:00000001FF
