:100000000C9463000C948B000C948B000C944805AA
:100010000C9448050C9448050C948B000C948B00B0
:100020000C948B000C948B000C948B000C948B0024
:100030000C948B000C948B000C948B000C948B0014
:100040000C94FE040C948B000C94CC040C94A60429
:100050000C948B000C948B000C948B000C948B00F4
:100060000C948B000C948B000000000023002600F1
:10007000290000000000240027002A0000000000E2
:10008000250028002B0004040404040404040202D4
:100090000202020203030303030301020408102007
:1000A0004080010204081020010204081020000012
:1000B0000008000201000003040700000000000027
:1000C0000000DE05C20511241FBECFEFD8E0DEBF61
:1000D000CDBF11E0A0E0B1E0E0E4F5E102C00590A1
:1000E0000D92AE34B107D9F722E0AEE4B1E001C021
:1000F0001D92AC3CB207E1F710E0C2E6D0E004C0CC
:100100002197FE010E942808C136D107C9F70E9435
:1001100098060C94930A0C940000EFE9F1E0A08992
:10012000B18982E08C93A485B5851C92A685B7859C
:100130008FEC8C93108EA489B58986E08C93A2896C
:10014000B3898C9180618C93A289B3898C918860EA
:100150008C93A289B3898C9180688C930288F389EF
:10016000E02D80818F7D8083089580E480937C00E2
:1001700080917A00806480937A0080917A0086FD75
:10018000FCCF809178002091790090E0922B089527
:10019000CF92DF92EF92FF920F931F93CF93DF9353
:1001A0006C017A018B01C0E0D0E0CE15DF0589F04B
:1001B000D8016D918D01D601ED91FC910190F081F6
:1001C000E02DC6010995892B11F47E0102C021960C
:1001D000ECCFC701DF91CF911F910F91FF90EF906E
:1001E000DF90CF900895FC01918D828D981761F07A
:1001F000828DDF01A80FB11D5D968C91928D9F5F5E
:100200009F73928F90E008958FEF9FEF0895FC0108
:10021000918D828D981731F0828DE80FF11D858DBB
:1002200090E008958FEF9FEF0895FC01918D228D4E
:10023000892F90E0805C9F4F821B91098F739927D3
:1002400008958FE991E00E94150121E0892B09F4BE
:1002500020E0822F0895FC01848DDF01A80FB11DDD
:10026000A35ABF4F2C91848D90E001968F739927EC
:10027000848FA689B7892C93A089B1898C918064D9
:100280008C93938D848D981306C00288F389E02D9A
:1002900080818F7D80830895EF92FF920F931F934B
:1002A000CF93DF93EC0181E0888F9B8D8C8D981329
:1002B00005C0E889F989808185FD24C0F62E0B8D63
:1002C00010E00F5F1F4F0F731127E02E8C8DE81287
:1002D0000CC00FB607FCFACFE889F989808185FF49
:1002E000F5CFCE010E942B01F1CF8B8DFE01E80FDF
:1002F000F11DE35AFF4FF0820B8FEA89FB89808161
:10030000806207C0EE89FF896083E889F98980816E
:100310008064808381E090E0DF91CF911F910F9105
:10032000FF90EF900895CF93DF93EC01888D8823A1
:10033000C9F0EA89FB89808185FD05C0A889B98952
:100340008C9186FD0FC00FB607FCF5CF808185FF2D
:10035000F2CFA889B9898C9185FFEDCFCE010E949B
:100360002B01E7CFDF91CF91089580E090E0892BBA
:1003700029F00E94210181110C940000089590E061
:10038000FC01E255FF4F3491FC01E656FF4F2491EA
:10039000FC01EA57FF4FE491EE2309F43BC03323FD
:1003A00039F1333091F038F43130A9F0323001F5C1
:1003B00084B58F7D12C0373091F03830A1F03430E1
:1003C000B9F4809180008F7D03C0809180008F7789
:1003D000809380000DC084B58F7784BD09C0809163
:1003E000B0008F7703C08091B0008F7D8093B00004
:1003F000F0E0EE0FFF1FE458FF4FA591B4918FB7C7
:10040000F894EC91611103C020952E2301C02E2B8E
:100410002C938FBF0895CF93DF9390E0FC01E656B5
:10042000FF4F2491FC01EA57FF4F8491882361F12B
:1004300090E0880F991FFC01EE58FF4FC591D491B1
:10044000FC01E458FF4FA591B491611109C09FB719
:10045000F8948881209582238883EC912E230BC009
:10046000623061F49FB7F8943881822F809583239E
:100470008883EC912E2B2C939FBF06C08FB7F894E6
:10048000E8812E2B28838FBFDF91CF9108953FB74E
:10049000F8948091970190919801A0919901B09161
:1004A0009A0126B5A89B05C02F3F19F00196A11D02
:1004B000B11D3FBFBA2FA92F982F8827820F911DFA
:1004C000A11DB11DBC01CD0142E0660F771F881F41
:1004D000991F4A95D1F708952FB7F8946091930129
:1004E0007091940180919501909196012FBF08958C
:1004F00020919001309191012817390771F4909162
:100500008F0180918E01981741F0E0918F01F0E00A
:10051000E25BFE4F808190E008958FEF9FEF08959A
:1005200008951F93CF93DF93DC015C962D913C914E
:100530005D972115310539F481E090E013969C9385
:100540008E9312973DC05196ED91FC915297509623
:100550009C915097892F80951FB75E964C915E971E
:1005600041FB772770F941FD6095F894408177232E
:1005700011F0492B01C048234083E9012197F1F78D
:1005800048E0508160FF02C0592B01C058235083BE
:10059000E9012197F1F76695415099F7772321F00A
:1005A00090818923808303C08081982B90831FBF13
:1005B0005C968D919C915D970197F1F721E030E079
:1005C000C901DF91CF911F91089520919001309141
:1005D00091012817390771F480918E0120918F01C4
:1005E00090E0805C9F4F821B910960E470E00E9464
:1005F000E107089580E090E0089520919001309106
:10060000910128173907B9F490918F0180918E01DB
:10061000981789F0E0918F01F0E0E25BFE4F808156
:1006200020918F0130E02F5F3F4F2F7333272093AE
:100630008F0190E008958FEF9FEF08950F931F9320
:10064000CF93DF93EC01162F042F1B821A8288EEC2
:1006500093E0A0E0B0E08C839D83AE83BF838AE10A
:1006600091E0998388831F8A1E8A198E188E1B8EAB
:100670001A8E1D8E1C8E6E8D6E7F20FB61F96E8F23
:100680006695617081E06827842F0E94BF0161E058
:10069000802F0E940B02402F50E0FA01E656FF4FD8
:1006A000E491E88BFA01EA57FF4FE491F0E0EE0F96
:1006B000FF1FE458FF4F859194919A8B898B60E0DE
:1006C000812F0E940B028E8D81FD04C061E0812F7D
:1006D0000E94BF011C87612F70E0FB01E656FF4FAF
:1006E000E491ED87FB01EA57FF4FE491F0E0EE0F54
:1006F000FF1FE859FF4F859194919F878E87DF9167
:10070000CF911F910F910895E0919001F091910187
:10071000E817F90769F4A389B4899C9185898095C4
:1007200089238C93109291011092900181E0089599
:1007300080E00895CF93DF93EC019A01AB011B8E0B
:100740001A8E198E188E1F8A1E8A60E079E08DE35A
:1007500090E00E94F507F9012430310518F0C90135
:10076000039702C081E090E09D8F8C8F6C8566318D
:1007700008F069C0C901969587958431910510F0FC
:10078000439702C081E090E09F8B8E8B369718F0E4
:10079000C901059702C081E090E0998F888FC90157
:1007A000880F991F280F391F36952795369527955D
:1007B0002D30310518F02C50310902C021E030E015
:1007C0003B8F2A8F90916800683050F021E06E30A6
:1007D00008F420E081E001C0880F2A95EAF701C003
:1007E00084E0892B809368009C85983038F09E3097
:1007F00040F0963148F020E030E008C02DE630E0CF
:1008000005C02BE630E002C02CE630E03C8B2B8BA1
:10081000983030F481E001C0880F9A95EAF70EC055
:10082000292F30E09E3018F42850310902C02E5094
:10083000310981E001C0880F2A95EAF78D8B8C8DF4
:100840009D8D0197F1F78A8D9B8D892BE1F0809129
:100850009001909191018C179D07A9F0009711F0DC
:100860000E9484038E8D8E7F8E8F10928E01109247
:100870008F01D0939101C0939001EB89FC89908105
:100880008D89892B8083DF91CF9108956115710542
:1008900079F0FB0101900020E9F73197AF01461B89
:1008A000570BDC01ED91FC910280F381E02D09945E
:1008B00080E090E008954F925F926F927F92EF9266
:1008C000FF920F931F93CF93DF93CDB7DEB7A1971E
:1008D0000FB6F894DEBF0FBECDBF7C01FA01CB018D
:1008E00019A2223008F42AE08E010F5D1F4F422E1C
:1008F000512C612C712CBF01A30192010E943A0A74
:10090000F901CA01015011096A3014F4605D01C097
:10091000695CD8016C93232B242B252B61F7B8013C
:10092000C7010E944604A1960FB6F894DEBF0FBE21
:10093000CDBFDF91CF911F910F91FF90EF907F90EE
:100940006F905F904F9008950E94250A1F920F921A
:100950000FB60F9211242F933F934F935F936F9392
:100960007F938F939F93AF93BF93EF93FF938FE901
:1009700091E00E942B01FF91EF91BF91AF919F9168
:100980008F917F916F915F914F913F912F910F9038
:100990000FBE0F901F9018951F920F920FB60F92D7
:1009A00011242F938F939F93EF93FF93E091AF01C7
:1009B000F091B0018081E091B501F091B60182FD26
:1009C00012C090818091B8018F5F8F732091B9011F
:1009D000821751F0E091B801F0E0E156FE4F958F9B
:1009E0008093B80101C08081FF91EF919F918F9119
:1009F0002F910F900FBE0F901F9018951F920F927E
:100A00000FB60F9211242F933F938F939F93AF9321
:100A1000BF938091930190919401A0919501B09121
:100A200096013091920123E0230F2D3720F4019697
:100A3000A11DB11D05C026E8230F0296A11DB11D01
:100A4000209392018093930190939401A093950138
:100A5000B09396018091970190919801A09199018E
:100A6000B0919A010196A11DB11D809397019093B9
:100A70009801A0939901B0939A01BF91AF919F9172
:100A80008F913F912F910F900FBE0F901F9018954F
:100A90001F920F920FB60F9211242F933F934F93F3
:100AA0005F936F937F938F939F93AF93BF93EF93D6
:100AB000FF93E0919001F0919101309709F451C0BA
:100AC000968DA685B785858591FF04C09C91892365
:100AD00029F447C09C91892309F043C0A389B489B4
:100AE0009C918589809589238C9386899789019724
:100AF000F1F7608D718DA685B785558538E020E0CA
:100B0000CB010197F1F7822F90E095958795282FDB
:100B10004C91452309F02068315091F7868D81FD75
:100B2000209580918E0190E001968F7399273091E6
:100B30008F01381749F0A0918E01B0E0A25BBE4F43
:100B40002C9380938E0103C0868D8160868F828D69
:100B5000938D0197F1F7A389B4899C918589892B9D
:100B60008C93FF91EF91BF91AF919F918F917F9166
:100B70006F915F914F913F912F910F900FBE0F900A
:100B80001F901895CF93DF938091840290918502F6
:100B90000E94C308CAE1D1E0D0938B02C0938A02BD
:100BA0008AE892E00E948403D093AA02C093A9022B
:100BB00089EA92E0DF91CF910C9484031092A20114
:100BC0001092A10188EE93E0A0E0B0E08093A30131
:100BD0009093A401A093A501B093A6018AE091E0AF
:100BE0009093A00180939F0185EC90E09093AC01DD
:100BF0008093AB0184EC90E09093AE018093AD01C3
:100C000080EC90E09093B0018093AF0181EC90E094
:100C10009093B2018093B10182EC90E09093B40183
:100C20008093B30186EC90E09093B6018093B50178
:100C30001092B8011092B9011092BA011092BB0142
:100C40001092420210924302109244021092450206
:100C500010924602109247021092480210924902E6
:100C600010924A0210924B0210924C0210924D02C6
:100C700010924E0210924F021092500210925102A6
:100C800020E043E062E089EA92E00E941E0320E057
:100C900046E065E08AE892E00E941E0340E052ECE4
:100CA00061E070E089EA92E00E949A031092850266
:100CB000109284021092870210928602109289028A
:100CC0001092880261E070E080E090E00E945B0991
:100CD000009789F090938502809384021092870296
:100CE000109286022091880230918902232BC1F450
:100CF000FC01108215C080918402909185020097BA
:100D000011F00E94C3081092850210928402109282
:100D1000890210928802109287021092860208952A
:100D2000109289021092880267E371E00C94330AF2
:100D3000789484B5826084BD84B5816084BD85B5B6
:100D4000826085BD85B5816085BD80916E008160C2
:100D500080936E0010928100809181008260809368
:100D6000810080918100816080938100809180006A
:100D70008160809380008091B10084608093B10095
:100D80008091B00081608093B00080917A0084608F
:100D900080937A0080917A00826080937A008091BB
:100DA0007A00816080937A0080917A0080688093D5
:100DB0007A001092C100109280021092810210926B
:100DC00082021092830210923E0210923F02109211
:100DD0004002109241020E946C026B017C014B01A7
:100DE0005C0128EB820E2BE0921EA11CB11C0E941C
:100DF0006C026C157D058E059F0528F086169706FA
:100E0000A806B906A0F78FE991E090937F0280933E
:100E10007E020E948D000E946C0260933E027093DD
:100E20003F02809340029093410266E271E080911C
:100E30007E0290917F020E9446040E946C026B0128
:100E40007C014B015C018AE0880E911CA11CB11C45
:100E50000E946C026C157D058E059F0528F0861694
:100E60009706A806B906A0F781E080935202109277
:100E70009C0110929B0161E08DE00E940B0260E0FA
:100E80008DE00E94BF010E948D0040E855E260E0C5
:100E900070E08AE892E00E949A030E9447024B01A8
:100EA0005C0180EBC82E84E0D82EE12CF12C0E944E
:100EB0004702DC01CB0188199909AA09BB09883EC0
:100EC0009340A105B10558F021E0C21AD108E1080C
:100ED000F10888EE880E83E0981EA11CB11CC11495
:100EE000D104E104F10419F76CE789EA92E00E9469
:100EF000910268E189EA92E00E94910260E089EA49
:100F000092E00E9491026CE789EA92E00E949102CD
:100F100069E189EA92E00E94910260E089EA92E048
:100F20000E949102C4E6D0E0C12CD12C76010E942F
:100F3000B500092E000CAA0BBB0BC80ED91EEA1E69
:100F4000FB1E2197A1F7C701B60124E630E040E07F
:100F500050E00E943A0A30939E0120939D0168E37D
:100F600071E08FE991E00E944604C0909D01D0900D
:100F70009E010D2C000CEE08FF08F7FE14C0E09156
:100F80009F01F091A0010190F081E02D6DE28FE9C9
:100F900091E0099544275527BA014C195D096E095E
:100FA0007F092AE003C02AE0B701A6018FE991E09A
:100FB0000E945B0465E371E08FE991E00E944604C2
:100FC000FFCF97FB072E16F4009407D077FD09D0CA
:100FD0000E94140807FC05D03EF4909581959F4F20
:100FE0000895709561957F4F0895052E97FB1EF427
:100FF00000940E940C0857FD07D00E943A0A07FC93
:1010000003D04EF40C940C085095409530952195E2
:101010003F4F4F4F5F4F0895909580957095619524
:101020007F4F8F4F9F4F0895AA1BBB1B51E107C0F5
:10103000AA1FBB1FA617B70710F0A61BB70B881F68
:10104000991F5A95A9F780959095BC01CD010895F7
:10105000EE0FFF1F0590F491E02D0994CF93DF93DD
:101060008230910510F482E090E0E091CA02F091A4
:10107000CB0220E030E0C0E0D0E0309711F14081B9
:10108000518148175907C0F04817590761F4828108
:101090009381209719F09B838A832BC09093CB0276
:1010A0008093CA0226C02115310519F04217530753
:1010B00018F49A01BE01DF01EF010280F381E02DF7
:1010C000DCCF2115310509F1281B390B24303105FE
:1010D00090F412968D919C9113976115710521F0F2
:1010E000FB019383828304C09093CB028093CA0256
:1010F000FD01329644C0FD01E20FF31F81939193ED
:10110000225031092D933C933AC02091C80230916E
:10111000C902232B41F42091020130910301309345
:10112000C9022093C80220910001309101012115CC
:10113000310541F42DB73EB74091040150910501AE
:10114000241B350BE091C802F091C902E217F307A6
:10115000A0F42E1B3F0B2817390778F0AC014E5F27
:101160005F4F2417350748F04E0F5F1F5093C90299
:101170004093C8028193919302C0E0E0F0E0CF0178
:10118000DF91CF9108950F931F93CF93DF93009733
:1011900009F48CC0FC013297138212820091CA02BA
:1011A0001091CB020115110581F420813181820F4C
:1011B000931F2091C8023091C9022817390779F589
:1011C000F093C902E093C80271C0D80140E050E03A
:1011D000AE17BF0750F412962D913C911397AD01B5
:1011E0002115310509F1D901F3CF9D01DA013383CE
:1011F000228360817181860F971F8217930769F49C
:10120000EC0128813981260F371F2E5F3F4F318334
:1012100020838A819B8193838283452B29F4F093D9
:10122000CB02E093CA0242C01396FC93EE9312974E
:10123000ED01499159919E01240F351FE217F307E3
:1012400071F480819181840F951F029611969C9371
:101250008E938281938113969C938E931297E0E0F4
:10126000F0E0D80112968D919C911397009719F098
:10127000F8018C01F6CF8D919C9198012E5F3F4F24
:10128000820F931F2091C8023091C9022817390795
:1012900069F4309729F41092CB021092CA0202C06E
:1012A000138212821093C9020093C802DF91CF917A
:1012B0001F910F910895A0E0B0E0E1E6F9E00C94F1
:1012C000600AEC01009721F4CB010E942E08B8C0FF
:1012D000FC01E60FF71F9C0122503109E217F307CA
:1012E00008F4ACC0D9010D911C911197061717078E
:1012F000B0F00530110508F49FC0C80104978617A7
:10130000970708F499C002501109061B170B0193A7
:1013100011936D937C93CF010E94C3088DC05B0134
:10132000A01AB10A4C01800E911EA091CA02B09180
:10133000CB0240E050E0E12CF12C109709F44AC0B8
:10134000A815B905D1F56D907C901197630182E0E5
:10135000C80ED11CCA14DB0480F1A3014A195B0931
:101360006A0182E0C80ED11C1296BC9012971396A7
:10137000AC91B5E0CB16D10440F0B282A383518387
:101380004083D9016D937C930AC00E5F1F4FC30148
:10139000800F911FF90191838083EB2DFA2FE114C7
:1013A000F10431F0D7011396FC93EE93129744C0E9
:1013B000F093CB02E093CA023FC08D919C911197AC
:1013C0004817590708F4AC017D0112960D90BC91A5
:1013D000A02DB3CF8091C8029091C90288159905BC
:1013E000E1F446175707C8F480910001909101017C
:1013F000009741F48DB79EB74091040150910501CB
:10140000841B950BE817F907C8F4F093C902E09321
:10141000C802F901718360830FC0CB010E942E08BE
:101420007C01009759F0A801BE010E942A0ACE0152
:101430000E94C308C70104C0CE0102C080E090E052
:10144000CDB7DEB7EEE00C947C0A81E090E0F89432
:101450000C94930AFB01DC0102C001900D924150F3
:101460005040D8F70895FB01DC0101900D92002057
:10147000E1F70895A1E21A2EAA1BBB1BFD010DC0C6
:10148000AA1FBB1FEE1FFF1FA217B307E407F50734
:1014900020F0A21BB30BE40BF50B661F771F881F10
:1014A000991F1A9469F760957095809590959B01A6
:1014B000AC01BD01CF0108952F923F924F925F92F0
:1014C0006F927F928F929F92AF92BF92CF92DF9254
:1014D000EF92FF920F931F93CF93DF93CDB7DEB7B9
:1014E000CA1BDB0B0FB6F894DEBF0FBECDBF09944D
:1014F0002A88398848885F846E847D848C849B84A4
:10150000AA84B984C884DF80EE80FD800C811B81B1
:10151000AA81B981CE0FD11D0FB6F894DEBF0FBEE0
:10152000CDBFED01089510E0C2E6D0E004C0FE0199
:101530000E9428082196C336D107C9F7F894FFCF37
:101540000000CC028000000000004C01C800150122
:10155000F30007019301000000009102C800E502BA
:10156000FD0278029002564D4450565F317C315F47
:10157000564D4450560D0A00616D6269656E7420C7
:0E15800074656D70657261747572653A200055
:00000001FF
