:100000000C9463000C948B000C948B000C941406DD
:100010000C9414060C9414060C948B000C948B0016
:100020000C948B000C948B000C948B000C948B0024
:100030000C948B000C948B000C948B000C948B0014
:100040000C94CA050C948B000C9498050C947205C2
:100050000C948B000C948B000C948B000C948B00F4
:100060000C948B000C948B000000000023002600F1
:10007000290000000000240027002A0000000000E2
:10008000250028002B0004040404040404040202D4
:100090000202020203030303030301020408102007
:1000A0004080010204081020010204081020000012
:1000B0000008000201000003040700000000000027
:1000C0000000AA068E0611241FBECFEFD8E0DEBFC7
:1000D000CDBF11E0A0E0B1E0E2E7F8E102C0059099
:1000E0000D92AE37B107D9F723E0AEE7B1E001C01A
:1000F0001D92A230B207E1F710E0C2E6D0E004C0E2
:100100002197FE010E94B809C136D107C9F70E94A4
:100110000D070C942C0C0C940000E5EDF1E0A08987
:10012000B18982E08C93A485B5851C92A685B7859C
:100130008FEC8C93108EA489B58986E08C93A2896C
:10014000B3898C9180618C93A289B3898C918860EA
:100150008C93A289B3898C9180688C930288F389EF
:10016000E02D80818F7D80830895CF92DF92EF9282
:10017000FF920F931F93CF93DF936C017A018B0152
:10018000C0E0D0E0CE15DF0589F0D8016D918D017A
:10019000D601ED91FC910190F081E02DC601099509
:1001A000892B11F47E0102C02196ECCFC701DF91AB
:1001B000CF911F910F91FF90EF90DF90CF90089516
:1001C000FC01918D828D981761F0828DDF01A80F5F
:1001D000B11D5D968C91928D9F5F9F73928F90E081
:1001E00008958FEF9FEF0895FC01918D828D9817F0
:1001F00031F0828DE80FF11D858D90E008958FEF2D
:100200009FEF0895FC01918D228D892F90E0805CF5
:100210009F4F821B91098F739927089585ED91E077
:100220000E94020121E0892B09F420E0822F089529
:10023000FC01848DDF01A80FB11DA35ABF4F2C9183
:10024000848D90E001968F739927848FA689B78952
:100250002C93A089B1898C9180648C93938D848D2B
:10026000981306C00288F389E02D80818F7D8083FA
:100270000895EF92FF920F931F93CF93DF93EC01BA
:1002800081E0888F9B8D8C8D981305C0E889F98952
:10029000808185FD24C0F62E0B8D10E00F5F1F4F6F
:1002A0000F731127E02E8C8DE8120CC00FB607FCDF
:1002B000FACFE889F989808185FFF5CFCE010E94C8
:1002C0001801F1CF8B8DFE01E80FF11DE35AFF4FAE
:1002D000F0820B8FEA89FB898081806207C0EE89FA
:1002E000FF896083E889F98980818064808381E067
:1002F00090E0DF91CF911F910F91FF90EF900895C3
:10030000CF93DF93EC01888D8823C9F0EA89FB89BC
:10031000808185FD05C0A889B9898C9186FD0FC0B3
:100320000FB607FCF5CF808185FFF2CFA889B98988
:100330008C9185FFEDCFCE010E941801E7CFDF91B0
:10034000CF91089580E090E0892B29F00E940E0162
:1003500081110C940000089590E0FC01E255FF4FDC
:100360003491FC01E656FF4F2491FC01EA57FF4F00
:10037000E491EE2309F43BC0332339F1333091F09B
:1003800038F43130A9F0323001F584B58F7D12C0D8
:10039000373091F03830A1F03430B9F480918000DA
:1003A0008F7D03C0809180008F77809380000DC087
:1003B00084B58F7784BD09C08091B0008F7703C06A
:1003C0008091B0008F7D8093B000F0E0EE0FFF1FB2
:1003D000E458FF4FA591B4918FB7F894EC91611157
:1003E00003C020952E2301C02E2B2C938FBF089580
:1003F000CF93DF9390E0FC01E656FF4F2491FC0180
:10040000EA57FF4F8491882361F190E0880F991F8C
:10041000FC01EE58FF4FC591D491FC01E458FF4F09
:10042000A591B491611109C09FB7F8948881209576
:1004300082238883EC912E230BC0623061F49FB736
:10044000F8943881822F809583238883EC912E2B1A
:100450002C939FBF06C08FB7F894E8812E2B28837A
:100460008FBFDF91CF9108953FB7F8948091C70176
:100470009091C801A091C901B091CA0126B5A89B6D
:1004800005C02F3F19F00196A11DB11D3FBFBA2F26
:10049000A92F982F8827820F911DA11DB11DBC0186
:1004A000CD0142E0660F771F881F991F4A95D1F74B
:1004B00008958F929F92AF92BF92CF92DF92EF9268
:1004C000FF926B017C010E9434024B015C01C1145C
:1004D000D104E104F104F1F00E943402DC01CB010B
:1004E00088199909AA09BB09883E9340A105B1055D
:1004F00070F321E0C21AD108E108F10888EE880EF5
:1005000083E0981EA11CB11CC114D104E104F104C4
:1005100019F7DDCFFF90EF90DF90CF90BF90AF90B5
:100520009F908F9008952FB7F8946091C3017091B8
:10053000C4018091C5019091C6012FBF08958F928B
:100540009F92AF92BF92CF92DF92EF92FF926B0198
:100550007C010E9493024B015C01C60ED71EE81E6F
:10056000F91E0E949302681579058A059B0528F0FB
:10057000C616D706E806F906A0F7FF90EF90DF90C1
:10058000CF90BF90AF909F908F9008952091C00121
:100590003091C1012817390771F49091BF01809102
:1005A000BE01981741F0E091BF01F0E0E258FE4F24
:1005B000808190E008958FEF9FEF089508951F9335
:1005C000CF93DF93DC015C962D913C915D972115D3
:1005D000310539F481E090E013969C938E93129745
:1005E0003DC05196ED91FC91529750969C91509739
:1005F000892F80951FB75E964C915E9741FB7727B8
:1006000070F941FD6095F8944081772311F0492BF2
:1006100001C048234083E9012197F1F748E0508168
:1006200060FF02C0592B01C058235083E901219774
:10063000F1F76695415099F7772321F0908189234E
:10064000808303C08081982B90831FBF5C968D911F
:100650009C915D970197F1F721E030E0C901DF91AE
:10066000CF911F9108952091C0013091C1012817A9
:10067000390771F48091BE012091BF0190E0805C48
:100680009F4F821B910960E470E00E9471090895F8
:1006900080E090E008952091C0013091C1012817B9
:1006A0003907B9F49091BF018091BE01981789F084
:1006B000E091BF01F0E0E258FE4F80812091BF0140
:1006C00030E02F5F3F4F2F7333272093BF0190E01F
:1006D00008958FEF9FEF08950F931F93CF93DF93AC
:1006E000EC01162F042F1B821A8288EE93E0A0E003
:1006F000B0E08C839D83AE83BF838AE191E09983D0
:1007000088831F8A1E8A198E188E1B8E1A8E1D8E44
:100710001C8E6E8D6E7F20FB61F96E8F6695617009
:1007200081E06827842F0E94AC0161E0802F0E9445
:10073000F801402F50E0FA01E656FF4FE491E88BB4
:10074000FA01EA57FF4FE491F0E0EE0FFF1FE45883
:10075000FF4F859194919A8B898B60E0812F0E9445
:10076000F8018E8D81FD04C061E0812F0E94AC01F3
:100770001C87612F70E0FB01E656FF4FE491ED8787
:10078000FB01EA57FF4FE491F0E0EE0FFF1FE8593D
:10079000FF4F859194919F878E87DF91CF911F9115
:1007A0000F910895E091C001F091C101E817F90798
:1007B00069F4A389B4899C918589809589238C9358
:1007C0001092C1011092C00181E0089580E0089567
:1007D000CF93DF93EC019A01AB011B8E1A8E198E19
:1007E000188E1F8A1E8A60E079E08DE390E00E94F7
:1007F0008509F9012430310518F0C901039702C0B9
:1008000081E090E09D8F8C8F6C85663108F069C027
:10081000C901969587958431910510F0439702C0E0
:1008200081E090E09F8B8E8B369718F0C901059779
:1008300002C081E090E0998F888FC901880F991FCD
:10084000280F391F36952795369527952D30310578
:1008500018F02C50310902C021E030E03B8F2A8F84
:1008600090916800683050F021E06E3008F420E08C
:1008700081E001C0880F2A95EAF701C084E0892B46
:10088000809368009C85983038F09E3040F0963117
:1008900048F020E030E008C02DE630E005C02BE64F
:1008A00030E002C02CE630E03C8B2B8B983030F4EB
:1008B00081E001C0880F9A95EAF70EC0292F30E039
:1008C0009E3018F42850310902C02E50310981E0C1
:1008D00001C0880F2A95EAF78D8B8C8D9D8D01972D
:1008E000F1F78A8D9B8D892BE1F08091C001909169
:1008F000C1018C179D07A9F0009711F00E94D20347
:100900008E8D8E7F8E8F1092BE011092BF01D0937C
:10091000C101C093C001EB89FC8990818D89892B2D
:100920008083DF91CF9108956115710579F0FB0106
:1009300001900020E9F73197AF01461B570BDC010E
:10094000ED91FC910280F381E02D099480E090E02C
:100950000895CF93DF93EAEBF2E044815581608103
:10096000718185ED91E00E94B500EC0165E371E0D5
:1009700085ED91E00E9494048C0F9D1FDF91CF9133
:1009800008954F925F926F927F92EF92FF920F9332
:100990001F93CF93DF93CDB7DEB7A1970FB6F8942F
:1009A000DEBF0FBECDBF7C01FA01CB0119A2223000
:1009B00008F42AE08E010F5D1F4F422E512C612C4E
:1009C000712CBF01A30192010E94D30BF901CA014E
:1009D000015011096A3014F4605D01C0695CD801EE
:1009E0006C93232B242B252B61F7B801C7010E94A0
:1009F0009404A1960FB6F894DEBF0FBECDBFDF9171
:100A0000CF911F910F91FF90EF907F906F905F902B
:100A10004F9008950F931F93CF93DF93EC010E94A3
:100A200094048C0165E371E0CE010E949404800F70
:100A3000911FDF91CF911F910F9108950F931F93F5
:100A4000CF93DF93EC0188819981009729F02A8167
:100A50003B812617370788F48B016F5F7F4F0E9419
:100A6000EB0A009761F0998388831B830A832C81AA
:100A70003D81232B11F4FC01108281E001C080E054
:100A8000DF91CF911F910F910895EF92FF920F93F5
:100A90001F93CF93DF93EC017B018A01BA010E947F
:100AA0001E052881398181110DC02115310519F0EC
:100AB000C9010E94530A198218821D821C821B825E
:100AC0001A8206C01D830C83B701C9010E94CC0B9A
:100AD000CE01DF91CF911F910F91FF90EF9008957C
:100AE0000E94B50B1F920F920FB60F9211242F93F5
:100AF0003F934F935F936F937F938F939F93AF93A6
:100B0000BF93EF93FF9385ED91E00E941801FF9151
:100B1000EF91BF91AF919F918F917F916F915F9175
:100B20004F913F912F910F900FBE0F901F901895EE
:100B30001F920F920FB60F9211242F938F939F93B2
:100B4000EF93FF93E091E501F091E6018081E09160
:100B5000EB01F091EC0182FD12C090818091EE01D9
:100B60008F5F8F732091EF01821751F0E091EE01BA
:100B7000F0E0EB52FE4F958F8093EE0101C0808133
:100B8000FF91EF919F918F912F910F900FBE0F903A
:100B90001F9018951F920F920FB60F9211242F934A
:100BA0003F938F939F93AF93BF938091C301909195
:100BB000C401A091C501B091C6013091C20123E0EA
:100BC000230F2D3720F40196A11DB11D05C026E885
:100BD000230F0296A11DB11D2093C2018093C30172
:100BE0009093C401A093C501B093C6018091C70141
:100BF0009091C801A091C901B091CA010196A11DAF
:100C0000B11D8093C7019093C801A093C901B0930F
:100C1000CA01BF91AF919F918F913F912F910F90FA
:100C20000FBE0F901F9018951F920F920FB60F9244
:100C300011242F933F934F935F936F937F938F93E1
:100C40009F93AF93BF93EF93FF93E091C001F09117
:100C5000C101309709F451C0968DA685B785858569
:100C600091FF04C09C91892329F447C09C9189235A
:100C700009F043C0A389B4899C9185898095892313
:100C80008C93868997890197F1F7608D718DA68580
:100C9000B785558538E020E0CB010197F1F7822F29
:100CA00090E095958795282F4C91452309F0206871
:100CB000315091F7868D81FD20958091BE0190E0A5
:100CC00001968F7399273091BF01381749F0A09191
:100CD000BE01B0E0A258BE4F2C938093BE0103C06A
:100CE000868D8160868F828D938D0197F1F7A38920
:100CF000B4899C918589892B8C93FF91EF91BF9149
:100D0000AF919F918F917F916F915F914F913F91A3
:100D10002F910F900FBE0F901F901895CF93DF93D8
:100D20008091BA029091BB020E94530ACAE1D1E0BD
:100D3000D093C102C093C00280EC92E00E94D20323
:100D4000D093E002C093DF028FED92E0DF91CF916C
:100D50000C94D203E5EDF1E01382128288EE93E069
:100D6000A0E0B0E084839583A683B7838AE091E016
:100D70009183808385EC90E09587848784EC90E074
:100D80009787868780EC90E0918B808B81EC90E058
:100D9000938B828B82EC90E0958B848B86EC90E039
:100DA000978B868B118E128E138E148EE2E7F2E0F3
:100DB000168217821086118612861386148615866F
:100DC00016861786108A118A128A138A148A158A3F
:100DD00020E043E062E08FED92E00E946C0320E0AF
:100DE00046E065E080EC92E00E946C0340E052EC4B
:100DF00061E070E08FED92E00E94E803EAEBF2E040
:100E000011821082138212821582148240E050E017
:100E100067E371E0CF010C944505CF93DF9300D0D9
:100E2000CDB7DEB7789484B5826084BD84B5816027
:100E300084BD85B5826085BD85B5816085BD8091A5
:100E40006E00816080936E0010928100809181001D
:100E50008260809381008091810081608093810015
:100E6000809180008160809380008091B1008460D7
:100E70008093B1008091B00081608093B000809138
:100E80007A00846080937A0080917A0082608093F7
:100E90007A0080917A00816080937A0080917A0054
:100EA000806880937A001092C1001092B60210926E
:100EB000B7021092B8021092B90210927402109206
:100EC0007502109276021092770268EB7BE080E068
:100ED00090E00E949F0285ED91E09093B50280938F
:100EE000B4020E948D000E9493026093740270937A
:100EF0007502809376029093770266E271E08091AA
:100F0000B4029091B5020E9494046AE070E080E01F
:100F100090E00E949F0281E0809388021092CC01B1
:100F20001092CB0161E08DE00E94F80160E08DE05D
:100F30000E94AC010E948D0040E855E260E070E044
:100F400080EC92E00E94E80360EB74E080E090E0C7
:100F50000E9459026CE78FED92E00E94DF0268E187
:100F60008FED92E00E94DF0260E08FED92E00E9440
:100F7000DF026CE78FED92E00E94DF0269E18FED06
:100F800092E00E94DF0260E08FED92E00E94DF02BB
:100F900084EF882E99249394A12CB12C0E94930263
:100FA000672B682B692B41F40E9493026230710514
:100FB0008105910508F404C10E9493026093D10158
:100FC0007093D2018093D3019093D4010091CD010D
:100FD0001091CE012091CF013091D001601771079F
:100FE0008207930740F46093CD017093CE01809304
:100FF000CF019093D0010091CD011091CE012091AD
:10100000CF013091D0016B017C01C01AD10AE20AF4
:10101000F30A970186010A3F11052105310508F4FD
:10102000CFC06093CD017093CE018093CF01909398
:10103000D0018092800290928102A0928202B092AE
:1010400083021092840210928502109286021092FE
:1010500087028091780290917902A0917A02B091F2
:101060007B0280937C0290937D02A0937E02B093DA
:101070007F020E94930260937802709379028093BA
:101080007A0290937B020E949302609374027093A1
:10109000750280937602909377020E9493026B010F
:1010A0007C0168E371E08091B4029091B5020E94E6
:1010B00094042AE041E050E060E070E08091B402E6
:1010C0009091B5020E94C1046FE371E08091B40277
:1010D0009091B5020E9494042AE0B701A601809184
:1010E000B4029091B5020E94C10461E471E0809164
:1010F000B4029091B5020E9494048091780290917C
:101100007902A0917A02B0917B02B701A601481B37
:10111000590B6A0B7B0B2AE08091B4029091B502C7
:101120000E94C10461E471E08091B4029091B50223
:101130000E949404409178025091790260917A0261
:1011400070917B0280917C0290917D02A0917E0241
:10115000B0917F02481B590B6A0B7B0B2AE08091F0
:10116000B4029091B5020E94C10463E471E08091E1
:10117000B4029091B5020E9494040E949302AB01C4
:10118000BC012AE08091B4029091B5020E94C10492
:1011900065E471E08091B4029091B5020E940A0565
:1011A00062E070E080E090E00E949F020E94930263
:1011B000609378027093790280937A0290937B0215
:1011C00080EC92E00E9433032091BE023091BF0276
:1011D0001816190624F42D30310508F448C02D30B6
:1011E000310509F041C060E571E085ED91E00E94B4
:1011F0000A050E94A9048091BE029091BF02892B2A
:1012000091F061E671E08091BA029091BB020E9478
:10121000C30B892B41F46FE671E085ED91E00E94EC
:101220000A0511E001C010E080EC92E00E94D203B8
:1012300060ED77E080E090E00E94590240E855E2DE
:1012400060E070E080EC92E00E94E80340E050E053
:1012500067E371E08AEB92E00E944505112321F0DB
:1012600061E08DE00E94AC010E94A20197CE80EC6B
:1012700092E00E944B0389831A820091BE02109172
:10128000BF020F5F1F4FB8018AEB92E00E941E055C
:10129000882399F02091BA023091BB028091BE025E
:1012A0009091BF02BE016F5F7F4F820F931F0E941C
:1012B000CC0B1093BF020093BE024091BE0250912E
:1012C000BF0260E070E02AE085ED91E00E94C10479
:1012D0006CE471E085ED91E00E9494040E94A90401
:1012E0006FCF97FB072E16F4009407D077FD09D037
:1012F0000E94A40907FC05D03EF4909581959F4F6C
:101300000895709561957F4F0895052E97FB1EF403
:1013100000940E949C0957FD07D00E94D30B07FC44
:1013200003D04EF40C949C0950954095309521952E
:101330003F4F4F4F5F4F0895909580957095619501
:101340007F4F8F4F9F4F0895AA1BBB1B51E107C0D2
:10135000AA1FBB1FA617B70710F0A61BB70B881F45
:10136000991F5A95A9F780959095BC01CD010895D4
:10137000EE0FFF1F0590F491E02D0994CF93DF93BA
:101380008230910510F482E090E0E0910003F0914A
:10139000010320E030E0C0E0D0E0309711F140815F
:1013A000518148175907C0F04817590761F48281E5
:1013B0009381209719F09B838A832BC0909301031C
:1013C0008093000326C02115310519F042175307F9
:1013D00018F49A01BE01DF01EF010280F381E02DD4
:1013E000DCCF2115310509F1281B390B24303105DB
:1013F00090F412968D919C9113976115710521F0CF
:10140000FB019383828304C09093010380930003C4
:10141000FD01329644C0FD01E20FF31F81939193C9
:10142000225031092D933C933AC02091FE02309115
:10143000FF02232B41F420910201309103013093EC
:10144000FF022093FE02209100013091010121153D
:10145000310541F42DB73EB740910401509105018B
:10146000241B350BE091FE02F091FF02E217F30717
:10147000A0F42E1B3F0B2817390778F0AC014E5F04
:101480005F4F2417350748F04E0F5F1F5093FF0240
:101490004093FE028193919302C0E0E0F0E0CF011F
:1014A000DF91CF9108950F931F93CF93DF93009710
:1014B00009F48CC0FC013297138212820091000360
:1014C000109101030115110581F420813181820FF2
:1014D000931F2091FE023091FF022817390779F5FA
:1014E000F093FF02E093FE0271C0D80140E050E0AB
:1014F000AE17BF0750F412962D913C911397AD0192
:101500002115310509F1D901F3CF9D01DA013383AA
:10151000228360817181860F971F8217930769F478
:10152000EC0128813981260F371F2E5F3F4F318311
:1015300020838A819B8193838283452B29F4F093B6
:101540000103E093000342C01396FC93EE931297BD
:10155000ED01499159919E01240F351FE217F307C0
:1015600071F480819181840F951F029611969C934E
:101570008E938281938113969C938E931297E0E0D1
:10158000F0E0D80112968D919C911397009719F075
:10159000F8018C01F6CF8D919C9198012E5F3F4F01
:1015A000820F931F2091FE023091FF022817390706
:1015B00069F4309729F4109201031092000302C0DD
:1015C000138212821093FF020093FE02DF91CF91EB
:1015D0001F910F910895A0E0B0E0E1EFFAE00C94C4
:1015E000F90BEC01009721F4CB010E94BE09B8C0B1
:1015F000FC01E60FF71F9C0122503109E217F307A7
:1016000008F4ACC0D9010D911C911197061717076A
:10161000B0F00530110508F49FC0C8010497861783
:10162000970708F499C002501109061B170B019384
:1016300011936D937C93CF010E94530A8DC05B017F
:10164000A01AB10A4C01800E911EA0910003B09126
:10165000010340E050E0E12CF12C109709F44AC05E
:10166000A815B905D1F56D907C901197630182E0C2
:10167000C80ED11CCA14DB0480F1A3014A195B090E
:101680006A0182E0C80ED11C1296BC901297139684
:10169000AC91B5E0CB16D10440F0B282A383518364
:1016A0004083D9016D937C930AC00E5F1F4FC30125
:1016B000800F911FF90191838083EB2DFA2FE114A4
:1016C000F10431F0D7011396FC93EE93129744C0C6
:1016D000F0930103E09300033FC08D919C9111971B
:1016E0004817590708F4AC017D0112960D90BC9182
:1016F000A02DB3CF8091FE029091FF02881599052D
:10170000E1F446175707C8F4809100019091010158
:10171000009741F48DB79EB74091040150910501A7
:10172000841B950BE817F907C8F4F093FF02E093C8
:10173000FE02F901718360830FC0CB010E94BE09D4
:101740007C01009759F0A801BE010E94BA0BCE019E
:101750000E94530AC70104C0CE0102C080E090E09D
:10176000CDB7DEB7EEE00C94150C81E090E0F89474
:101770000C942C0CFB01DC0102C001900D92415035
:101780005040D8F70895FB01DC018D91019080193C
:101790000110D9F3990B0895FB01DC0101900D9222
:1017A0000020E1F70895A1E21A2EAA1BBB1BFD0140
:1017B0000DC0AA1FBB1FEE1FFF1FA217B307E40730
:1017C000F50720F0A21BB30BE40BF50B661F771F88
:1017D000881F991F1A9469F7609570958095909568
:1017E0009B01AC01BD01CF0108952F923F924F9212
:1017F0005F926F927F928F929F92AF92BF92CF92A1
:10180000DF92EF92FF920F931F93CF93DF93CDB7A9
:10181000DEB7CA1BDB0B0FB6F894DEBF0FBECDBF21
:1018200009942A88398848885F846E847D848C84F2
:101830009B84AA84B984C884DF80EE80FD800C81FB
:101840001B81AA81B981CE0FD11D0FB6F894DEBFDE
:101850000FBECDBFED01089510E0C2E6D0E004C098
:10186000FE010E94B8092196C336D107C9F7F89442
:02187000FFCFA8
:10187200000002038000000000003901B5000201EF
:10188200E000F400800100000000DF02B500330335
:101892004B03C602DE02564D4450565F317C315F27
:1018A200564D4450560D0A00564D4450455F003A7D
:1018B200323A007C005F564D445045002020200003
:1018C2002D2D2D46494E414C20434152442D2D2D64
:1018D2000002303030303641323633443731006D19
:0E18E20061746368696E672063617264000060
:107E0000112484B714BE81FFF0D085E080938100F7
:107E100082E08093C00088E18093C10086E0809377
:107E2000C20080E18093C4008EE0C9D0259A86E02C
:107E300020E33CEF91E0309385002093840096BBD3
:107E4000B09BFECF1D9AA8958150A9F7CC24DD24C4
:107E500088248394B5E0AB2EA1E19A2EF3E0BF2EE7
:107E6000A2D0813461F49FD0082FAFD0023811F036
:107E7000013811F484E001C083E08DD089C08234E0
:107E800011F484E103C0853419F485E0A6D080C0E4
:107E9000853579F488D0E82EFF2485D0082F10E0AE
:107EA000102F00270E291F29000F111F8ED06801E7
:107EB0006FC0863521F484E090D080E0DECF843638
:107EC00009F040C070D06FD0082F6DD080E0C81688
:107ED00080E7D80618F4F601B7BEE895C0E0D1E017
:107EE00062D089930C17E1F7F0E0CF16F0E7DF06D8
:107EF00018F0F601B7BEE89568D007B600FCFDCFD4
:107F0000A601A0E0B1E02C9130E011968C91119780
:107F100090E0982F8827822B932B1296FA010C0160
:107F200087BEE89511244E5F5F4FF1E0A038BF0790
:107F300051F7F601A7BEE89507B600FCFDCF97BE46
:107F4000E89526C08437B1F42ED02DD0F82E2BD052
:107F50003CD0F601EF2C8F010F5F1F4F84911BD097
:107F6000EA94F801C1F70894C11CD11CFA94CF0C13
:107F7000D11C0EC0853739F428D08EE10CD085E9AC
:107F80000AD08FE07ACF813511F488E018D01DD067
:107F900080E101D065CF982F8091C00085FFFCCF94
:107FA0009093C60008958091C00087FFFCCF809118
:107FB000C00084FD01C0A8958091C6000895E0E648
:107FC000F0E098E1908380830895EDDF803219F02E
:107FD00088E0F5DFFFCF84E1DECF1F93182FE3DFCA
:107FE0001150E9F7F2DF1F91089580E0E8DFEE27F6
:047FF000FF270994CA
:027FFE00040479
:0400000300007E007B
:00000001FF