:100000000C9463000C948B000C948B000C945C0497
:100010000C945C040C945C040C948B000C948B008A
:100020000C948B000C948B000C948B000C948B0024
:100030000C948B000C948B000C948B000C948B0014
:100040000C9412040C948B000C94E0030C94BA03EF
:100050000C948B000C948B000C948B000C948B00F4
:100060000C948B000C948B000000000024002700EF
:100070002A0000000008000201000003040700003D
:1000800000000000000000000000250028002B00F8
:1000900000000000230026002900040404040404D6
:1000A0000404020202020202030303030303010227
:1000B00004081020408001020408102001020408F6
:1000C0001020D604000811241FBECFEFD8E0DEBFF9
:1000D000CDBF11E0A0E0B1E0E8EDF0E102C0059095
:1000E0000D92AC34B107D9F722E0ACE4B1E001C025
:1000F0001D92A53AB207E1F710E0C2E6D0E004C0D5
:100100002197FE010E943208C136D107C9F70E942B
:10011000ED050C945F080C940000CF92DF92EF92F3
:10012000FF920F931F93CF93DF936C017A018B01A2
:10013000C0E0D0E0CE15DF0589F0D8016D918D01CA
:10014000D601ED91FC910190F081E02DC601099559
:10015000892B11F47E0102C02196ECCFC701DF91FB
:10016000CF911F910F91FF90EF90DF90CF90089566
:10017000FC01918D828D981761F0828DDF01A80FAF
:10018000B11D5D968C91928D9F5F9F73928F90E0D1
:1001900008958FEF9FEF0895FC01918D828D981740
:1001A00031F0828DE80FF11D858D90E008958FEF7D
:1001B0009FEF0895FC01918D228D892F90E0805C46
:1001C0009F4F821B91098F73992708958DE991E0C4
:1001D0000E94DA0021E0892B09F420E0822F0895A3
:1001E000FC01848DDF01A80FB11DA35ABF4F2C91D4
:1001F000848D90E001968F739927848FA689B789A3
:100200002C93A089B1898C9180648C93938D848D7B
:10021000981306C00288F389E02D80818F7D80834A
:100220000895EF92FF920F931F93CF93DF93EC010A
:1002300081E0888F9B8D8C8D981305C0E889F989A2
:10024000808185FD24C0F62E0B8D10E00F5F1F4FBF
:100250000F731127E02E8C8DE8120CC00FB607FC2F
:10026000FACFE889F989808185FFF5CFCE010E9418
:10027000F000F1CF8B8DFE01E80FF11DE35AFF4F27
:10028000F0820B8FEA89FB898081806207C0EE894A
:10029000FF896083E889F98980818064808381E0B7
:1002A00090E0DF91CF911F910F91FF90EF90089513
:1002B000CF93DF93EC01888D8823C9F0EA89FB890D
:1002C000808185FD05C0A889B9898C9186FD0FC004
:1002D0000FB607FCF5CF808185FFF2CFA889B989D9
:1002E0008C9185FFEDCFCE010E94F000E7CFDF912A
:1002F000CF91089580E090E0892B29F00E94E600DC
:1003000081110C940000089590E0FC01EE58FF4F1D
:100310003491FC01E255FF4F2491FC01E656FF4F5A
:10032000E491EE2309F43BC0332339F1333091F0EB
:1003300038F43130A9F0323001F584B58F7D12C028
:10034000373091F03830A1F03430B9F4809180002A
:100350008F7D03C0809180008F77809380000DC0D7
:1003600084B58F7784BD09C08091B0008F7703C0BA
:100370008091B0008F7D8093B000F0E0EE0FFF1F02
:10038000EA57FF4FA591B4918FB7F894EC916111A2
:1003900003C020952E2301C02E2B2C938FBF0895D0
:1003A000CF93DF9390E0FC01E255FF4F2491FC01D5
:1003B000E656FF4F8491882361F190E0880F991FE2
:1003C000FC01E859FF4FC591D491FC01EA57FF4F5A
:1003D000A591B491611109C09FB7F89488812095C7
:1003E00082238883EC912E230BC0623061F49FB787
:1003F000F8943881822F809583238883EC912E2B6B
:100400002C939FBF06C08FB7F894E8812E2B2883CA
:100410008FBFDF91CF9108953FB7F89480919101FC
:1004200090919201A0919301B091940126B5A89B5F
:1004300005C02F3F19F00196A11DB11D3FBFBA2F76
:10044000A92F982F8827820F911DA11DB11DBC01D6
:10045000CD0142E0660F771F881F991F4A95D1F79B
:1004600008958F929F92AF92BF92CF92DF92EF92B8
:10047000FF926B017C010E940C024B015C01C114D4
:10048000D104E104F104F1F00E940C02DC01CB0183
:1004900088199909AA09BB09883E9340A105B105AD
:1004A00070F321E0C21AD108E108F10888EE880E45
:1004B00083E0981EA11CB11CC114D104E104F10415
:1004C00019F7DDCFFF90EF90DF90CF90BF90AF9006
:1004D0009F908F9008952FB7F89460918D0170913F
:1004E0008E0180918F01909190012FBF08958F927E
:1004F0009F92AF92BF92CF92DF92EF92FF926B01E9
:100500007C010E946B024B015C01C60ED71EE81EE7
:10051000F91E0E946B02681579058A059B0528F073
:10052000C616D706E806F906A0F7FF90EF90DF9011
:10053000CF90BF90AF909F908F90089520918402AC
:10054000309185022817390771F4909182028091C9
:100550008302981741F0E0918202F0E0E45BFE4FE5
:10056000808190E008958FEF9FEF089508951F9385
:10057000CF93DF93DC015C962D913C915D97211523
:10058000310539F481E090E013969C938E93129795
:100590003DC05196ED91FC91529750969C91509789
:1005A000892F80951FB75E964C915E9741FB772708
:1005B00070F941FD6095F8944081772311F0492B43
:1005C00001C048234083E9012197F1F748E05081B9
:1005D00060FF02C0592B01C058235083E9012197C5
:1005E000F1F76695415099F7772321F0908189239F
:1005F000808303C08081982B90831FBF5C968D9170
:100600009C915D970197F1F721E030E0C901DF91FE
:10061000CF911F910895209184023091850228176F
:10062000390771F4809183022091820290E0805C0E
:100630009F4F821B910960E470E00E940A080895B0
:1006400080E090E00895209184023091850228177F
:100650003907B9F49091820280918302981789F04A
:10066000E0918202F0E0E45BFE4F80812091820203
:1006700030E02F5F3F4F2F7333272093820290E0AB
:1006800008958FEF9FEF0895E0918402F091850225
:10069000E817F90769F4A389B4899C918589809545
:1006A00089238C93109285021092840281E0089530
:1006B00080E008956115710579F0FB01019000203B
:1006C000E9F73197AF01461B570BDC01ED91FC9127
:1006D0000280F381E02D099480E090E008954F922C
:1006E0005F926F927F92EF92FF920F931F93CF933F
:1006F000DF93CDB7DEB7A1970FB6F894DEBF0FBE7C
:10070000CDBF7C01FA01CB0119A2223008F42AE006
:100710008E010F5D1F4F422E512C612C712CBF0199
:10072000A30192010E943D08F901CA01015011097B
:100730006A3014F4605D01C0695CD8016C93232BAE
:10074000242B252B61F7B801C7010E945A03A196FB
:100750000FB6F894DEBF0FBECDBFDF91CF911F91D2
:100760000F91FF90EF907F906F905F904F90089562
:100770000E9438081F920F920FB60F9211242F93E8
:100780003F934F935F936F937F938F939F93AF9319
:10079000BF93EF93FF938DE991E00E94F000FF91EA
:1007A000EF91BF91AF919F918F917F916F915F91E9
:1007B0004F913F912F910F900FBE0F901F90189562
:1007C0001F920F920FB60F9211242F938F939F9326
:1007D000EF93FF93E091AD01F091AE018081E09144
:1007E000B301F091B40182FD12C090818091B601F5
:1007F0008F5F8F732091B701821751F0E091B6019E
:10080000F0E0E356FE4F958F8093B60101C08081E2
:10081000FF91EF919F918F912F910F900FBE0F90AD
:100820001F9018951F920F920FB60F9211242F93BD
:100830003F938F939F93AF93BF9380918D0190913E
:100840008E01A0918F01B091900130918C0123E035
:10085000230F2D3720F40196A11DB11D05C026E8F8
:10086000230F0296A11DB11D20938C0180938D0151
:1008700090938E01A0938F01B0939001809191018C
:1008800090919201A0919301B09194010196A11DC4
:10089000B11D8093910190939201A0939301B09325
:1008A0009401BF91AF919F918F913F912F910F90A4
:1008B0000FBE0F901F9018951F920F920FB60F92B8
:1008C00011242F933F934F935F936F937F938F9355
:1008D0009F93AF93BF93EF93FF93E0918402F091C6
:1008E0008502309709F451C0968DA685B785858518
:1008F00091FF04C09C91892329F447C09C918923CE
:1009000009F043C0A389B4899C9185898095892386
:100910008C93868997890197F1F7608D718DA685F3
:10092000B785558538E020E0CB010197F1F7822F9C
:1009300090E095958795282F4C91452309F02068E4
:10094000315091F7868D81FD20958091830290E052
:1009500001968F73992730918202381749F0A09140
:100960008302B0E0A45BBE4F2C938093830203C04C
:10097000868D8160868F828D938D0197F1F7A38993
:10098000B4899C918589892B8C93FF91EF91BF91BC
:10099000AF919F918F917F916F915F914F913F9117
:1009A0002F910F900FBE0F901F9018951092A001DD
:1009B00010929F0188EE93E0A0E0B0E08093A10147
:1009C0009093A201A093A301B093A40124E031E08D
:1009D00030939E0120939D0125EC30E03093AA01D5
:1009E0002093A90124EC30E03093AC012093AB01BB
:1009F00020EC30E03093AE012093AD0121EC30E0EB
:100A00003093B0012093AF0122EC30E03093B2017B
:100A10002093B10126EC30E03093B4012093B30170
:100A20001092B6011092B7011092B8011092B9015C
:100A30001092400210924102109242021092430220
:100A40001092440210924502109246021092470200
:100A5000109248021092490210924A0210924B02E0
:100A600010924C0210924D0210924E0210924F02C0
:100A7000109289021092880280938A0290938B02CE
:100A8000A0938C02B0938D0284E191E09093870251
:100A90008093860210929D0210929C0210929F02F7
:100AA00010929E021092A1021092A0021092A30234
:100AB0001092A2026091A4026E7F6D7F6093A402E7
:100AC0006695617081E0682783E00E94840161E09F
:100AD00083E00E94D001E1EBF0E0E491E093960224
:100AE000EDE9F0E0E491F0E0EE0FFF1FEA57FF4F71
:100AF00085919491909398028093970260E082E0B0
:100B00000E94D0018091A40281FD04C061E082E0D6
:100B10000E94840182E080939202E0EBF0E0E49195
:100B2000E0939302ECE9F0E0E491F0E0EE0FFF1FB8
:100B3000E057FF4F85919491909395028093940292
:100B40008FE190E09093A3028093A20221E030E035
:100B500030939D0220939C022DE130E030939F0260
:100B600020939E022DE030E03093A1022093A0025A
:100B7000209168002460209368002DE630E03093D7
:100B80009A022093990224E020939B020197F1F7A7
:100B9000809184029091850222E086389207E1F0EC
:100BA000009711F00E9444038091A4028E7F8093ED
:100BB000A402109283021092820286E892E090933F
:100BC000850280938402E0919902F0919A029081CB
:100BD00080919B02892B80830895789484B58260EC
:100BE00084BD84B5816084BD85B5826085BD85B5D1
:100BF000816085BD80916E00816080936E0010924F
:100C000081008091810082608093810080918100C9
:100C1000816080938100809180008160809380005A
:100C20008091B10084608093B1008091B0008160B8
:100C30008093B00080917A00846080937A008091E4
:100C40007A00826080937A0080917A00816080933C
:100C50007A0080917A00806880937A001092C100B7
:100C600010927E0210927F021092800210928102F6
:100C700010923C0210923D0210923E0210923F02EE
:100C800068EB7BE080E090E00E9477028DE991E0E4
:100C900090937D0280937C02E091AD01F091AE01D2
:100CA00082E08083E091A901F091AA011082E09195
:100CB000AB01F091AC0180E180831092B501E0912D
:100CC000B101F091B20186E08083E091AF01F09133
:100CD000B001808180618083E091AF01F091B0012B
:100CE000808188608083E091AF01F091B0018081C4
:100CF00080688083E091AF01F091B00180818F7DA9
:100D000080830E946B0260933C0270933D0280934B
:100D10003E0290933F0260E271E080917C029091EC
:100D20007D020E945A036AE070E080E090E00E9439
:100D3000770281E08093500260EB74E080E090E005
:100D40000E94310261E08DE00E94D0016CE786E8EC
:100D500092E00E94B70268E186E892E00E94B70242
:100D600060E086E892E00E94B7026CE786E892E0D5
:100D70000E94B70269E186E892E00E94B70260E053
:100D800086E892E00E94B70262E371E086E892E0B2
:100D90000E945A0384EF882E99249394A12CB12C9D
:100DA0000E946B02672B682B692B41F40E946B0237
:100DB000623071058105910508F40BC10E946B0238
:100DC0006093990170939A0180939B0190939C0189
:100DD000C0909501D0909601E0909701F090980115
:100DE0006C157D058E059F0540F460939501709309
:100DF00096018093970190939801C0909501D090AF
:100E00009601E0909701F09098019B01AC012C199C
:100E10003D094E095F0969017A013AEFC316D10411
:100E2000E104F10408F4D5C0609395017093960134
:100E30008093970190939801809248029092490282
:100E4000A0924A02B0924B0210924C0210924D02B4
:100E500010924E0210924F028091400290914102F6
:100E6000A0914202B09143028093440290934502C4
:100E7000A0934602B09347020E946B026093400227
:100E80007093410280934202909343020E946B024E
:100E900060933C0270933D0280933E0290933F0228
:100EA0000E946B026B017C0167E371E080917C0220
:100EB00090917D020E945A032AE041E050E060E0F8
:100EC00070E080917C0290917D020E946F036EE33E
:100ED00071E080917C0290917D020E945A032AE089
:100EE000B701A60180917C0290917D020E946F0360
:100EF00060E471E080917C0290917D020E945A032F
:100F00008091400290914102A0914202B09143022F
:100F1000B701A601481B590B6A0B7B0B2AE0809195
:100F20007C0290917D020E946F0360E471E08091E9
:100F30007C0290917D020E945A03409140025091A0
:100F4000410260914202709143028091440290916B
:100F50004502A0914602B0914702481B590B6A0B0B
:100F60007B0B2AE080917C0290917D020E946F03AE
:100F700062E471E080917C0290917D020E945A03AC
:100F80000E946B02AB01BC012AE080917C0290912F
:100F90007D020E946F03E0907C02F0907D0264E489
:100FA00071E0C7010E945A036FE271E0C7010E941D
:100FB0005A0362E070E080E090E00E9477020E94B5
:100FC0006B026093400270934102809342029093BF
:100FD000430261E08DE00E94840164EF71E080E0F3
:100FE00090E00E94310260E08DE00E94840164EF95
:100FF00071E080E090E00E9431020E947A01D0CE40
:1010000084E191E0909387028093860286E892E0E3
:101010000C94440397FB072E16F4009407D077FD39
:1010200009D00E941E0807FC05D03EF490958195DA
:101030009F4F0895709561957F4F0895AA1BBB1B24
:1010400051E107C0AA1FBB1FA617B70710F0A61BC8
:10105000B70B881F991F5A95A9F780959095BC01E9
:10106000CD010895EE0FFF1F0590F491E02D099436
:1010700081E090E0F8940C945F08A1E21A2EAA1B7C
:10108000BB1BFD010DC0AA1FBB1FEE1FFF1FA21738
:10109000B307E407F50720F0A21BB30BE40BF50B35
:1010A000661F771F881F991F1A9469F760957095BE
:1010B000809590959B01AC01BD01CF01089510E092
:1010C000C2E6D0E004C0FE010E9432082196C33679
:0810D000D107C9F7F894FFCF26
:1010D8000000000011018D00DA00B800CC005801B2
:1010E80000000000B7028D000B0323039E02B60226
:1010F800564D4450565F317C315F564D4450560D25
:101108000A006865726500564D4450455F003A32E2
:0C1118003A007C005F564D44504500003A
:107E0000112484B714BE81FFF0D085E080938100F7
:107E100082E08093C00088E18093C10086E0809377
:107E2000C20080E18093C4008EE0C9D0259A86E02C
:107E300020E33CEF91E0309385002093840096BBD3
:107E4000B09BFECF1D9AA8958150A9F7CC24DD24C4
:107E500088248394B5E0AB2EA1E19A2EF3E0BF2EE7
:107E6000A2D0813461F49FD0082FAFD0023811F036
:107E7000013811F484E001C083E08DD089C08234E0
:107E800011F484E103C0853419F485E0A6D080C0E4
:107E9000853579F488D0E82EFF2485D0082F10E0AE
:107EA000102F00270E291F29000F111F8ED06801E7
:107EB0006FC0863521F484E090D080E0DECF843638
:107EC00009F040C070D06FD0082F6DD080E0C81688
:107ED00080E7D80618F4F601B7BEE895C0E0D1E017
:107EE00062D089930C17E1F7F0E0CF16F0E7DF06D8
:107EF00018F0F601B7BEE89568D007B600FCFDCFD4
:107F0000A601A0E0B1E02C9130E011968C91119780
:107F100090E0982F8827822B932B1296FA010C0160
:107F200087BEE89511244E5F5F4FF1E0A038BF0790
:107F300051F7F601A7BEE89507B600FCFDCF97BE46
:107F4000E89526C08437B1F42ED02DD0F82E2BD052
:107F50003CD0F601EF2C8F010F5F1F4F84911BD097
:107F6000EA94F801C1F70894C11CD11CFA94CF0C13
:107F7000D11C0EC0853739F428D08EE10CD085E9AC
:107F80000AD08FE07ACF813511F488E018D01DD067
:107F900080E101D065CF982F8091C00085FFFCCF94
:107FA0009093C60008958091C00087FFFCCF809118
:107FB000C00084FD01C0A8958091C6000895E0E648
:107FC000F0E098E1908380830895EDDF803219F02E
:107FD00088E0F5DFFFCF84E1DECF1F93182FE3DFCA
:107FE0001150E9F7F2DF1F91089580E0E8DFEE27F6
:047FF000FF270994CA
:027FFE00040479
:0400000300007E007B
:00000001FF