:100000000C9463000C948B000C948B000C943404BF
:100010000C9434040C9434040C948B000C948B00DA
:100020000C948B000C948B000C948B000C948B0024
:100030000C948B000C948B000C948B000C948B0014
:100040000C9484030C948B000C9446030C942003B2
:100050000C948B000C948B000C948B000C948B00F4
:100060000C948B000C948B000000000023002600F1
:10007000290000000000240027002A0000000000E2
:10008000250028002B0004040404040404040202D4
:100090000202020203030303030301020408102007
:1000A0004080010204081020010204081020000012
:1000B0000008000201000003040700000000000027
:1000C0000000FF09E50911241FBECFEFD8E0DEBF15
:1000D000CDBF11E0A0E0B1E0E2E4FAE102C005909A
:1000E0000D92A63BB107D9F723E0A6EBB1E001C022
:1000F0001D92AD33B207E1F710E0C2E6D0E004C0D4
:100100002197FE010E94A00AC136D107C9F70E94BB
:10011000E2060C94140D0C940000FC01918D828D6C
:10012000981761F0828DDF01A80FB11D5D968C914B
:10013000928D9F5F9F73928F90E008958FEF9FEF56
:100140000895FC01918D828D981731F0828DE80F12
:10015000F11D858D90E008958FEF9FEF0895FC01CC
:10016000918D228D892F90E0805C9F4F821B910999
:100170008F73992708958FE092E00E94AF0021E0ED
:10018000892B09F420E0822F0895FC01848DDF0182
:10019000A80FB11DA35ABF4F2C91848D90E00196FA
:1001A0008F739927848FA689B7892C93A089B189E9
:1001B0008C9180648C93938D848D981306C00288F3
:1001C000F389E02D80818F7D80830895EF92FF92E7
:1001D0000F931F93CF93DF93EC0181E0888F9B8D6A
:1001E0008C8D981305C0E889F989808185FD24C02C
:1001F000F62E0B8D10E00F5F1F4F0F731127E02EAF
:100200008C8DE8120CC00FB607FCFACFE889F9898B
:10021000808185FFF5CFCE010E94C500F1CF8B8D87
:10022000FE01E80FF11DE35AFF4FF0820B8FEA89C0
:10023000FB898081806207C0EE89FF896083E8893D
:10024000F98980818064808381E090E0DF91CF91A3
:100250001F910F91FF90EF900895CF93DF93EC01E2
:10026000888D8823C9F0EA89FB89808185FD05C0D6
:10027000A889B9898C9186FD0FC00FB607FCF5CF10
:10028000808185FFF2CFA889B9898C9185FFEDCF58
:10029000CE010E94C500E7CFDF91CF91089580E0A5
:1002A00090E0892B29F00E94BB0081110C94000082
:1002B000089590E0FC01E255FF4F3491FC01E656B1
:1002C000FF4F2491FC01EA57FF4FE491EE2309F41C
:1002D0003BC0332339F1333091F038F43130A9F099
:1002E000323001F584B58F7D12C0373091F038304F
:1002F000A1F03430B9F4809180008F7D03C08091EB
:1003000080008F77809380000DC084B58F7784BD87
:1003100009C08091B0008F7703C08091B0008F7DBD
:100320008093B000F0E0EE0FFF1FE458FF4FA5915F
:10033000B4918FB7F894EC91611103C020952E23EE
:1003400001C02E2B2C938FBF0895CF93DF9390E0A5
:10035000FC01E656FF4F2491FC01EA57FF4F8491C0
:10036000882361F190E0880F991FFC01EE58FF4F40
:10037000C591D491FC01E458FF4FA591B49161114E
:1003800009C09FB7F8948881209582238883EC91D7
:100390002E230BC0623061F49FB7F8943881822F0E
:1003A000809583238883EC912E2B2C939FBF06C0CE
:1003B0008FB7F894E8812E2B28838FBFDF91CF91E0
:1003C00008953FB7F8948091FF0190910002A091A9
:1003D0000102B091020226B5A89B05C02F3F19F07B
:1003E0000196A11DB11D3FBFBA2FA92F982F8827B5
:1003F000820F911DA11DB11DBC01CD0142E0660F10
:10040000771F881F991F4A95D1F708958F929F9261
:10041000AF92BF92CF92DF92EF92FF926B017C017D
:100420000E94E1014B015C01C114D104E104F1041B
:10043000F1F00E94E101DC01CB0188199909AA09B8
:10044000BB09883E9340A105B10570F321E0C21AB3
:10045000D108E108F10888EE880E83E0981EA11CFF
:10046000B11CC114D104E104F10419F7DDCFFF90F0
:10047000EF90DF90CF90BF90AF909F908F900895B6
:100480002091F8013091F9012817390771F4909102
:10049000F7018091F601981741F0E091F701F0E043
:1004A000EA54FE4F808190E008958FEF9FEF08950A
:1004B00008951F93CF93DF93DC015C962D913C91BF
:1004C0005D972115310539F481E090E013969C93F6
:1004D0008E9312973DC05196ED91FC915297509694
:1004E0009C915097892F80951FB75E964C915E978F
:1004F00041FB772770F941FD6095F894408177239F
:1005000011F0492B01C048234083E9012197F1F7FD
:1005100048E0508160FF02C0592B01C0582350832E
:10052000E9012197F1F76695415099F7772321F07A
:1005300090818923808303C08081982B90831FBF83
:100540005C968D919C915D970197F1F721E030E0E9
:10055000C901DF91CF911F9108952091F801309149
:10056000F9012817390771F48091F6012091F701FC
:1005700090E0805C9F4F821B910960E470E00E94D4
:10058000590A089580E090E008952091F801309193
:10059000F90128173907B9F49091F7018091F60114
:1005A000981789F0E091F701F0E0EA54FE4F80815E
:1005B0002091F70130E02F5F3F4F2F7333272093B7
:1005C000F70190E008958FEF9FEF0895CF92DF92AB
:1005D000EF92FF926B010E94C3056EE371E08FE022
:1005E00092E00E94E0060D2C000CEE08FF08F7FEDA
:1005F00014C0E0910F02F09110020190F081E02D03
:100600006DE28FE092E0099544275527BA014C1915
:100610005D096E097F092AE003C02AE0B701A6013F
:100620008FE092E00E9497066FE471E08FE092E025
:10063000FF90EF90DF90CF900C9472060E949D0C7B
:100640001F920F920FB60F9211242F933F934F9347
:100650005F936F937F938F939F93AF93BF93EF932A
:10066000FF938FE092E00E94C500FF91EF91BF9150
:10067000AF919F918F917F916F915F914F913F913A
:100680002F910F900FBE0F901F9018951F920F92F1
:100690000FB60F9211242F938F939F93EF93FF9395
:1006A000E0911F02F09120028081E0912502F091FB
:1006B000260282FD12C09081809128028F5F8F7385
:1006C00020912902821751F0E0912802F0E0E15FC9
:1006D000FD4F958F8093280201C08081FF91EF919B
:1006E0009F918F912F910F900FBE0F901F90189593
:1006F0002FB7F8946091FB017091FC018091FD018E
:100700009091FE012FBF08951F920F920FB60F9286
:1007100011242F933F938F939F93AF93BF93809117
:10072000FB019091FC01A091FD01B091FE0130917F
:10073000FA0123E0230F2D3720F40196A11DB11DEE
:1007400005C026E8230F0296A11DB11D2093FA01D2
:100750008093FB019093FC01A093FD01B093FE01F7
:100760008091FF0190910002A0910102B0910202DC
:100770000196A11DB11D8093FF0190930002A093EB
:100780000102B0930202BF91AF919F918F913F916F
:100790002F910F900FBE0F901F9018950F931F93DE
:1007A000CF93DF93EC01162F042F1B821A8288EE61
:1007B00093E0A0E0B0E08C839D83AE83BF8382E3AF
:1007C00091E0998388831F8A1E8A198E188E1B8E4A
:1007D0001A8E1D8E1C8E6E8D6E7F20FB61F96E8FC2
:1007E0006695617081E06827842F0E94590161E05D
:1007F000802F0E94A501402F50E0FA01E656FF4FDE
:10080000E491E88BFA01EA57FF4FE491F0E0EE0F34
:10081000FF1FE458FF4F859194919A8B898B60E07C
:10082000812F0E94A5018E8D81FD04C061E0812F82
:100830000E9459011C87612F70E0FB01E656FF4FB3
:10084000E491ED87FB01EA57FF4FE491F0E0EE0FF2
:10085000FF1FE859FF4F859194919F878E87DF9105
:10086000CF911F910F9108951F920F920FB60F9283
:1008700011242F933F934F935F936F937F938F93A5
:100880009F93AF93BF93EF93FF93E091F801F091A3
:10089000F901309709F451C0968DA685B7858585F5
:1008A00091FF04C09C91892329F447C09C9189231E
:1008B00009F043C0A389B4899C91858980958923D7
:1008C0008C93868997890197F1F7608D718DA68544
:1008D000B785558538E020E0CB010197F1F7822FED
:1008E00090E095958795282F4C91452309F0206835
:1008F000315091F7868D81FD20958091F60190E031
:1009000001968F7399273091F701381749F0A0911C
:10091000F601B0E0AA54BE4F2C938093F60103C0B9
:10092000868D8160868F828D938D0197F1F7A389E3
:10093000B4899C918589892B8C93FF91EF91BF910C
:10094000AF919F918F917F916F915F914F913F9167
:100950002F910F900FBE0F901F901895E091F80106
:10096000F091F901E817F90769F4A389B4899C911A
:100970008589809589238C931092F9011092F80152
:1009800081E0089580E00895CF93DF93EC019A0110
:10099000AB011B8E1A8E198E188E1F8A1E8A60E07C
:1009A00079E08DE390E00E946D0AF9012430310571
:1009B00018F0C901039702C081E090E09D8F8C8FF1
:1009C0006C85663108F069C0C901969587958431B8
:1009D000910510F0439702C081E090E09F8B8E8BD1
:1009E000369718F0C901059702C081E090E0998F11
:1009F000888FC901880F991F280F391F36952795B1
:100A0000369527952D30310518F02C50310902C04C
:100A100021E030E03B8F2A8F90916800683050F0E1
:100A200021E06E3008F420E081E001C0880F2A95B3
:100A3000EAF701C084E0892B809368009C85983098
:100A400038F09E3040F0963148F020E030E008C0A9
:100A50002DE630E005C02BE630E002C02CE630E0A9
:100A60003C8B2B8B983030F481E001C0880F9A9535
:100A7000EAF70EC0292F30E09E3018F428503109D3
:100A800002C02E50310981E001C0880F2A95EAF793
:100A90008D8B8C8D9D8D0197F1F78A8D9B8D892B88
:100AA000E1F08091F8019091F9018C179D07A9F070
:100AB000009711F00E94AE048E8D8E7F8E8F109263
:100AC000F6011092F701D093F901C093F801EB8978
:100AD000FC8990818D89892B8083DF91CF91089546
:100AE000CF92DF92EF92FF920F931F93CF93DF93FA
:100AF0006C017A018B01C0E0D0E0CE15DF0589F0F2
:100B0000D8016D918D01D601ED91FC910190F0819C
:100B1000E02DC6010995892B11F47E0102C02196B2
:100B2000ECCFC701DF91CF911F910F91FF90EF9014
:100B3000DF90CF900895EFE0F2E0A089B18982E0E4
:100B40008C93A485B5851C92A685B7858FEC8C9374
:100B5000108EA489B58986E08C93A289B3898C9183
:100B600080618C93A289B3898C9188608C93A289CF
:100B7000B3898C9180688C930288F389E02D808101
:100B80008F7D80830895FC0144815581608171814E
:100B90008FE092E00C94700580E480937C0080915B
:100BA0007A00806480937A0080917A0086FDFCCF81
:100BB000809178002091790090E0922B08958F9297
:100BC0009F92AF92BF92CF92DF92EF92FF926B0112
:100BD0007C010E9478034B015C01C60ED71EE81E03
:100BE000F91E0E947803681579058A059B0528F08F
:100BF000C616D706E806F906A0F7FF90EF90DF903B
:100C0000CF90BF90AF909F908F9008950F931F93B8
:100C1000CF93DF93EC0188819981009729F02A8195
:100C20003B812617370788F48B016F5F7F4F0E9447
:100C3000D30B009761F0998388831B830A832C81EF
:100C40003D81232B11F4FC01108281E001C080E082
:100C5000DF91CF911F910F910895EF92FF920F9323
:100C60001F93CF93DF93EC017B018A01BA010E94AD
:100C700006062881398181110DC02115310519F031
:100C8000C9010E943B0B198218821D821C821B82A3
:100C90001A8206C01D830C83B701C9010E94B40CDF
:100CA000CE01DF91CF911F910F91FF90EF900895AA
:100CB000FC01808191810C943B0BFC01118210821C
:100CC00013821282158214826115710551F0FB01A5
:100CD00001900020E9F73197AF01461B570B0C94A8
:100CE0002D0608956115710579F0FB010190002032
:100CF000E9F73197AF01461B570BDC01ED91FC91F1
:100D00000280F381E02D099480E090E00895CF9374
:100D1000DF930E94C305EC016FE471E08FE092E085
:100D20000E9472068C0F9D1FDF91CF9108954F9204
:100D30005F926F927F92EF92FF920F931F93CF93E8
:100D4000DF93CDB7DEB7A1970FB6F894DEBF0FBE25
:100D5000CDBF7C01FA01CB0119A2223008F42AE0B0
:100D60008E010F5D1F4F422E512C612C712CBF0143
:100D7000A30192010E94BB0CF901CA0101501109A3
:100D80006A3014F4605D01C0695CD8016C93232B58
:100D9000242B252B61F7B801C7010E947206A1968A
:100DA0000FB6F894DEBF0FBECDBFDF91CF911F917C
:100DB0000F91FF90EF907F906F905F904F9008950C
:100DC0000C947206CF93DF93CDB7DEB760970FB662
:100DD000F894DEBF0FBECDBF789484B5826084BD29
:100DE00084B5816084BD85B5826085BD85B581602F
:100DF00085BD80916E00816080936E0010928100AD
:100E00008091810082608093810080918100816067
:100E10008093810080918000816080938000809128
:100E2000B10084608093B1008091B00081608093B4
:100E3000B00080917A00846080937A0080917A007B
:100E4000826080937A0080917A00816080937A003A
:100E500080917A00806880937A001092C10010928D
:100E6000F0021092F1021092F2021092F30210922C
:100E7000AE021092AF021092B0021092B10268EB73
:100E80007BE080E090E00E94DF058FE092E09093AD
:100E9000EF028093EE020E949B050E94780360930C
:100EA000AE027093AF028093B0029093B10260E4FF
:100EB00071E08091EE029091EF020E94E0066AE0FC
:100EC00070E080E090E00E94DF0581E08093C20244
:100ED000109204021092030261E08DE00E94A501CD
:100EE00060E08DE00E9459010E949B0540E855E2B8
:100EF00060E070E08BEF92E00E94C40460EB74E06D
:100F000080E090E00E9406026CE78AE193E00E9494
:100F1000590268E18AE193E00E94590260E08AE1A7
:100F200093E00E9459026CE78AE193E00E94590223
:100F300069E18AE193E00E94590260E08AE193E06E
:100F40000E94590204E610E0C12CD12C76010E94C7
:100F5000CC05092E000CAA0BBB0BC80ED91EEA1E2D
:100F6000FB1E0150110999F7C701B60124E630E0D4
:100F700040E050E00E94BB0C309306022093050233
:100F800062E571E0CE0101962D873E874F87588B31
:100F90000E945D062D853E85B901CE0101960E9415
:100FA000E602CE0101960E94580684EF882E99240D
:100FB0009394A12CB12C0E947803672B682B692B8A
:100FC00041F40E947803623071058105910508F4AF
:100FD0000AC10E94780360930B0270930C02809305
:100FE0000D0290930E0200910702109108022091C9
:100FF000090230910A02601771078207930740F4D3
:1010000060930702709308028093090290930A028A
:1010100000910702109108022091090230910A0202
:101020006B017C01C01AD10AE20AF30A970186011A
:101030000A3F11052105310508F4D5C06093070268
:10104000709308028093090290930A028092BA0278
:101050009092BB02A092BC02B092BD021092BE025E
:101060001092BF021092C0021092C1028091B2028F
:101070009091B302A091B402B091B5028093B602F0
:101080009093B702A093B802B093B9020E9478037C
:101090006093B2027093B3028093B4029093B5024E
:1010A0000E9478036093AE027093AF028093B00207
:1010B0009093B1020E9478036B017C0167E671E0B6
:1010C0008091EE029091EF020E94E0062AE041E05A
:1010D00050E060E070E08091EE029091EF020E949B
:1010E00097066EE671E08091EE029091EF020E9409
:1010F000E0062AE0B701A6018091EE029091EF028E
:101100000E94970660E771E08091EE029091EF02F5
:101110000E94E0068091B2029091B302A091B402C5
:10112000B091B502B701A601481B590B6A0B7B0BA6
:101130002AE08091EE029091EF020E94970660E70C
:1011400071E08091EE029091EF020E94E0064091E2
:10115000B2025091B3026091B4027091B5028091D5
:10116000B6029091B702A091B802B091B902481BA3
:10117000590B6A0B7B0B2AE08091EE029091EF02F3
:101180000E94970662E771E08091EE029091EF0273
:101190000E94E0060E947803AB01BC012AE0809126
:1011A000EE029091EF020E9497060091EE021091DC
:1011B000EF0264E771E0C8010E9472066FE471E01B
:1011C000C8010E94720662E070E080E090E00E9438
:1011D000DF050E9478036093B2027093B30280939C
:1011E000B4029093B5028BEF92E00E94AD02209181
:1011F000F8023091F902181619060CF05CC02D3077
:10120000310508F058C08BEF92E00E94C502898337
:101210001A820091F8021091F9020F5F1F4FB80176
:1012200084EF92E00E940606882399F02091F40250
:101230003091F5028091F8029091F902BE016F5F42
:101240007F4F820F931F0E94B40C1093F9020093FA
:10125000F8021A8219821C821B821E821D826091F2
:10126000F4027091F5026115710541F04091F802A8
:101270005091F902CE0101960E942D066BE771E0B4
:10128000CE0107960E945D06CE0107960E94C30517
:101290006EE371E08FE092E00E94E006CE010196DD
:1012A0000E948706CE0107960E945806CE0101963D
:1012B0000E94580698CF2D30310509F063C069E8C7
:1012C00071E0CE0101960E945D06CE0101960E945A
:1012D0008706CE0101960E9458061A8219821C8246
:1012E0001B821E821D826091F4027091F5026115CD
:1012F000710541F04091F8025091F902CE0101963A
:101300000E942D06CE0101960E948706CE0101960D
:101310000E9458068091F8029091F902892BC1F041
:101320006AE971E08091F4029091F5020E94AB0CA1
:10133000892B71F468EA71E0CE0101960E945D0686
:10134000CE0101960E948706CE0101960E945806A2
:101350008BEF92E00E94AE0460ED77E080E090E0D9
:101360000E94060240E855E260E070E08BEF92E0F8
:101370000E94C40440E050E061E571E084EF92E037
:101380000E942D060E94CC058C016AE571E0CE0119
:1013900001960E945D06B801CE0101960E94E60208
:1013A000CE0101960E945806209105023091060256
:1013B0002C5E3F4F201731071CF00E944F01FBCDE0
:1013C00061E08DE00E945901F8CFCF93DF9384EF65
:1013D00092E00E945806C2E3D1E0D093FC02C09391
:1013E000FB028BEF92E00E94AE04D0931B03C093EC
:1013F0001A038AE193E0DF91CF910C94AE04EFE001
:10140000F2E01382128288EE93E0A0E0B0E08483E1
:101410009583A683B7838AE091E09183808385ECEE
:1014200090E09587848784EC90E09787868780ECAE
:1014300090E0918B808B81EC90E0938B828B82EC9F
:1014400090E0958B848B86EC90E0978B868B118E49
:10145000128E138E148EECEAF2E01682178210863A
:101460001186128613861486158616861786108AAC
:10147000118A128A138A148A158A20E043E062E0F6
:101480008AE193E00E94CE0320E046E065E08BEF26
:1014900092E00E94CE0340E052EC61E070E08AE10D
:1014A00093E00E94C40461E571E084EF92E00C9443
:1014B0005D0697FB072E16F4009407D077FD09D040
:1014C0000E948C0A07FC05D03EF4909581959F4FB1
:1014D0000895709561957F4F0895052E97FB1EF432
:1014E00000940E94840A57FD07D00E94BB0C07FCA1
:1014F00003D04EF40C94840A509540953095219574
:101500003F4F4F4F5F4F089590958095709561952F
:101510007F4F8F4F9F4F0895AA1BBB1B51E107C000
:10152000AA1FBB1FA617B70710F0A61BB70B881F73
:10153000991F5A95A9F780959095BC01CD01089502
:10154000EE0FFF1F0590F491E02D0994CF93DF93E8
:101550008230910510F482E090E0E0913B03F0913D
:101560003C0320E030E0C0E0D0E0309711F1408152
:10157000518148175907C0F04817590761F4828113
:101580009381209719F09B838A832BC090933C030F
:1015900080933B0326C02115310519F042175307EC
:1015A00018F49A01BE01DF01EF010280F381E02D02
:1015B000DCCF2115310509F1281B390B2430310509
:1015C00090F412968D919C9113976115710521F0FD
:1015D000FB019383828304C090933C0380933B037D
:1015E000FD01329644C0FD01E20FF31F81939193F8
:1015F000225031092D933C933AC020913903309108
:101600003A03232B41F420910201309103013093DE
:101610003A032093390320910001309101012115F3
:10162000310541F42DB73EB74091040150910501B9
:10163000241B350BE0913903F0913A03E217F307CD
:10164000A0F42E1B3F0B2817390778F0AC014E5F32
:101650005F4F2417350748F04E0F5F1F50933A0332
:10166000409339038193919302C0E0E0F0E0CF0111
:10167000DF91CF9108950F931F93CF93DF9300973E
:1016800009F48CC0FC0132971382128200913B0353
:1016900010913C030115110581F420813181820FE5
:1016A000931F2091390330913A032817390779F5B0
:1016B000F0933A03E093390371C0D80140E050E061
:1016C000AE17BF0750F412962D913C911397AD01C0
:1016D0002115310509F1D901F3CF9D01DA013383D9
:1016E000228360817181860F971F8217930769F4A7
:1016F000EC0128813981260F371F2E5F3F4F318340
:1017000020838A819B8193838283452B29F4F093E4
:101710003C03E0933B0342C01396FC93EE93129775
:10172000ED01499159919E01240F351FE217F307EE
:1017300071F480819181840F951F029611969C937C
:101740008E938281938113969C938E931297E0E0FF
:10175000F0E0D80112968D919C911397009719F0A3
:10176000F8018C01F6CF8D919C9198012E5F3F4F2F
:10177000820F931F2091390330913A0328173907BC
:1017800069F4309729F410923C0310923B0302C095
:101790001382128210933A0300933903DF91CF91A1
:1017A0001F910F910895A0E0B0E0E9EDFBE00C94EB
:1017B000E10CEC01009721F4CB010E94A60AB8C00D
:1017C000FC01E60FF71F9C0122503109E217F307D5
:1017D00008F4ACC0D9010D911C9111970617170799
:1017E000B0F00530110508F49FC0C80104978617B2
:1017F000970708F499C002501109061B170B0193B3
:1018000011936D937C93CF010E943B0B8DC05B01C4
:10181000A01AB10A4C01800E911EA0913B03B09119
:101820003C0340E050E0E12CF12C109709F44AC051
:10183000A815B905D1F56D907C901197630182E0F0
:10184000C80ED11CCA14DB0480F1A3014A195B093C
:101850006A0182E0C80ED11C1296BC9012971396B2
:10186000AC91B5E0CB16D10440F0B282A383518392
:101870004083D9016D937C930AC00E5F1F4FC30153
:10188000800F911FF90191838083EB2DFA2FE114D2
:10189000F10431F0D7011396FC93EE93129744C0F4
:1018A000F0933C03E0933B033FC08D919C911197D3
:1018B0004817590708F4AC017D0112960D90BC91B0
:1018C000A02DB3CF8091390390913A0388159905E3
:1018D000E1F446175707C8F4809100019091010187
:1018E000009741F48DB79EB74091040150910501D6
:1018F000841B950BE817F907C8F4F0933A03E093BB
:101900003903F901718360830FC0CB010E94A60ADD
:101910007C01009759F0A801BE010E94A20CCE01E3
:101920000E943B0BC70104C0CE0102C080E090E0E2
:10193000CDB7DEB7EEE00C94FD0C81E090E0F894BA
:101940000C94140DFB01DC0102C001900D9241507A
:101950005040D8F70895FB01DC018D91019080196A
:101960000110D9F3990B0895FB01DC0101900D9250
:101970000020E1F70895A1E21A2EAA1BBB1BFD016E
:101980000DC0AA1FBB1FEE1FFF1FA217B307E4075E
:10199000F50720F0A21BB30BE40BF50B661F771FB6
:1019A000881F991F1A9469F7609570958095909596
:1019B0009B01AC01BD01CF0108952F923F924F9240
:1019C0005F926F927F928F929F92AF92BF92CF92CF
:1019D000DF92EF92FF920F931F93CF93DF93CDB7D8
:1019E000DEB7CA1BDB0B0FB6F894DEBF0FBECDBF50
:1019F00009942A88398848885F846E847D848C8421
:101A00009B84AA84B984C884DF80EE80FD800C8129
:101A10001B81AA81B981CE0FD11D0FB6F894DEBF0C
:101A20000FBECDBFED01089510E0C2E6D0E004C0C6
:101A3000FE010E94A00A2196C336D107C9F7F89487
:021A4000FFCFD6
:101A420000003D03800000000000E6007005AF00CA
:101A52008D00A1002D01000000001E0370051E0371
:101A62001E031E031E03000000001E03700500007B
:101A7200000059027005AD02C50240025802200062
:101A8200564D4450565F317C315F564D4450560D91
:101A92000A00416D6269656E742054656D706572ED
:101AA20061747572653A00564D4450455F003A3292
:101AB2003A007C005F564D4450450052464944204E
:101AC2006D6573736167653A005F5F5F46494E41BA
:101AD2004C5F434152445F5F5F000230303030362A
:101AE20041323633443731006D61746368696E6721
:061AF20020636172640034
:00000001FF
