:100000000C947D000C94A5000C94A5000C94FB04AA
:100010000C94FB040C94FB040C94A5000C94A50018
:100020000C94A5000C94A5000C94A5000C94D4038A
:100030000C94A5000C94A5000C94A5000C94A500AC
:100040000C948A030C94A5000C946E010C94480146
:100050000C94A5000C94A5000C94A5000C94A5008C
:100060000C94A5000C94A5007A0682068A069206D6
:100070009A06A206B806C006CF06E906F8060007EB
:10008000080717071F0727073607450754076A079A
:100090007D078C079407B507CB07E8070000000031
:1000A00023002600290004040404040404040202BA
:1000B00002020202030303030303010204081020E7
:1000C00040800102040810200102040810200000F2
:1000D0000008000201000003040700000000000007
:1000E000000000000000240027002A00000000009B
:1000F000250028002B0068144A1411241FBECFEFDE
:10010000D8E0DEBFCDBF12E0A0E0B1E0E6E2F0E370
:1001100002C005900D92AE32B107D9F724E0AEE2ED
:10012000B2E001C01D92AD32B207E1F710E0CCE7BA
:10013000D0E004C02197FE010E942715CB37D107DC
:10014000C9F70E94070F0C9406180C940000FC01DC
:10015000918D828D981761F0828DDF01A80FB11DFE
:100160005D968C91928D9F5F9F73928F90E0089522
:100170008FEF9FEF0895FC01918D828D981731F0DC
:10018000828DE80FF11D858D90E008958FEF9FEF30
:100190000895FC01918D228D892F90E0805C9F4F06
:1001A000821B91098F739927089581ED92E00E9437
:1001B000C90021E0892B09F420E0822F0895EF92F5
:1001C000FF920F931F93CF93DF93EC0181E0888F11
:1001D0009B8D8C8D981305C0E889F989808185FDF8
:1001E00024C0F62E0B8D10E00F5F1F4F0F731127E9
:1001F000E02E8C8DE8120CC00FB607FCFACFE88910
:10020000F989808185FFF5CFCE010E947702F1CF79
:100210008B8DFE01E80FF11DE35AFF4FF0820B8F2B
:10022000EA89FB898081806207C0EE89FF8960834B
:10023000E889F98980818064808381E090E0DF91A2
:10024000CF911F910F91FF90EF900895CF93DF937F
:10025000EC01888D8823C9F0EA89FB89808185FDBE
:1002600005C0A889B9898C9186FD0FC00FB607FC1F
:10027000F5CF808185FFF2CFA889B9898C9185FF60
:10028000EDCFCE010E947702E7CFDF91CF910895A5
:100290001F920F920FB60F9211242F933F934F93FB
:1002A0005F936F937F938F939F93AF93BF93EF93DE
:1002B000FF9381ED92E00E947702FF91EF91BF9151
:1002C000AF919F918F917F916F915F914F913F91EE
:1002D0002F910F900FBE0F901F9018951F920F92A5
:1002E0000FB60F9211242F938F939F93EF93FF9349
:1002F000E091E102F091E2028081E091E702F09169
:10030000E80282FD12C090818091EA028F5F8F73B4
:100310002091EB02821751F0E091EA02F0E0EF52F7
:10032000FD4F958F8093EA0201C08081FF91EF918C
:100330009F918F912F910F900FBE0F901F90189546
:1003400080E090E0892B29F00E94D50081110C9467
:10035000000008953FB7F8948091CD029091CE02AD
:10036000A091CF02B091D00226B5A89B05C02F3F27
:1003700019F00196A11DB11D3FBFBA2FA92F982FCB
:100380008827820F911DA11DB11DBC01CD0142E046
:10039000660F771F881F991F4A95D1F708952091FE
:1003A000C5023091C6022817390771F49091C40232
:1003B0008091C302981741F0E091C402F0E0ED573C
:1003C000FD4F808190E008958FEF9FEF089508958D
:1003D0001F93CF93DF93DC015C962D913C915D9749
:1003E0002115310539F481E090E013969C938E93AA
:1003F00012973DC05196ED91FC91529750969C9169
:100400005097892F80951FB75E964C915E9741FB60
:10041000772770F941FD6095F8944081772311F0BA
:10042000492B01C048234083E9012197F1F748E0B7
:10043000508160FF02C0592B01C058235083E9014D
:100440002197F1F76695415099F7772321F0908134
:100450008923808303C08081982B90831FBF5C9683
:100460008D919C915D970197F1F721E030E0C901F2
:10047000DF91CF911F9108952091C5023091C6025E
:100480002817390771F48091C3022091C40290E0CB
:10049000805C9F4F821B910960E470E00E941315FD
:1004A000089580E090E008952091C5023091C60241
:1004B00028173907B9F49091C4028091C3029817A4
:1004C00089F0E091C402F0E0ED57FD4F808120916A
:1004D000C40230E02F5F3F4F2F7333272093C402B5
:1004E00090E008958FEF9FEF08950E943817FC0168
:1004F000848DDF01A80FB11DA35ABF4F2C91848DAD
:1005000090E001968F739927848FA689B7892C93E1
:10051000A089B1898C9180648C93938D848D98137C
:1005200006C00288F389E02D80818F7D8083089545
:10053000833081F028F4813099F08230A1F0089561
:100540008730A9F08830B9F08430D1F480918000F0
:100550008F7D03C0809180008F7780938000089505
:1005600084B58F7702C084B58F7D84BD0895809156
:10057000B0008F7703C08091B0008F7D8093B00072
:1005800008951F93CF93DF93282F30E0F901E253B2
:10059000FF4F8491F901E654FF4FD491F901EA55D8
:1005A000FF4FC491CC23C9F0162F81110E949802ED
:1005B000EC2FF0E0EE0FFF1FE451FF4FA591B49137
:1005C0008FB7F894111105C09C91ED2FE095E923A8
:1005D00002C0EC91ED2BEC938FBFDF91CF911F9177
:1005E0000895CF93DF9390E0FC01E654FF4F2491F0
:1005F000FC01EA55FF4F8491882361F190E0880F58
:10060000991FFC01EE51FF4FC591D491FC01E451BB
:10061000FF4FA591B491611109C09FB7F8948881EB
:10062000209582238883EC912E230BC0623061F4E5
:100630009FB7F8943881822F809583238883EC912B
:100640002E2B2C939FBF06C08FB7F894E8812E2BDA
:1006500028838FBFDF91CF9108958E3008F08E50A0
:100660008770806480937C0080917A00806480939E
:100670007A0080917A0086FDFCCF809178002091ED
:10068000790090E0922B08958F929F92AF92BF9243
:10069000CF92DF92EF92FF926B017C010E94AA0140
:1006A0004B015C01C114D104E104F104F1F00E949A
:1006B000AA01DC01CB0188199909AA09BB09883E66
:1006C0009340A105B10570F321E0C21AD108E108F9
:1006D000F10888EE880E83E0981EA11CB11CC1149D
:1006E000D104E104F10419F7DDCFFF90EF90DF9022
:1006F000CF90BF90AF909F908F9008952FB7F894B0
:100700006091C9027091CA028091CB029091CC0293
:100710002FBF08951F920F920FB60F9211242F939F
:100720003F938F939F93AF93BF938091C902909112
:10073000CA02A091CB02B091CC023091C80223E052
:10074000230F2D3720F40196A11DB11D05C026E809
:10075000230F0296A11DB11D2093C8028093C902E8
:100760009093CA02A093CB02B093CC028091CD02A9
:100770009091CE02A091CF02B091D0020196A11D1E
:10078000B11D8093CD029093CE02A093CF02B0937F
:10079000D002BF91AF919F918F913F912F910F9078
:1007A0000FBE0F901F9018951F920F920FB60F92C9
:1007B00011242F933F934F935F936F937F938F9366
:1007C0009F93AF93BF93EF93FF938091C70287FFEF
:1007D00005C010928500109284001BC02091C702B2
:1007E000022E000C330B8091DA0390E028173907B2
:1007F00084F48091C702082E000C990BFC01EE0FC7
:10080000FF1F8E0F9F1FFC01EA54FC4F808186FD65
:1008100015C08091C7028F5F8093C7022091C702E5
:10082000022E000C330B8091DA0390E02817390771
:10083000C4F48091C7028C3064F113C08091C70268
:10084000082E000C990BFC01EE0FFF1F8E0F9F1F4F
:10085000FC01EA54FC4F808160E08F730E94C1026A
:10086000D8CF8091840090918500049680349C4973
:1008700018F480E49CE905C0809184009091850083
:10088000049690938900809388008FEF8093C7022D
:100890003BC020918400309185008091C702082ED2
:1008A000000C990BFC01EE0FFF1F8E0F9F1FFC0128
:1008B000EA54FC4F81819281820F931F90938900AB
:1008C000809388008091C702082E000C990BFC01D0
:1008D000EE0FFF1F8E0F9F1FFC01EA54FC4F80811B
:1008E00086FF12C08091C702082E000C990BFC01F4
:1008F000EE0FFF1F8E0F9F1FFC01EA54FC4F8081FB
:1009000061E08F730E94C102FF91EF91BF91AF919F
:100910009F918F917F916F915F914F913F912F9117
:100920000F900FBE0F901F9018950F931F93CF93AA
:10093000DF93EC01162F042F1B821A8288EE93E0BE
:10094000A0E0B0E08C839D83AE83BF8386E391E01B
:10095000998388831F8A1E8A198E188E1B8E1A8E81
:100960001D8E1C8E6E8D6E7F20FB61F96E8F6695DD
:10097000617081E06827842F0E94C10261E0802FAE
:100980000E94F102402F50E0FA01E654FF4FE4913B
:10099000E88BFA01EA55FF4FE491F0E0EE0FFF1FFC
:1009A000E451FF4F859194919A8B898B60E0812F60
:1009B0000E94F1028E8D81FD04C061E0812F0E94B2
:1009C000C1021C87612F70E0FB01E654FF4FE491E8
:1009D000ED87FB01EA55FF4FE491F0E0EE0FFF1FBA
:1009E000E456FF4F859194919F878E87DF91CF9139
:1009F0001F910F9108951F920F920FB60F9211241D
:100A00002F933F934F935F936F937F938F939F9316
:100A1000AF93BF93EF93FF93E091C502F091C602AD
:100A2000309709F451C0968DA685B785858591FFCD
:100A300004C09C91892329F447C09C91892309F023
:100A400043C0A389B4899C918589809589238C931F
:100A5000868997890197F1F7608D718DA685B78595
:100A6000558538E020E0CB010197F1F7822F90E027
:100A700095958795282F4C91452309F02068315092
:100A800091F7868D81FD20958091C30290E00196BB
:100A90008F7399273091C402381749F0A091C3028F
:100AA000B0E0AD57BD4F2C938093C30203C0868D39
:100AB0008160868F828D938D0197F1F7A389B48928
:100AC0009C918589892B8C93FF91EF91BF91AF9178
:100AD0009F918F917F916F915F914F913F912F9156
:100AE0000F900FBE0F901F901895E091C502F091E6
:100AF000C602E817F90769F4A389B4899C9185892E
:100B0000809589238C931092C6021092C50281E0D1
:100B1000089580E00895CF93DF93EC019A01AB0133
:100B20001B8E1A8E198E188E1F8A1E8A60E079E03D
:100B30008DE390E00E948E17F9012430310518F002
:100B4000C901039702C081E090E09D8F8C8F6C8576
:100B5000663108F069C0C901969587958431910581
:100B600010F0439702C081E090E09F8B8E8B369708
:100B700018F0C901059702C081E090E0998F888F35
:100B8000C901880F991F280F391F3695279536956B
:100B900027952D30310518F02C50310902C021E085
:100BA00030E03B8F2A8F90916800683050F021E050
:100BB0006E3008F420E081E001C0880F2A95EAF742
:100BC00001C084E0892B809368009C85983038F0C0
:100BD0009E3040F0963148F020E030E008C02DE62D
:100BE00030E005C02BE630E002C02CE630E03C8B64
:100BF0002B8B983030F481E001C0880F9A95EAF78A
:100C00000EC0292F30E09E3018F42850310902C060
:100C10002E50310981E001C0880F2A95EAF78D8BAB
:100C20008C8D9D8D0197F1F78A8D9B8D892BE1F03D
:100C30008091C5029091C6028C179D07A9F000977C
:100C400011F00E9475058E8D8E7F8E8F1092C302DB
:100C50001092C402D093C602C093C502EB89FC89EE
:100C600090818D89892B8083DF91CF910895CF92D8
:100C7000DF92EF92FF920F931F93CF93DF9300D0F9
:100C800000D000D0CDB7DEB7BC018FED93E00E945D
:100C9000E10D10926C0210926B02A091DF03B091F3
:100CA000E0030091E3031091E40360E070E042E0B0
:100CB00050E021E030E06017710709F4B5C11097EA
:100CC00009F4AFC1FD01E60FF71FE081CE2EEE0F54
:100CD000DD08EE08FF08F601E156F109EA31F105F9
:100CE00008F09FC1EC5CFF4F80916B0290916C0209
:100CF0000C942715FC01EE0FFF1FE25DFD4F3183C1
:100D000020838DC0FC01EE0FFF1FE25DFD4F51837C
:100D100040833DC0FC01EE0FFF1FE25DFD4F51839C
:100D2000408317C0FC01EE0FFF1FE25DFD4F5183B2
:100D30004083C1C0FC01EE0FFF1FE25DFD4F318318
:100D40002083CFC0FC01EE0FFF1FE25DFD4F31831A
:100D50002083FC01EE0FFF1FE05DFD4F31832083F8
:100D6000FC01EE0FFF1FEE5CFD4F5183408345C138
:100D7000FC01EE0FFF1FE25DFD4F518340838CC0ED
:100D8000FC01EE0FFF1FE25DFD4F31832083FC016C
:100D9000EE0FFF1FE05DFD4F3183208327C1FC0173
:100DA000EE0FFF1FE25DFD4F31832083FC01EE0F4C
:100DB000FF1FE05DFD4F31832083FC013396F093EC
:100DC0006C02E0936B02880F991FFC01EE5CFD4FF3
:100DD00026C1FC01EE0FFF1FE25DFD4F3183208332
:100DE000FC01EE0FFF1FE05DFD4F51834083E1C02A
:100DF000FC01EE0FFF1FE25DFD4F5183408384C075
:100E0000FC01EE0FFF1FE25DFD4F31832083E7C041
:100E1000FC01EE0FFF1FE25DFD4F51834083FC019B
:100E2000EE0FFF1FE05DFD4F51834083C6CFFC01F5
:100E3000EE0FFF1FE25DFD4F51834083B7CFFC01F2
:100E4000EE0FFF1FE25DFD4F5183408374C0FC0134
:100E5000EE0FFF1FE25DFD4F31832083FC01EE0F9B
:100E6000FF1FE05DFD4F518340837ACFFC01EE0F01
:100E7000FF1FE25DFD4F51834083FC01EE0FFF1F1A
:100E8000E05DFD4F518340837EC0FC01EE0FFF1FEC
:100E9000E25DFD4F31832083FC01EE0FFF1FE05D1B
:100EA000FD4F518340830EC0FC01EE0FFF1FE25D3A
:100EB000FD4F31832083FC01EE0FFF1FE05DFD4FEE
:100EC00031832083FC01EE0FFF1FEE5CFD4F318369
:100ED00020833FC0FC01EE0FFF1FE25DFD4F5183F9
:100EE0004083FC013296F0936C02E0936B02880F12
:100EF000991FFC01E05DFD4F92C0FC01EE0FFF1F4A
:100F0000E25DFD4F31832083FC01EE0FFF1FE05DAA
:100F1000FD4F3183208316C0FC01EE0FFF1FE25D01
:100F2000FD4F3183208328C0FC01EE0FFF1FE25DDF
:100F3000FD4F31832083FC01EE0FFF1FE05DFD4F6D
:100F400051834083FC01EE0FFF1FEE5CFD4F518388
:100F50004083FC013496F0936C02E0936B02880F9F
:100F6000991FFC01EC5CFD4F5AC0FC01EE0FFF1F06
:100F7000E25DFD4F51834083FC01EE0FFF1FE05DFA
:100F8000FD4F31832083FC01EE0FFF1FEE5CFD4F10
:100F90003183208315C0FC01EE0FFF1FE25DFD4F82
:100FA00051834083FC01EE0FFF1FE05DFD4F318355
:100FB0002083FC01EE0FFF1FEE5CFD4F5183408349
:100FC000FC01EE0FFF1FEC5CFD4F518340831CC002
:100FD000FC01EE0FFF1FE25DFD4F51834083FC01DA
:100FE000EE0FFF1FE05DFD4F51834083FC01EE0FCC
:100FF000FF1FEE5CFD4F31832083FC01EE0FFF1FCE
:10100000EC5CFD4F31832083FC013596F0936C023C
:10101000E0936B02880F991FFC01EA5CFD4F11827F
:1010200010826F5F7F4F47CE63EF71E081ED92E0FA
:101030000E94C50E80916B0290916C020E949B0EE3
:10104000E0916B02F0916C02EE0FFF1FE45DFD4F2B
:1010500083E090E09183808310926C0210926B0287
:1010600060E072E0CE0101960E94070ECE0101966B
:101070000E94910BCE0101960E94020E9EE2E92E83
:1010800092E0F92E00E010E025E0D22E2091E3035B
:101090003091E403D29EC001D39E900D112401969D
:1010A0000817190718F5F701819191917F01813097
:1010B000910519F46CE072E012C08230910519F4C8
:1010C0006EE072E00CC0009719F46CE272E007C0A9
:1010D000039719F460E172E002C064E172E081ED0F
:1010E00092E00E94C50E0F5F1F4FD0CF0E947E037B
:1010F00060936D0270936E0280936F029093700202
:1011000061E08DE00E94C10281E080936A0210924A
:10111000710226960FB6F894DEBF0FBECDBFDF91E9
:10112000CF911F910F91FF90EF90DF90CF90089596
:101130006CE78AE094E00E94E80160E08AE094E0D5
:101140000E94E80168E172E08AE094E00E94C50E26
:1011500064E670E080E090E00E9444032AE34EE5FC
:101160006CE182E20E94630C85E00E949F0C84E0A7
:101170000E949F0C23E345E469E28BE30E942C0C60
:1011800023E345E469E28BE30E94630C69E280E4B7
:101190000E94FD0B64E670E080E090E00E94440352
:1011A00022E344E46AE28CE30E942C0C69E281E4CD
:1011B0000E94FD0B64E670E080E090E00E94440332
:1011C00022E344E46AE28CE30E942C0C69E282E4AC
:1011D0000E94FD0B64E670E080E090E00E94440312
:1011E00022E344E46AE28CE30E942C0C69E283E48B
:1011F0000E94FD0B64E670E080E090E00E944403F2
:1012000022E344E46AE28CE30E942C0C69E284E469
:101210000E94FD0B64E670E080E090E00E944403D1
:1012200022E344E46AE28CE30E942C0C69E285E448
:101230000E94FD0B64E670E080E090E00E944403B1
:1012400022E344E46AE28CE30E942C0C6AE285E427
:101250000E94FD0B64E670E080E090E00E94440391
:1012600022E344E46AE28CE30E942C0C6BE285E406
:101270000E94FD0B64E670E080E090E00E94440371
:1012800022E344E46AE28CE30E942C0C6CE285E4E5
:101290000E94FD0B64E670E080E090E00E94440351
:1012A00022E344E46AE28CE30E942C0C6DE285E4C4
:1012B0000E94FD0B64E670E080E090E00E94440331
:1012C00022E344E46AE28CE30E942C0C6EE285E4A3
:1012D0000E94FD0B64E670E080E090E00E94440311
:1012E00022E344E46AE28CE30E942C0C6FE285E482
:1012F0000E94FD0B64E670E080E090E00E944403F1
:1013000022E344E46AE28CE30E942C0C60E385E46F
:101310000E94FD0B64E670E080E090E00E944403D0
:1013200022E344E46AE28CE30E942C0C61E385E44E
:101330000E94FD0B64E670E080E090E00E944403B0
:1013400022E344E46AE28CE30E942C0C62E385E42D
:101350000E94FD0B64E670E080E090E00E94440390
:1013600022E344E46AE28CE30E942C0C63E385E40C
:101370000E94FD0B64E670E080E090E00E94440370
:1013800022E344E46AE28CE30E942C0C63E384E4ED
:101390000E94FD0B64E670E080E090E00E94440350
:1013A00022E344E46AE28CE30E942C0C63E383E4CE
:1013B0000E94FD0B64E670E080E090E00E94440330
:1013C00022E344E46AE28CE30E942C0C63E382E4AF
:1013D0000E94FD0B64E670E080E090E00E94440310
:1013E00022E344E46AE28CE30E942C0C63E381E490
:1013F0000E94FD0B64E670E080E090E00E944403F0
:1014000022E344E46AE28CE30E942C0C63E380E470
:101410000E94FD0B64E670E080E090E00E944403CF
:1014200022E344E46AE28CE30E942C0C63E38FE342
:101430000E94FD0B64E670E080E090E00E944403AF
:1014400022E344E46AE28CE30E942C0C63E38EE323
:101450000E94FD0B64E670E080E090E00E9444038F
:1014600022E344E46AE28CE30E942C0C63E38DE304
:101470000E94FD0B64E670E080E090E00E9444036F
:1014800022E344E46AE28CE30E942C0C63E38CE3E5
:101490000E94FD0B64E670E080E090E00E9444034F
:1014A00022E344E46AE28CE30E942C0C63E38BE3C6
:1014B0000E94FD0B64E670E080E090E00E9444032F
:1014C00022E344E46AE28CE30E942C0C62E38BE3A7
:1014D0000E94FD0B64E670E080E090E00E9444030F
:1014E00061E38BE30E94FD0B60E38BE30E94FD0B45
:1014F00064E670E080E090E00E94440322E344E46C
:101500006AE28CE30E942C0C6FE28BE30E94FD0BDD
:1015100064E670E080E090E00E94440322E344E44B
:101520006AE28CE30E942C0C6EE28BE30E94FD0BBE
:1015300064E670E080E090E00E94440322E344E42B
:101540006AE28CE30E942C0C6DE28BE30E94FD0B9F
:1015500064E670E080E090E00E94440322E344E40B
:101560006AE28CE30E942C0C6CE28BE30E94FD0B80
:1015700064E670E080E090E00E94440322E344E4EB
:101580006AE28CE30E942C0C6BE28BE30E94FD0B61
:1015900064E670E080E090E00E94440322E344E4CB
:1015A0006AE28CE30E942C0C6AE28BE30E94FD0B42
:1015B00064E670E080E090E00E94440322E344E4AB
:1015C0006AE28CE30E942C0C69E28BE30E94FD0B23
:1015D00064E670E080E090E00E94440322E344E48B
:1015E0006AE28CE30E942C0C69E28BE30E94FD0B03
:1015F00064E670E080E090E00E94440322E344E46B
:101600006AE28CE30E942C0C69E28CE30E94FD0BE1
:1016100064E670E080E090E00E94440322E344E44A
:101620006AE28CE30E942C0C69E28DE30E94FD0BC0
:1016300064E670E080E090E00E94440322E344E42A
:101640006AE28CE30E942C0C69E28EE30E94FD0B9F
:1016500064E670E080E090E00E94440322E344E40A
:101660006AE28CE30E942C0C69E28FE30E94FD0B7E
:1016700064E670E080E090E00E94440322E344E4EA
:101680006AE28CE30E942C0C69E280E40C94FD0B6E
:101690000F931F93CF93DF93EB018A010E94F40B0A
:1016A0006CE272E081ED92E00E94C50EAE01DD0FAA
:1016B000660B770B81ED92E00E94650E6DEF71E095
:1016C00081ED92E00E94C50EC801DF91CF911F917C
:1016D0000F910C949B0ECF93DF93EB010E94F40BC0
:1016E0006CE272E081ED92E00E94C50ECE010E9494
:1016F000F40B61E571E081ED92E0DF91CF910C9404
:10170000F20ECF93DF93EB010E94F40B6CE272E0D8
:1017100081ED92E00E94C50ECE01DF91CF910C9435
:101720009B0E0E94F40B61E571E081ED92E00C9458
:10173000F20ECF93DF9364E571E081ED92E00E94B9
:10174000C50E80917302909174020E949B0EC0910D
:101750007302D09174020E94C60CAE01DD0F660BBD
:10176000770B8AE094E00E94650E81E0809372021C
:10177000DF91CF91089560917302709174026F5F51
:101780007F4F709374026093730280E090E00E9438
:101790005E17109272020895E1EDF2E0A089B1891E
:1017A00082E08C93A485B5851C92A685B7858FECC5
:1017B0008C93108EA489B58986E08C93A289B38915
:1017C0008C9180618C93A289B3898C9188608C9371
:1017D000A289B3898C9180688C930288F389E02D6B
:1017E00080818F7D80830895FC01448155816081D3
:1017F000718181ED92E00C94C70ECF93DF93D82FC7
:10180000C62F6CE78AE094E00E94E8016CE08AE071
:1018100094E00E94E80160E48AE094E00E94E8011C
:101820006EE28AE094E00E94E8016D2F8AE094E085
:101830000E94E8016C2F8AE094E00E94E80161E0D8
:101840008AE094E00E94E8016AE070E080E090E0C5
:10185000DF91CF910C9444030F931F93CF93DF93A9
:1018600000D0CDB7DEB7182F062F6CE78AE094E0E2
:101870002A8349830E94E80165E08AE094E00E949F
:10188000E801612F8AE094E00E94E801602F8AE07D
:1018900094E00E94E8014981642F8AE094E00E946C
:1018A000E8012A81622F8AE094E00E94E8016AE060
:1018B00070E080E090E00F900F90DF91CF911F914A
:1018C0000F910C9444030F931F93CF93DF9300D099
:1018D000CDB7DEB7182F062F6CE78AE094E02A8395
:1018E00049830E94E8016FE08AE094E00E94E801E9
:1018F000612F8AE094E00E94E801602F8AE094E082
:101900000E94E8014981642F8AE094E00E94E80186
:101910002A81622F8AE094E00E94E80161E08AE077
:1019200094E00E94E8016AE070E080E090E00F90AF
:101930000F90DF91CF911F910F910C944403CF939F
:10194000C82F6CE78AE094E00E94E80163E08AE037
:1019500094E00E94E80160E48AE094E00E94E801DB
:1019600069E28AE094E00E94E8016C2F8AE094E04A
:101970000E94E80161E08AE094E00E94E8016AE0E8
:1019800070E080E090E0CF910C9444036CE78AE033
:1019900094E00E94E80168E18AE094E00E94E80196
:1019A00060E08AE094E00E94E8016CE78AE094E05D
:1019B0000E94E80169E18AE094E00E94E80160E0A9
:1019C0008AE094E00C94E801CF92DF92EF92FF92CC
:1019D000DC01A03282E0B8070CF03EC0B7FD06C0C3
:1019E000A53BB1052CF0A4EBB0E002C0A0E0B0E054
:1019F0008091DC0328E830E06901C81AD10887FD2E
:101A0000D394CC0CDD1CCC0CDD1C0D2C000CEE0892
:101A1000FF088091DD0328E532E0281B310987FDAE
:101A20003395220F331F220F331FA901330F660B8B
:101A3000770B9A01AB012C193D094E095F090E94F1
:101A4000B81724EB30E040E050E00E948E17C20E41
:101A5000D31EE41EF51ED6019091DB039C3098F551
:101A60008091DC0348E850E0481B510987FD5395FD
:101A7000440F551F440F551FA417B5078CF08091D4
:101A8000DD0328E532E0281B310987FD3395220F5D
:101A9000331F220F331FAD012A173B070CF4A90196
:101AA00042505109440F551F2FB7F894892F90E0E9
:101AB000FC01EE0FFF1F8E0F9F1FFC01EA54FC4F2D
:101AC000528341832FBFFF90EF90DF90CF90089516
:101AD0008F929F92AF92BF92CF92DF92EF92FF923E
:101AE0006B017C010E947E034B015C01C60ED71E78
:101AF000E81EF91E0E947E03681579058A059B057C
:101B000028F0C616D706E806F906A0F7FF90EF9072
:101B1000DF90CF90BF90AF909F908F9008950F93DC
:101B20001F93CF93DF93EC0188819981009729F06F
:101B30002A813B812617370788F48B016F5F7F4F1F
:101B40000E946E16009761F0998388831B830A8335
:101B50002C813D81232B11F4FC01108281E001C016
:101B600080E0DF91CF911F910F910895EF92FF9246
:101B70000F931F93CF93DF93EC017B018A01BA018E
:101B80000E948F0D2881398181110DC021153105E9
:101B900019F0C9010E94D615198218821D821C8273
:101BA0001B821A8206C01D830C83B701C9010E94E3
:101BB0004F17CE01DF91CF911F910F91FF90EF90C2
:101BC0000895CF93DF93EC01FB0186179707B1F0DF
:101BD000608171816115710529F0448155810E94F0
:101BE000B60D0CC088819981009711F00E94D6151E
:101BF000198218821D821C821B821A82CE01DF91FB
:101C0000CF910895FC01808191810C94D615FC013F
:101C1000118210821382128215821482611571055D
:101C200051F0FB0101900020E9F73197AF01461B0D
:101C3000570B0C94B60D08954F925F926F927F925E
:101C4000EF92FF920F931F93CF93DF93CDB7DEB741
:101C5000A1970FB6F894DEBF0FBECDBF7C01FA018D
:101C6000CB0119A2223008F42AE08E010F5D1F4F2C
:101C7000422E512C612C712CBF01A30192010E94B4
:101C80006C17F901CA01015011096A3014F4605D42
:101C900001C0695CD8016C93232B242B252B61F7A1
:101CA000B801C7010E94F20EA1960FB6F894DEBFEC
:101CB0000FBECDBFDF91CF911F910F91FF90EF909D
:101CC0007F906F905F904F900895CF92DF92EF9248
:101CD000FF920F931F93CF93DF9377FF21C06A0189
:101CE0007B01EC01E881F9810190F081E02D6DE24A
:101CF00009958C0144275527BA014C195D096E09D5
:101D00007F092AE0CE010E941C0E800F911FDF91F7
:101D1000CF911F910F91FF90EF90DF90CF9008959A
:101D20002AE0DF91CF911F910F91FF90EF90DF900C
:101D3000CF900C941C0ECF93DF93AC01990F660BE0
:101D4000770B81ED92E00E94650EEC0161E571E098
:101D500081ED92E00E94F20E8C0F9D1FDF91CF91DA
:101D600008950F931F93CF93DF93EC010E94F20E1F
:101D70008C0161E571E0CE010E94F20E800F911F8F
:101D8000DF91CF911F910F9108950C94F20ECF9295
:101D9000DF92EF92FF920F931F93CF93DF936C012B
:101DA0007A018B01C0E0D0E0CE15DF0589F0D801C3
:101DB0006D918D01D601ED91FC910190F081E02DA6
:101DC000C6010995892B11F47E0102C02196ECCF42
:101DD000C701DF91CF911F910F91FF90EF90DF909E
:101DE000CF9008956115710579F0FB0101900020F5
:101DF000E9F73197AF01461B570BDC01ED91FC91E0
:101E00000280F381E02D099480E090E00895CF9363
:101E1000DF93CDB7DEB760970FB6F894DEBF0FBE85
:101E2000CDBF789484B5826084BD84B5816084BD63
:101E300085B5826085BD85B5816085BD80916E0068
:101E4000816080936E001092810080918100826099
:101E500080938100809181008160809381008091D6
:101E600080008160809380008091B10084608093C5
:101E7000B1008091B00081608093B00080917A00C1
:101E8000846080937A0080917A00826080937A00E7
:101E900080917A00816080937A0080917A008068D6
:101EA00080937A001092C1001092B2031092B30393
:101EB0001092B4031092B503109270031092710344
:101EC000109272031092730368EB7BE080E090E065
:101ED0000E94680D81ED92E09093B1038093B0036E
:101EE0000E94CC0B0E947E03609370037093710379
:101EF000809372039093730362E471E08091B00366
:101F00009091B1030E94C50E6AE070E080E090E01D
:101F10000E94680D81E0809384038091DB038C3004
:101F200008F051C061E089E00E94F1028091DB037A
:101F3000E82FF0E09F01220F331FE20FF31FEA5456
:101F4000FC4F9081907C996090831092DC031092FA
:101F5000DD036CE00E9407152CE0829FB001112484
:101F600040E050E09A01260F371FF901EE0FFF1FE6
:101F70002E0F3F1FF901EA54FC4F908196FD16C0C9
:101F80004F5F5F4F4C30510569F781110FC01092C0
:101F9000800082E08093810010928500109284007E
:101FA000B19A80916F00826080936F00E091DB03B3
:101FB000F0E0CF01880F991FE80FF91FEA54FC4F9A
:101FC0008081806480838CE390E00E94E40C0E9416
:101FD000CC0B80E090E00E94561790E09093740242
:101FE000809373021092720264E571E081ED92E0D9
:101FF0000E94C50E80917302909174020E949B0E04
:1020000060E08CE00E94F10264E670E080E090E025
:102010000E944403EAEDF0E08491E6ECF0E00491E4
:10202000E2EBF0E01491112379F081110E94980203
:10203000E12FF0E0EE0FFF1FE456FF4FA591B491A2
:10204000EC91E02309F01AC461E08DE00E94F102F6
:1020500060E08DE00E94C1020E94CC0B40E855E296
:1020600060E070E08BEE93E00E948B0560EB74E023
:1020700080E090E00E9444030E94C60C04E610E059
:10208000812C912C540180E00E942D03092E000C1C
:10209000AA0BBB0B880E991EAA1EBB1E015011096C
:1020A00091F7C501B40124E630E040E050E00E9421
:1020B0006C1730937A02209379026CE571E0CE01BF
:1020C00001962D873E874F87588B0E94070E2D85DE
:1020D0003E85B901CE0101960E94810BCE01019689
:1020E0000E94020E0E94980861E771E0CE010196FD
:1020F0000E94070ECE0101960E943706CE0101967E
:102100000E94020E74EF872E99249394A12CB12C77
:10211000FF24F3940E947E03672B682B692B41F404
:102120000E947E03623071058105910508F404C1A7
:102130000E947E0360937F027093800280938102ED
:102140009093820200917B0210917C0220917D028B
:1021500030917E02601771078207930740F4609305
:102160007B0270937C0280937D0290937E020091AB
:102170007B0210917C0220917D0230917E022B0126
:102180003C01401A510A620A730A930182010A3F14
:1021900011052105310508F4CFC060937B027093CF
:1021A0007C0280937D0290937E0280927C039092C9
:1021B0007D03A0927E03B0927F0310928003109261
:1021C0008103109282031092830380917403909193
:1021D0007503A0917603B091770380937803909371
:1021E0007903A0937A03B0937B030E947E036093EC
:1021F00074037093750380937603909377030E9422
:102200007E036093700370937103809372039093C5
:1022100073030E947E032B013C0166E771E080910D
:10222000B0039091B1030E94C50E2AE041E050E056
:1022300060E070E08091B0039091B1030E941C0EA9
:102240006DE771E08091B0039091B1030E94C50EDB
:102250002AE0B301A2018091B0039091B1030E94E2
:102260001C0E6FE771E08091B0039091B1030E9462
:10227000C50E8091740390917503A0917603B0917F
:102280007703B301A201481B590B6A0B7B0B2AE0B1
:102290008091B0039091B1030E941C0E6FE771E032
:1022A0008091B0039091B1030E94C50E40917403D8
:1022B0005091750360917603709177038091780354
:1022C00090917903A0917A03B0917B03481B590B3D
:1022D0006A0B7B0B2AE08091B0039091B1030E94BE
:1022E0001C0E61E871E08091B0039091B1030E94EF
:1022F000C50E0E947E03AB01BC012AE08091B003B1
:102300009091B1030E941C0E63E871E08091B003CC
:102310009091B1030E94B10E62E070E080E090E025
:102320000E94680D0E947E0360937403709375038E
:102330008093760390937703809173029091740257
:102340008130910509F44AC01CF4892B49F093C2ED
:102350008230910509F443C2039709F463C28BC22A
:1023600080917202811102C00E94990B81E00E944B
:102370002D033C016AE871E0CE0101960E94070E30
:10238000A30161E070E0CE0101960E94480BCE01EE
:1023900001960E94020E11E026E0621671040CF014
:1023A00010E082E00E942D033C016AE871E0CE015A
:1023B00001960E94070EA30162E070E0CE01019633
:1023C0000E94480BCE0101960E94020E36E0631671
:1023D00071040CF050C21111FFC14DC28091720204
:1023E000811102C00E94990B0E947E032B013C01C7
:1023F00060937502709376028093770290937802CF
:10240000809171028823C1F180916D0290916E02DA
:10241000A0916F02B0917002A3019201281B390BA9
:102420004A0B5B0BDA01C90188389341A105B1055C
:1024300008F45EC110926C0210926B0261E08DE0B4
:102440000E94C102F0926A021092710240926D02E3
:1024500050926E0260926F027092700264E971E0B5
:10246000CE0101960E94070ECE0101960E94910BAB
:10247000CE0101960E94020E80916A0200916B02C9
:1024800010916C02F801EE0FFF1FE25DFD4F81110C
:1024900064C02081318180916D0290916E02A09183
:1024A0006F02B09170024090750250907602609079
:1024B000770270907802232B19F5A3019201281B53
:1024C000390B4A0B5B0BDA01C901883E9340A10529
:1024D000B10508F40DC161E08DE00E94C102F092E7
:1024E0006A020F5F1F4F10936C0200936B024092C1
:1024F0006D0250926E0260926F0270927002F8C08C
:10250000A3019201281B390B4A0B5B0BDA01C901AD
:10251000843F9140A105B10508F4EAC00F5F1F4F49
:1025200010936C0200936B0240926D0250926E0207
:1025300060926F0270927002000F111FF801E25D4D
:10254000FD4F80819181892B09F4D2C061E08DE03B
:102550000E94C102F0926A02CBC0808191818130D9
:102560009105C9F54090750250907602609077020F
:102570007090780280916D0290916E02A0916F022E
:10258000B0917002A3019201281B390B4A0B5B0B1F
:10259000DA01C901843F9140A105B10508F4A8C042
:1025A00060E08DE00E94C10210926A0240926D02CA
:1025B00050926E0260926F0270927002000F111FB3
:1025C000F801E05DFD4F80819181039709F090C093
:1025D00065EA71E03BC0029709F08AC0409075023D
:1025E00050907602609077027090780280916D0230
:1025F00090916E02A0916F02B0917002A3019201BE
:10260000281B390B4A0B5B0BDA01C9018C3D954045
:10261000A105B10508F46CC060E08DE00E94C10224
:1026200010926A0240926D0250926E0260926F02A6
:1026300070927002000F111FF801E05DFD4F808164
:102640009181039709F054C06EEA71E081ED92E048
:102650000E94B10EF09271024BC02D30310508F08E
:1026600053C08BEE93E00E94540289831A8200913A
:10267000E9031091EA030F5F1F4FB80185EE93E065
:102680000E948F0D882399F02091E5033091E60395
:102690008091E9039091EA03BE016F5F7F4F820F43
:1026A000931F0E944F171093EA030093E9031A82C5
:1026B00019821C821B821E821D8265EE73E0CE0190
:1026C00001960E94E10D68EB71E0CE0107960E9431
:1026D000070EBE016F5F7F4FCE0107960E946B0B06
:1026E000CE0107960E94020ECE0101960E94020EB4
:1026F0008BEE93E00E943C022091E9033091EA03C3
:10270000181619060CF4A9CF2D30310509F0B3C005
:1027100066EC71E0CE0101960E94070ECE01019693
:102720000E94910BCE0101960E94020E1A8219821C
:102730001C821B821E821D8265EE73E0CE01019613
:102740000E94E10DCE0101960E94910BCE010196EF
:102750000E94020E8091E9039091EA03892B09F40B
:1027600097C067ED71E08091E5039091E6030E94C8
:102770004617892B09F08CC065EE71E0CE010196F9
:102780000E94070ECE0101960E94910BCE01019688
:102790000E94020E11E08BEE93E00E94750560ED41
:1027A00077E080E090E00E94440340E855E260E07A
:1027B00070E08BEE93E00E948B0540E050E063E513
:1027C00071E085EE93E00E94B60D112309F453C029
:1027D00060E08DE00E94C1020E94BB0B4CC0809162
:1027E0007202811102C00E94990B80E00E942D03A9
:1027F0008C0164E671E0CE0101960E94070EB801DB
:10280000CE0101960E94810BCE0101960E94020E1C
:102810002091790230917A022C5E3F4F20173107C8
:1028200054F5DACF80917202811125C00E94990B74
:10283000109274021092730260E080E090E00E94B7
:102840005E1784E190E00E94E40C64EF71E080E0A8
:1028500090E00E944403E091DB03F0E0CF01880F99
:10286000991FE80FF91FEA54FC4F80818F7B80830A
:102870000E949808FDCF0E94A0014CCC10927402D7
:102880001092730260E080E090E00E945E17DCCB63
:1028900010E081CFCF93DF938FED93E00E94020E83
:1028A00085EE93E00E94020EC6E3D1E0D093EC03E4
:1028B000C093EB038BEE93E00E947505D0930B045D
:1028C000C0930A048AE094E0DF91CF910C947505DF
:1028D0001092D4021092D30288EE93E0A0E0B0E010
:1028E0008093D5029093D602A093D702B093D802DA
:1028F0008EE091E09093D2028093D10285EC90E03B
:102900009093DE028093DD0284EC90E09093E002ED
:102910008093DF0280EC90E09093E2028093E102EA
:1029200081EC90E09093E4028093E30282EC90E0EB
:102930009093E6028093E50286EC90E09093E802A3
:102940008093E7021092EA021092EB021092EC02DE
:102950001092ED0210927403109275031092760398
:1029600010927703109278031092790310927A03F1
:1029700010927B0310927C0310927D0310927E03D1
:1029800010927F03109280031092810310928203B1
:102990001092830320E043E062E08AE094E00E942A
:1029A00095048091DA038C30A0F491E0980F909315
:1029B000DA038093DB0390E0FC01EE0FFF1F8E0F24
:1029C0009F1FFC01EA54FC4F88EB9BE092838183BC
:1029D00003C08FEF8093DB0320E046E065E08BEEE1
:1029E00093E00E94950463E571E085EE93E00E9418
:1029F000070E63E571E08FED93E00E94070E40E063
:102A000052EC61E070E08AE094E00C948B05991B35
:102A100079E004C0991F961708F0961B881F7A95D5
:102A2000C9F78095089597FB072E16F4009407D0F8
:102A300077FD09D00E942D1507FC05D03EF4909536
:102A400081959F4F0895709561957F4F0895EE0F82
:102A5000FF1F0590F491E02D0994AA1BBB1B51E1C7
:102A600007C0AA1FBB1FA617B70710F0A61BB70BFE
:102A7000881F991F5A95A9F780959095BC01CD01A3
:102A80000895CF93DF938230910510F482E090E0B7
:102A9000E0912B04F0912C0420E030E0C0E0D0E085
:102AA000309711F14081518148175907C0F04817FC
:102AB000590761F482819381209719F09B838A835F
:102AC0002BC090932C0480932B0426C02115310534
:102AD00019F04217530718F49A01BE01DF01EF0104
:102AE0000280F381E02DDCCF2115310509F1281B8F
:102AF000390B2430310590F412968D919C911397E7
:102B00006115710521F0FB019383828304C09093CA
:102B10002C0480932B04FD01329644C0FD01E20F8A
:102B2000F31F81939193225031092D933C933AC026
:102B30002091290430912A04232B41F42091020191
:102B40003091030130932A0420932904209100013D
:102B5000309101012115310541F42DB73EB7409167
:102B6000040150910501241B350BE0912904F091DB
:102B70002A04E217F307A0F42E1B3F0B281739078E
:102B800078F0AC014E5F5F4F2417350748F04E0FC9
:102B90005F1F50932A04409329048193919302C0AC
:102BA000E0E0F0E0CF01DF91CF9108950F931F9304
:102BB000CF93DF93009709F48CC0FC013297138206
:102BC000128200912B0410912C040115110581F43F
:102BD00020813181820F931F2091290430912A0492
:102BE0002817390779F5F0932A04E093290471C076
:102BF000D80140E050E0AE17BF0750F412962D9177
:102C00003C911397AD012115310509F1D901F3CF9D
:102C10009D01DA013383228360817181860F971FC2
:102C20008217930769F4EC0128813981260F371F39
:102C30002E5F3F4F318320838A819B8193838283E0
:102C4000452B29F4F0932C04E0932B0442C01396F7
:102C5000FC93EE931297ED01499159919E01240F37
:102C6000351FE217F30771F480819181840F951F5E
:102C7000029611969C938E938281938113969C93D6
:102C80008E931297E0E0F0E0D80112968D919C911E
:102C90001397009719F0F8018C01F6CF8D919C9154
:102CA00098012E5F3F4F820F931F2091290430918E
:102CB0002A042817390769F4309729F410922C0454
:102CC00010922B0402C01382128210932A040093E4
:102CD0002904DF91CF911F910F910895A0E0B0E0FA
:102CE000E4E7F6E10C94C417EC01009721F4CB0162
:102CF0000E944115B8C0FC01E60FF71F9C0122504D
:102D00003109E217F30708F4ACC0D9010D911C9109
:102D1000119706171707B0F00530110508F49FC08A
:102D2000C80104978617970708F499C00250110943
:102D3000061B170B019311936D937C93CF010E9497
:102D4000D6158DC05B01A01AB10A4C01800E911EF0
:102D5000A0912B04B0912C0440E050E0E12CF12C28
:102D6000109709F44AC0A815B905D1F56D907C906B
:102D70001197630182E0C80ED11CCA14DB0480F1F4
:102D8000A3014A195B096A0182E0C80ED11C1296A0
:102D9000BC9012971396AC91B5E0CB16D10440F0DD
:102DA000B282A38351834083D9016D937C930AC07F
:102DB0000E5F1F4FC301800F911FF9019183808324
:102DC000EB2DFA2FE114F10431F0D7011396FC93A7
:102DD000EE93129744C0F0932C04E0932B043FC071
:102DE0008D919C9111974817590708F4AC017D010A
:102DF00012960D90BC91A02DB3CF80912904909193
:102E00002A0488159905E1F446175707C8F48091FC
:102E1000000190910101009741F48DB79EB7409158
:102E2000040150910501841B950BE817F907C8F4BC
:102E3000F0932A04E0932904F901718360830FC0A1
:102E4000CB010E9441157C01009759F0A801BE01F9
:102E50000E943D17CE010E94D615C70104C0CE01C5
:102E600002C080E090E0CDB7DEB7EEE00C94E01752
:102E700081E090E0F8940C940618FB01DC0102C09C
:102E800001900D9241505040D8F70895FB01DC01AC
:102E90008D91019080190110D9F3990B0895FB01D0
:102EA000DC0101900D920020E1F70895F999FECF21
:102EB00092BD81BDF89A992780B50895262FF9997A
:102EC000FECF1FBA92BD81BD20BD0FB6F894FA9A0D
:102ED000F99A0FBE01960895A1E21A2EAA1BBB1BF8
:102EE000FD010DC0AA1FBB1FEE1FFF1FA217B307D6
:102EF000E407F50720F0A21BB30BE40BF50B661FEC
:102F0000771F881F991F1A9469F7609570958095AF
:102F100090959B01AC01BD01CF010895052E97FB53
:102F20001EF400940E94A51757FD07D00E946C174D
:102F300007FC03D04EF40C94A5175095409530959E
:102F400021953F4F4F4F5F4F089590958095709515
:102F500061957F4F8F4F9F4F08950E94F717A59F50
:102F6000900DB49F900DA49F800D911D1124089584
:102F7000B7FF0C94AD170E94AD17821B930B0895F9
:102F80002F923F924F925F926F927F928F929F9279
:102F9000AF92BF92CF92DF92EF92FF920F931F9367
:102FA000CF93DF93CDB7DEB7CA1BDB0B0FB6F89418
:102FB000DEBF0FBECDBF09942A88398848885F8458
:102FC0006E847D848C849B84AA84B984C884DF80C9
:102FD000EE80FD800C811B81AA81B981CE0FD11DAD
:102FE0000FB6F894DEBF0FBECDBFED010895A29FCE
:102FF000B001B39FC001A39F700D811D1124911DCD
:10300000B29F700D811D1124911D089510E0CCE731
:10301000D0E004C0FE010E9427152196CD37D107CC
:06302000C9F7F894FFCF90
:1030260000002D0480000100000000000000DF0009
:10303600C70EC900A700BB002601000000007502EC
:10304600C70E750275027502750200000000750252
:10305600C70E00000000E801C70E3C025402CF0173
:10306600E701564D4450565F317C315F564D445012
:10307600560D0A0053746174653A2000416D626909
:10308600656E742054656D70657261747572653A0B
:10309600006368616E00564D4450455F003A323A0F
:1030A600007C005F564D4450450050726573737541
:1030B60072653A0072657374617274696E67206D29
:1030C6006F72736500686572655F646F740068652A
:1030D60072655F646173680052464944206D65738A
:1030E600736167653A005F5F5F46494E414C5F43D7
:1030F6004152445F5F5F0002303030303641323635
:1031060033443731006D61746368696E67206361AB
:10311600726400706F73206F6620656E643A2000DB
:103126004D6F72736520636F64653A002E002D0043
:10313600454E440045525200202020202070757ACA
:0E3146007A6C6520626F782120202020200006
:00000001FF
