:100000000C9463000C948B000C948B000C941404DF
:100010000C9414040C9414040C948B000C948B001A
:100020000C948B000C948B000C948B000C948B0024
:100030000C948B000C948B000C948B000C948B0014
:100040000C9464030C948B000C944C020C942602C8
:100050000C948B000C948B000C948B000C948B00F4
:100060000C948B000C948B000000000023002600F1
:10007000290004040404040404040202020202022B
:10008000030303030303010204081020408001025C
:1000900004081020010204081020000000080002DB
:1000A0000100000304070000000000000000000041
:1000B0000000240027002A0000000000250028007E
:1000C0002B00EB0DD10D11241FBECFEFD8E0DEBF0A
:1000D000CDBF11E0A0E0B1E0E6E4F2E202C005909D
:1000E0000D92A83CB107D9F723E0A8ECB1E001C01C
:1000F0001D92A834B207E1F710E0C2E6D0E004C0D8
:100100002197FE010E948C0EC136D107C9F70E94CB
:100110003C080C9416110C940000FC01918D828D0A
:10012000981761F0828DDF01A80FB11D5D968C914B
:10013000928D9F5F9F73928F90E008958FEF9FEF56
:100140000895FC01918D828D981731F0828DE80F12
:10015000F11D858D90E008958FEF9FEF0895FC01CC
:10016000918D228D892F90E0805C9F4F821B910999
:100170008F73992708958AE192E00E94AF0021E0F1
:10018000892B09F420E0822F0895FC01848DDF0182
:10019000A80FB11DA35ABF4F2C91848D90E00196FA
:1001A0008F739927848FA689B7892C93A089B189E9
:1001B0008C9180648C93938D848D981306C00288F3
:1001C000F389E02D80818F7D80830895EF92FF92E7
:1001D0000F931F93CF93DF93EC0181E0888F9B8D6A
:1001E0008C8D981305C0E889F989808185FD24C02C
:1001F000F62E0B8D10E00F5F1F4F0F731127E02EAF
:100200008C8DE8120CC00FB607FCFACFE889F9898B
:10021000808185FFF5CFCE010E94C500F1CF8B8D87
:10022000FE01E80FF11DE35AFF4FF0820B8FEA89C0
:10023000FB898081806207C0EE89FF896083E8893D
:10024000F98980818064808381E090E0DF91CF91A3
:100250001F910F91FF90EF900895CF93DF93EC01E2
:10026000888D8823C9F0EA89FB89808185FD05C0D6
:10027000A889B9898C9186FD0FC00FB607FCF5CF10
:10028000808185FFF2CFA889B9898C9185FFEDCF58
:10029000CE010E94C500E7CFDF91CF91089580E0A5
:1002A00090E0892B29F00E94BB0081110C94000082
:1002B00008953FB7F8948091120290911302A09193
:1002C0001402B091150226B5A89B05C02F3F19F066
:1002D0000196A11DB11D3FBFBA2FA92F982F8827C6
:1002E000820F911DA11DB11DBC01CD0142E0660F21
:1002F000771F881F991F4A95D1F7089520910F0203
:10030000309110022817390771F490910E028091F4
:100310000D02981741F0E0910E02F0E0E353FE4F1A
:10032000808190E008958FEF9FEF089508951F93C7
:10033000CF93DF93DC015C962D913C915D97211565
:10034000310539F481E090E013969C938E931297D7
:100350003DC05196ED91FC91529750969C915097CB
:10036000892F80951FB75E964C915E9741FB77274A
:1003700070F941FD6095F8944081772311F0492B85
:1003800001C048234083E9012197F1F748E05081FB
:1003900060FF02C0592B01C058235083E901219707
:1003A000F1F76695415099F7772321F090818923E1
:1003B000808303C08081982B90831FBF5C968D91B2
:1003C0009C915D970197F1F721E030E0C901DF9141
:1003D000CF911F91089520910F023091100228179C
:1003E000390771F480910D0220910E0290E0805C3B
:1003F0009F4F821B910960E470E00E94450E0895B2
:1004000080E090E0089520910F02309110022817AB
:100410003907B9F490910E0280910D02981789F076
:10042000E0910E02F0E0E353FE4F808120910E0236
:1004300030E02F5F3F4F2F73332720930E0290E061
:1004400008958FEF9FEF08950E9489101F920F92D9
:100450000FB60F9211242F933F934F935F936F9397
:100460007F938F939F93AF93BF93EF93FF938AE113
:1004700092E00E94C500FF91EF91BF91AF919F91D3
:100480008F917F916F915F914F913F912F910F903D
:100490000FBE0F901F9018951F920F920FB60F92DC
:1004A00011242F938F939F93EF93FF93E0912A0250
:1004B000F0912B028081E0913002F091310282FDB7
:1004C00012C09081809133028F5F8F73209134022C
:1004D000821751F0E0913302F0E0E65EFD4F958F18
:1004E0008093330201C08081FF91EF919F918F91A2
:1004F0002F910F900FBE0F901F901895833081F0B1
:1005000028F4813099F08230A1F008958730A9F065
:100510008830B9F08430D1F4809180008F7D03C0A1
:10052000809180008F7780938000089584B58F77C5
:1005300002C084B58F7D84BD08958091B0008F770F
:1005400003C08091B0008F7D8093B00008951F9309
:10055000CF93DF93282F30E0F901E656FF4F8491C7
:10056000F901EA57FF4FD491F901EE58FF4FC491BA
:10057000CC23C9F0162F81110E947E02EC2FF0E0EF
:10058000EE0FFF1FE854FF4FA591B4918FB7F89479
:10059000111105C09C91ED2FE095E92302C0EC916B
:1005A000ED2BEC938FBFDF91CF911F910895CF93E7
:1005B000DF9390E0FC01EA57FF4F2491FC01EE58D5
:1005C000FF4F8491882361F190E0880F991FFC010F
:1005D000E255FF4FC591D491FC01E854FF4FA5911E
:1005E000B491611109C09FB7F89488812095822346
:1005F0008883EC912E230BC0623061F49FB7F8948E
:100600003881822F809583238883EC912E2B2C9325
:100610009FBF06C08FB7F894E8812E2B28838FBF29
:10062000DF91CF9108958E3008F08E5087708064EE
:1006300080937C0080917A00806480937A0080911E
:100640007A0086FDFCCF809178002091790090E0BF
:10065000922B08958F929F92AF92BF92CF92DF928A
:10066000EF92FF926B017C010E9459014B015C01EA
:10067000C114D104E104F104F1F00E945901DC013C
:10068000CB0188199909AA09BB09883E9340A105A5
:10069000B10570F321E0C21AD108E108F10888EE33
:1006A000880E83E0981EA11CB11CC114D104E10482
:1006B000F10419F7DDCFFF90EF90DF90CF90BF905E
:1006C000AF909F908F9008951F920F920FB60F9248
:1006D00011242F933F938F939F93AF93BF93809158
:1006E000160290911702A0911802B0911902309150
:1006F000110223E0230F2D3720F40196A11DB11D17
:1007000005C026E8230F0296A11DB11D20931102FA
:100710008093160290931702A0931802B0931902C7
:100720008091120290911302A0911402B0911502CF
:100730000196A11DB11D8093120290931302A09304
:100740001402B0931502BF91AF919F918F913F9189
:100750002F910F900FBE0F901F9018950F931F931E
:10076000CF93DF93EC01162F042F1B821A8288EEA1
:1007700093E0A0E0B0E08C839D83AE83BF8382E3EF
:1007800091E0998388831F8A1E8A198E188E1B8E8A
:100790001A8E1D8E1C8E6E8D6E7F20FB61F96E8F02
:1007A0006695617081E06827842F0E94A70261E04E
:1007B000802F0E94D702402F50E0FA01EA57FF4FE6
:1007C000E491E88BFA01EE58FF4FE491F0E0EE0F70
:1007D000FF1FE854FF4F859194919A8B898B60E0BD
:1007E000812F0E94D7028E8D81FD04C061E0812F90
:1007F0000E94A7021C87612F70E0FB01EA57FF4FA0
:10080000E491ED87FB01EE58FF4FE491F0E0EE0F2D
:10081000FF1FE859FF4F859194919F878E87DF9145
:10082000CF911F910F9108951F920F920FB60F92C3
:1008300011242F933F934F935F936F937F938F93E5
:100840009F93AF93BF93EF93FF93E0910F02F091CB
:100850001002309709F451C0968DA685B78585851D
:1008600091FF04C09C91892329F447C09C9189235E
:1008700009F043C0A389B4899C9185898095892317
:100880008C93868997890197F1F7608D718DA68584
:10089000B785558538E020E0CB010197F1F7822F2D
:1008A00090E095958795282F4C91452309F0206875
:1008B000315091F7868D81FD209580910D0290E059
:1008C00001968F73992730910E02381749F0A09145
:1008D0000D02B0E0A353BE4F2C9380930D0203C0D2
:1008E000868D8160868F828D938D0197F1F7A38924
:1008F000B4899C918589892B8C93FF91EF91BF914D
:10090000AF919F918F917F916F915F914F913F91A7
:100910002F910F900FBE0F901F901895E0910F022E
:10092000F0911002E817F90769F4A389B4899C9142
:100930008589809589238C931092100210920F0262
:1009400081E0089580E00895CF93DF93EC019A0150
:10095000AB011B8E1A8E198E188E1F8A1E8A60E0BC
:1009600079E08DE390E00E94590EF90124303105C1
:1009700018F0C901039702C081E090E09D8F8C8F31
:100980006C85663108F069C0C901969587958431F8
:10099000910510F0439702C081E090E09F8B8E8B11
:1009A000369718F0C901059702C081E090E0998F51
:1009B000888FC901880F991F280F391F36952795F1
:1009C000369527952D30310518F02C50310902C08D
:1009D00021E030E03B8F2A8F90916800683050F022
:1009E00021E06E3008F420E081E001C0880F2A95F4
:1009F000EAF701C084E0892B809368009C859830D9
:100A000038F09E3040F0963148F020E030E008C0E9
:100A10002DE630E005C02BE630E002C02CE630E0E9
:100A20003C8B2B8B983030F481E001C0880F9A9575
:100A3000EAF70EC0292F30E09E3018F42850310913
:100A400002C02E50310981E001C0880F2A95EAF7D3
:100A50008D8B8C8D9D8D0197F1F78A8D9B8D892BC8
:100A6000E1F080910F02909110028C179D07A9F080
:100A7000009711F00E948E048E8D8E7F8E8F1092C3
:100A80000D0210920E02D0931002C0930F02EB8958
:100A9000FC8990818D89892B8083DF91CF91089586
:100AA0000F931F93CF93DF93EB018A010E94C80637
:100AB00061E871E08AE192E00E943A08AE01DD0F40
:100AC000660B770B8AE192E00E94A30765E571E06F
:100AD0008AE192E00E943A08C801DF91CF911F910C
:100AE0000F910C942408CF93DF93EB010E94C8066A
:100AF00061E871E08AE192E00E943A08CE010E942A
:100B0000C8066DE471E08AE192E0DF91CF910C9428
:100B10008E07CF93DF93EB010E94C80661E871E076
:100B20008AE192E00E943A08CE01DF91CF910C94C5
:100B300024080E94C8066DE471E08AE192E00C94FA
:100B40008E07CF93DF9360E571E08AE192E00E9427
:100B50003A088091C9019091CA010E942408C0916D
:100B6000C901D091CA010E94D106AE01DD0F660B0A
:100B7000770B85E293E00E94A30781E08093C80190
:100B8000DF91CF9108956091C9017091CA016F5FA3
:100B90007F4F7093CA016093C90180E090E00E948A
:100BA000AF101092C8010895CF92DF92EF92FF929A
:100BB0000F931F93CF93DF936C017A018B01C0E0F9
:100BC000D0E0CE15DF0589F0D8016D918D01D601F9
:100BD000ED91FC910190F081E02DC6010995892BE2
:100BE00011F47E0102C02196ECCFC701DF91CF91B5
:100BF0001F910F91FF90EF90DF90CF900895CF93CA
:100C0000DF93D82FC62F6CE785E293E00E9497010F
:100C10006CE085E293E00E94970160E485E293E056
:100C20000E9497016EE285E293E00E9497016D2F8A
:100C300085E293E00E9497016C2F85E293E00E9489
:100C4000970161E085E293E00E9497016AE070E01D
:100C500080E090E0DF91CF910C942A030F931F93D3
:100C6000CF93DF9300D0CDB7DEB7182F062F6CE7F8
:100C700085E293E02A8349830E94970165E085E23B
:100C800093E00E949701612F85E293E00E94970113
:100C9000602F85E293E00E9497014981642F85E2ED
:100CA00093E00E9497012A81622F85E293E00E94DF
:100CB00097016AE070E080E090E00F900F90DF9184
:100CC000CF911F910F910C942A030F931F93CF93F1
:100CD000DF9300D0CDB7DEB7182F062F6CE785E283
:100CE00093E02A8349830E9497016FE085E293E0B5
:100CF0000E949701612F85E293E00E949701602F87
:100D000085E293E00E9497014981642F85E293E098
:100D10000E9497012A81622F85E293E00E94970149
:100D200061E085E293E00E9497016AE070E080E074
:100D300090E00F900F90DF91CF911F910F910C9445
:100D40002A03CF93C82F6CE785E293E00E949701B6
:100D500063E085E293E00E94970160E485E293E01E
:100D60000E94970169E285E293E00E9497016C2F4F
:100D700085E293E00E94970161E085E293E00E94A2
:100D800097016AE070E080E090E0CF910C942A0334
:100D9000FC0144815581608171818AE192E00C946B
:100DA000D4056CE785E293E00E94970168E185E253
:100DB00093E00E94970160E085E293E00E94970132
:100DC0006CE785E293E00E94970169E185E293E098
:100DD0000E94970160E085E293E00C949701CF9226
:100DE000DF92EF92FF920F931F932FB7F894C0906A
:100DF0001602D0901702E0901802F09019022FBF4F
:100E0000DC01CB018C0D9D1DAE1DBF1D4FB7F894AD
:100E100000911602109117022091180230911902C8
:100E20004FBF0C151D052E053F0528F080179107B3
:100E3000A207B30758F71F910F91FF90EF90DF9033
:100E4000CF9008950F931F93CF93DF93EC01888188
:100E50009981009729F02A813B812617370788F46A
:100E60008B016F5F7F4F0E94BF0F009761F09983E6
:100E700088831B830A832C813D81232B11F4FC0181
:100E8000108281E001C080E0DF91CF911F910F912E
:100E90000895EF92FF920F931F93CF93DF93EC018E
:100EA0007B018A01BA010E942207288139818111C0
:100EB0000DC02115310519F0C9010E94270F1982B3
:100EC00018821D821C821B821A8206C01D830C831D
:100ED000B701C9010E94A010CE01DF91CF911F91EF
:100EE0000F91FF90EF900895FC01808191810C9407
:100EF000270FFC0111821082138212821582148244
:100F00006115710551F0FB0101900020E9F731975F
:100F1000AF01461B570B0C944907089561157105E5
:100F200079F0FB0101900020E9F73197AF01461BF2
:100F3000570BDC01ED91FC910280F381E02D0994C7
:100F400080E090E008954F925F926F927F928F922F
:100F50009F92AF92BF92CF92DF92EF92FF920F9348
:100F60001F93CF93DF93CDB7DEB7A1970FB6F89459
:100F7000DEBF0FBECDBF8C016A017B0177FF2FC0A2
:100F8000DC01ED91FC910190F081E02D6DE209957D
:100F90005C0122273327A9012C193D094E095F095D
:100FA00019A2FE01B1967F019AE0492E512C612CC5
:100FB000712CCA01B901A30192010E94BD10605DAC
:100FC000D7016E937D01211531054105510589F742
:100FD000BD01C8010E948E078A0D9B1D1EC09A018B
:100FE000AB0119A2FE01B1967F018AE0882E912CF7
:100FF000A12CB12CCA01B901A50194010E94BD1018
:10100000605DD7016E937D012115310541055105C4
:1010100089F7BD01C8010E948E07A1960FB6F8940A
:10102000DEBF0FBECDBFDF91CF911F910F91FF901B
:10103000EF90DF90CF90BF90AF909F908F907F9078
:101040006F905F904F900895CF93DF93AC01990F0D
:10105000660B770B8AE192E00E94A307EC016DE436
:1010600071E08AE192E00E948E078C0F9D1FDF9154
:10107000CF9108950C948E07CF93DF93CDB7DEB751
:1010800060970FB6F894DEBF0FBECDBF789484B5DD
:10109000826084BD84B5816084BD85B5826085BD74
:1010A00085B5816085BD80916E00816080936E0002
:1010B00010928100809181008260809381008091F4
:1010C00081008160809381008091800081608093A5
:1010D00080008091B10084608093B1008091B00065
:1010E00081608093B00080917A00846080937A0060
:1010F00080917A00826080937A0080917A0081608A
:1011000080937A0080917A00806880937A001092B0
:10111000C1001092FB021092FC021092FD0210928C
:10112000FE021092B9021092BA021092BB02109203
:10113000BC0268EB7BE080E090E00E94EF068AE171
:1011400092E09093FA028093F902E0912A02F091E2
:101150002B0282E08083E0912602F0912702108228
:10116000E0912802F091290280E1808310923202FE
:10117000E0912E02F0912F0286E08083E0912C0214
:10118000F0912D02808180618083E0912C02F091AA
:101190002D02808188608083E0912C02F0912D02E5
:1011A000808180688083E0912C02F0912D02808103
:1011B0008F7D80832FB7F89480911602909117024B
:1011C000A0911802B09119022FBF8093B902909399
:1011D000BA02A093BB02B093BC026EE371E08091AF
:1011E000F9029091FA020E943A086AE070E080E009
:1011F00090E00E94EF0681E08093CD0280E090E0D5
:101200000E94A71090E09093CA018093C9011092A8
:10121000C80160E571E08AE192E00E943A0880919D
:10122000C9019091CA010E94240861E08DE00E94EA
:10123000D70260E08DE00E94A70260E08CE00E948F
:10124000D70264E670E080E090E00E942A03E6EABC
:10125000F0E08491E2E9F0E00491EEE7F0E014912F
:10126000112379F081110E947E02E12FF0E0EE0F50
:10127000FF1FE859FF4FA591B491EC91E02309F0CD
:101280001FC4E0912A02F0912B0282E08083E0915A
:101290002602F09127021082E0912802F0912902A3
:1012A0008FEC808310923202E0912E02F0912F0297
:1012B00086E08083E0912C02F0912D028081806194
:1012C0008083E0912C02F0912D02808188608083E0
:1012D000E0912C02F0912D02808180688083E09162
:1012E0002C02F0912D0280818F7D808340E855E2B1
:1012F00060E070E086E093E00E94A40460EB74E09C
:1013000080E090E00E942A030E94D10604E610E0EB
:10131000C12CD12C760180E00E941303092E000C11
:10132000AA0BBB0BC80ED91EEA1EFB1E01501109E9
:1013300091F7C701B60124E630E040E050E00E949A
:10134000BD103093CC012093CB0168E571E0CE0154
:1013500001962D873E874F87588B0E9479072D85F0
:101360003E85B901CE0101960E948905CE01019604
:101370000E9474076CE785E293E00E94970160E0A9
:1013800085E293E00E9497016DE671E085E293E0CB
:101390000E943A0864E670E080E090E00E942A0330
:1013A0002AE34EE56CE182E20E94650685E00E9438
:1013B000A10684E00E94A10623E345E469E28BE3F1
:1013C0000E942E0623E345E469E28BE30E94650652
:1013D00069E280E40E94FF0564E670E080E090E04E
:1013E0000E942A0322E344E46AE28CE30E942E0670
:1013F00069E281E40E94FF0564E670E080E090E02D
:101400000E942A0322E344E46AE28CE30E942E064F
:1014100069E282E40E94FF0564E670E080E090E00B
:101420000E942A0322E344E46AE28CE30E942E062F
:1014300069E283E40E94FF0564E670E080E090E0EA
:101440000E942A0322E344E46AE28CE30E942E060F
:1014500069E284E40E94FF0564E670E080E090E0C9
:101460000E942A0322E344E46AE28CE30E942E06EF
:1014700069E285E40E94FF0564E670E080E090E0A8
:101480000E942A0322E344E46AE28CE30E942E06CF
:101490006AE285E40E94FF0564E670E080E090E087
:1014A0000E942A0322E344E46AE28CE30E942E06AF
:1014B0006BE285E40E94FF0564E670E080E090E066
:1014C0000E942A0322E344E46AE28CE30E942E068F
:1014D0006CE285E40E94FF0564E670E080E090E045
:1014E0000E942A0322E344E46AE28CE30E942E066F
:1014F0006DE285E40E94FF0564E670E080E090E024
:101500000E942A0322E344E46AE28CE30E942E064E
:101510006EE285E40E94FF0564E670E080E090E002
:101520000E942A0322E344E46AE28CE30E942E062E
:101530006FE285E40E94FF0564E670E080E090E0E1
:101540000E942A0322E344E46AE28CE30E942E060E
:1015500060E385E40E94FF0564E670E080E090E0CF
:101560000E942A0322E344E46AE28CE30E942E06EE
:1015700061E385E40E94FF0564E670E080E090E0AE
:101580000E942A0322E344E46AE28CE30E942E06CE
:1015900062E385E40E94FF0564E670E080E090E08D
:1015A0000E942A0322E344E46AE28CE30E942E06AE
:1015B00063E385E40E94FF0564E670E080E090E06C
:1015C0000E942A0322E344E46AE28CE30E942E068E
:1015D00063E384E40E94FF0564E670E080E090E04D
:1015E0000E942A0322E344E46AE28CE30E942E066E
:1015F00063E383E40E94FF0564E670E080E090E02E
:101600000E942A0322E344E46AE28CE30E942E064D
:1016100063E382E40E94FF0564E670E080E090E00E
:101620000E942A0322E344E46AE28CE30E942E062D
:1016300063E381E40E94FF0564E670E080E090E0EF
:101640000E942A0322E344E46AE28CE30E942E060D
:1016500063E380E40E94FF0564E670E080E090E0D0
:101660000E942A0322E344E46AE28CE30E942E06ED
:1016700063E38FE30E94FF0564E670E080E090E0A2
:101680000E942A0322E344E46AE28CE30E942E06CD
:1016900063E38EE30E94FF0564E670E080E090E083
:1016A0000E942A0322E344E46AE28CE30E942E06AD
:1016B00063E38DE30E94FF0564E670E080E090E064
:1016C0000E942A0322E344E46AE28CE30E942E068D
:1016D00063E38CE30E94FF0564E670E080E090E045
:1016E0000E942A0322E344E46AE28CE30E942E066D
:1016F00063E38BE30E94FF0564E670E080E090E026
:101700000E942A0322E344E46AE28CE30E942E064C
:1017100062E38BE30E94FF0564E670E080E090E006
:101720000E942A0361E38BE30E94FF0560E38BE3E1
:101730000E94FF0564E670E080E090E00E942A03CA
:1017400022E344E46AE28CE30E942E066FE28BE31C
:101750000E94FF0564E670E080E090E00E942A03AA
:1017600022E344E46AE28CE30E942E066EE28BE3FD
:101770000E94FF0564E670E080E090E00E942A038A
:1017800022E344E46AE28CE30E942E066DE28BE3DE
:101790000E94FF0564E670E080E090E00E942A036A
:1017A00022E344E46AE28CE30E942E066CE28BE3BF
:1017B0000E94FF0564E670E080E090E00E942A034A
:1017C00022E344E46AE28CE30E942E066BE28BE3A0
:1017D0000E94FF0564E670E080E090E00E942A032A
:1017E00022E344E46AE28CE30E942E066AE28BE381
:1017F0000E94FF0564E670E080E090E00E942A030A
:1018000022E344E46AE28CE30E942E0669E28BE361
:101810000E94FF0564E670E080E090E00E942A03E9
:1018200022E344E46AE28CE30E942E0669E28BE341
:101830000E94FF0564E670E080E090E00E942A03C9
:1018400022E344E46AE28CE30E942E0669E28CE320
:101850000E94FF0564E670E080E090E00E942A03A9
:1018600022E344E46AE28CE30E942E0669E28DE3FF
:101870000E94FF0564E670E080E090E00E942A0389
:1018800022E344E46AE28CE30E942E0669E28EE3DE
:101890000E94FF0564E670E080E090E00E942A0369
:1018A00022E344E46AE28CE30E942E0669E28FE3BD
:1018B0000E94FF0564E670E080E090E00E942A0349
:1018C00022E344E46AE28CE30E942E0669E280E4AB
:1018D0000E94FF058091C9019091CA018130910554
:1018E00009F44DC01CF4892B49F0E7C08230910502
:1018F00009F4ADC0039709F4CDC0DFC08091C801E1
:10190000811102C00E94A10581E00E9413037C01A5
:1019100063E871E0CE0101960E947907A70161E0BA
:1019200070E0CE0101960E945005CE0101960E9402
:10193000740711E086E0E816F1040CF010E082E094
:101940000E9413037C0163E871E0CE0101960E94BE
:101950007907A70162E070E0CE0101960E94500570
:10196000CE0101960E94740786E0E816F1040CF09F
:10197000A4C0112309F4A1C00E94C3059EC0809198
:10198000C801811157C00E94A10554C02D303105F6
:1019900008F090C086E093E00E94030289831A82D7
:1019A00000910403109105030F5F1F4FB80180E001
:1019B00093E00E942207882399F020910003309140
:1019C00001038091040390910503BE016F5F7F4F77
:1019D000820F931F0E94A01010930503009304032D
:1019E0001A8219821C821B821E821D826091000352
:1019F000709101036115710541F04091040350910C
:101A00000503CE0101960E9449076DE871E0CE0101
:101A100007960E947907BE016F5F7F4FCE01079640
:101A20000E947305CE0107960E947407CE010196AD
:101A30000E94740786E093E00E94EB01209104036A
:101A400030910503181619060CF4A0CF33C080910D
:101A5000C801811102C00E94A10580E00E94130309
:101A60008C0160E671E0CE0101960E947907B80111
:101A7000CE0101960E948905CE0101960E9474074D
:101A80002091CB013091CC012C5E3F4F20173107C4
:101A9000A4F472CF8091C80181110FC00E94A105EA
:101AA0001092CA011092C90160E080E090E00E94AB
:101AB000AF10FFCF2D30310569F00E944F010ACFE2
:101AC0001092CA011092C90160E080E090E00E948B
:101AD000AF10D7CB6BE971E0CE0101960E94790778
:101AE000CE0101960E949905CE0101960E947407CD
:101AF0001A8219821C821B821E821D826091000341
:101B0000709101036115710541F0409104035091FA
:101B10000503CE0101960E944907CE0101960E945D
:101B20009905CE0101960E9474078091040390915B
:101B30000503892BD1F06CEA71E08091000390914C
:101B400001030E949710892B81F46AEB71E0CE01AA
:101B500001960E947907CE0101960E949905CE0157
:101B600001960E94740711E001C010E086E093E046
:101B70000E948E0460ED77E080E090E00E942A03EE
:101B800040E855E260E070E086E093E00E94A40443
:101B900040E050E06FE471E080E093E00E9449078C
:101BA000E8CECF93DF9380E093E00E947407C2E316
:101BB000D1E0D0930703C093060386E093E00E9430
:101BC0008E04D0932603C093250385E293E0DF9132
:101BD000CF910C948E04EAE1F2E01382128288EE37
:101BE00093E0A0E0B0E084839583A683B7838AE086
:101BF00091E09183808385EC90E09587848784ECE5
:101C000090E09787868780EC90E0918B808B81ECC9
:101C100090E0938B828B82EC90E0958B848B86ECAA
:101C200090E0978B868B118E128E138E148EE7EBBD
:101C3000F2E01682178210861186128613861486A9
:101C4000158616861786108A118A128A138A148AB4
:101C5000158A20E043E062E085E293E00E94AE0353
:101C600020E046E065E086E093E00E94AE036FE48A
:101C700071E080E093E00E94790740E052EC61E07F
:101C800070E085E293E00C94A40497FB072E16F411
:101C9000009407D077FD09D00E94780E07FC05D08C
:101CA0003EF4909581959F4F0895709561957F4F73
:101CB0000895052E97FB1EF400940E94700E57FDA8
:101CC00007D00E94BD1007FC03D04EF40C94700E98
:101CD00050954095309521953F4F4F4F5F4F089558
:101CE00090958095709561957F4F8F4F9F4F089588
:101CF000AA1BBB1B51E107C0AA1FBB1FA617B70732
:101D000010F0A61BB70B881F991F5A95A9F780954D
:101D10009095BC01CD010895EE0FFF1F0590F49141
:101D2000E02D0994CF93DF938230910510F482E087
:101D300090E0E0914603F091470320E030E0C0E0FE
:101D4000D0E0309711F14081518148175907C0F018
:101D50004817590761F482819381209719F09B837A
:101D60008A832BC0909347038093460326C0211596
:101D7000310519F04217530718F49A01BE01DF012B
:101D8000EF010280F381E02DDCCF2115310509F14F
:101D9000281B390B2430310590F412968D919C91BB
:101DA00013976115710521F0FB019383828304C0B1
:101DB0009093470380934603FD01329644C0FD0192
:101DC000E20FF31F81939193225031092D933C939D
:101DD0003AC02091440330914503232B41F42091D4
:101DE0000201309103013093450320934403209175
:101DF0000001309101012115310541F42DB73EB7A5
:101E00004091040150910501241B350BE0914403DE
:101E1000F0914503E217F307A0F42E1B3F0B2817A0
:101E2000390778F0AC014E5F5F4F2417350748F053
:101E30004E0F5F1F5093450340934403819391934A
:101E400002C0E0E0F0E0CF01DF91CF9108950F9361
:101E50001F93CF93DF93009709F48CC0FC01329756
:101E60001382128200914603109147030115110558
:101E700081F420813181820F931F2091440330919E
:101E800045032817390779F5F0934503E093440398
:101E900071C0D80140E050E0AE17BF0750F4129671
:101EA0002D913C911397AD012115310509F1D9010F
:101EB000F3CF9D01DA013383228360817181860F24
:101EC000971F8217930769F4EC0128813981260F47
:101ED000371F2E5F3F4F318320838A819B819383FD
:101EE0008283452B29F4F0934703E093460342C0D5
:101EF0001396FC93EE931297ED01499159919E012F
:101F0000240F351FE217F30771F480819181840F4C
:101F1000951F029611969C938E93828193811396BE
:101F20009C938E931297E0E0F0E0D80112968D9189
:101F30009C911397009719F0F8018C01F6CF8D91C1
:101F40009C9198012E5F3F4F820F931F2091440375
:101F5000309145032817390769F4309729F4109216
:101F600047031092460302C0138212821093450366
:101F700000934403DF91CF911F910F910895A0E04A
:101F8000B0E0E5ECFFE00C94E310EC01009721F4E5
:101F9000CB010E94920EB8C0FC01E60FF71F9C0116
:101FA00022503109E217F30708F4ACC0D9010D91B2
:101FB0001C91119706171707B0F00530110508F4AA
:101FC0009FC0C80104978617970708F499C002506C
:101FD0001109061B170B019311936D937C93CF018D
:101FE0000E94270F8DC05B01A01AB10A4C01800E20
:101FF000911EA0914603B091470340E050E0E12CD0
:10200000F12C109709F44AC0A815B905D1F56D90C7
:102010007C901197630182E0C80ED11CCA14DB04C6
:1020200080F1A3014A195B096A0182E0C80ED11C44
:102030001296BC9012971396AC91B5E0CB16D104D2
:1020400040F0B282A38351834083D9016D937C9386
:102050000AC00E5F1F4FC301800F911FF9019183CA
:102060008083EB2DFA2FE114F10431F0D7011396A0
:10207000FC93EE93129744C0F0934703E09346031A
:102080003FC08D919C9111974817590708F4AC01F6
:102090007D0112960D90BC91A02DB3CF8091440389
:1020A0009091450388159905E1F446175707C8F440
:1020B0008091000190910101009741F48DB79EB786
:1020C0004091040150910501841B950BE817F90715
:1020D000C8F4F0934503E0934403F90171836083EE
:1020E0000FC0CB010E94920E7C01009759F0A8010D
:1020F000BE010E948E10CE010E94270FC70104C0AE
:10210000CE0102C080E090E0CDB7DEB7EEE00C94E7
:10211000FF1081E090E0F8940C941611FB01DC01B3
:1021200002C001900D9241505040D8F70895FB0134
:10213000DC018D91019080190110D9F3990B08955C
:10214000FB01DC0101900D920020E1F70895F9995F
:10215000FECF92BD81BDF89A992780B50895262FAC
:10216000F999FECF1FBA92BD81BD20BD0FB6F8947C
:10217000FA9AF99A0FBE01960895A1E21A2EAA1BA7
:10218000BB1BFD010DC0AA1FBB1FEE1FFF1FA21727
:10219000B307E407F50720F0A21BB30BE40BF50B24
:1021A000661F771F881F991F1A9469F760957095AD
:1021B000809590959B01AC01BD01CF0108952F92B0
:1021C0003F924F925F926F927F928F929F92AF92C7
:1021D000BF92CF92DF92EF92FF920F931F93CF9314
:1021E000DF93CDB7DEB7CA1BDB0B0FB6F894DEBFAB
:1021F0000FBECDBF09942A88398848885F846E84D1
:102200007D848C849B84AA84B984C884DF80EE801A
:10221000FD800C811B81AA81B981CE0FD11D0FB623
:10222000F894DEBF0FBECDBFED01089510E0C2E609
:10223000D0E004C0FE010E948C0E2196C336D10767
:06224000C9F7F894FFCF7E
:1022460000004803800000000000E600D405AF004F
:102256008D00A1002D01000000002402D4052402F7
:10226600240224022402000000002402D4050000F7
:1022760000009701D405EB0103027E019601564D3D
:102286004450565F317C315F564D4450560D0A001E
:1022960053746174653A2000416D6269656E7420FD
:1022A60054656D70657261747572653A0020202000
:1022B600202070757A7A6C6520626F782120202044
:1022C60020200050726573737572653A0052464954
:1022D60044206D6573736167653A005F5F5F4649C9
:1022E6004E414C5F434152445F5F5F0002303030E5
:1022F600303641323633443731006D617463686974
:082306006E6720636172640040
:107E0000112484B714BE81FFF0D085E080938100F7
:107E100082E08093C00088E18093C10086E0809377
:107E2000C20080E18093C4008EE0C9D0259A86E02C
:107E300020E33CEF91E0309385002093840096BBD3
:107E4000B09BFECF1D9AA8958150A9F7CC24DD24C4
:107E500088248394B5E0AB2EA1E19A2EF3E0BF2EE7
:107E6000A2D0813461F49FD0082FAFD0023811F036
:107E7000013811F484E001C083E08DD089C08234E0
:107E800011F484E103C0853419F485E0A6D080C0E4
:107E9000853579F488D0E82EFF2485D0082F10E0AE
:107EA000102F00270E291F29000F111F8ED06801E7
:107EB0006FC0863521F484E090D080E0DECF843638
:107EC00009F040C070D06FD0082F6DD080E0C81688
:107ED00080E7D80618F4F601B7BEE895C0E0D1E017
:107EE00062D089930C17E1F7F0E0CF16F0E7DF06D8
:107EF00018F0F601B7BEE89568D007B600FCFDCFD4
:107F0000A601A0E0B1E02C9130E011968C91119780
:107F100090E0982F8827822B932B1296FA010C0160
:107F200087BEE89511244E5F5F4FF1E0A038BF0790
:107F300051F7F601A7BEE89507B600FCFDCF97BE46
:107F4000E89526C08437B1F42ED02DD0F82E2BD052
:107F50003CD0F601EF2C8F010F5F1F4F84911BD097
:107F6000EA94F801C1F70894C11CD11CFA94CF0C13
:107F7000D11C0EC0853739F428D08EE10CD085E9AC
:107F80000AD08FE07ACF813511F488E018D01DD067
:107F900080E101D065CF982F8091C00085FFFCCF94
:107FA0009093C60008958091C00087FFFCCF809118
:107FB000C00084FD01C0A8958091C6000895E0E648
:107FC000F0E098E1908380830895EDDF803219F02E
:107FD00088E0F5DFFFCF84E1DECF1F93182FE3DFCA
:107FE0001150E9F7F2DF1F91089580E0E8DFEE27F6
:047FF000FF270994CA
:027FFE00040479
:0400000300007E007B
:00000001FF